:020000040800F2
:1000000000000220A51F0008351C00083D1C000848
:100010003F1C0008411C0008431C000800000000B1
:10002000000000000000000000000000E173000874
:10003000451C00080000000081740008471C0008EF
:10004000F51F0008F51F0008F51F0008F51F000840
:10005000F51F0008F51F0008F51F0008F51F000830
:10006000F51F0008F51F0008F51F0008F51F000820
:10007000F51F0008F51F0008F51F0008F51F000810
:10008000F51F0008F51F0008F51F0008F51F000800
:10009000F51F0008F51F0008F51F0008F51F0008F0
:1000A000F51F0008F51F0008F51F0008F51F0008E0
:1000B000F51F00085D1C00086D1C0008F51F0008F6
:1000C000F51F0008F51F0008F51F00087D1C00083B
:1000D000F51F00088D1C0008F51F0008F51F00081B
:1000E000F51F0008F51F0008F51F0008F51F0008A0
:1000F000F51F0008F51F0008F51F0008F51F000890
:10010000F51F0008F51F0008F51F0008F51F00087F
:10011000F51F0008F51F0008F51F0008F51F00086F
:10012000F51F0008F51F0008F51F00089D1C0008BA
:10013000F51F0008F51F0008F51F0008F51F00084F
:10014000F51F0008F51F0008F51F0008F51F00083F
:10015000F51F0008F51F0008F51F0008F51F00082F
:10016000F51F0008F51F0008F51F0008F51F00081F
:10017000F51F0008F51F0008F51F0008000000002B
:08018000F51F0008F51F00083F
:1001C00010B5054C237833B9044B13B10448AFF391
:1001D00000800123237010BD680B00200000000088
:1001E0004C75030808B5034B1BB103490348AFF333
:1001F000008008BD000000006C0B00204C75030857
:1002000053B94AB9002908BF00281CBF4FF0FF317D
:100210004FF0FF3000F074B9ADF1080C6DE904CE79
:1002200000F006F8DDF804E0DDE9022304B07047D1
:100230002DE9F047089D04468E46002B4DD18A4299
:10024000944669D9B2FA82F252B101FA02F3C2F1CC
:10025000200120FA01F10CFA02FC41EA030E94405D
:100260004FEA1C48210CBEFBF8F61FFA8CF708FB7E
:1002700016E341EA034306FB07F199420AD91CEB56
:10028000030306F1FF3080F01F81994240F21C8188
:10029000023E63445B1AA4B2B3FBF8F008FB1033D0
:1002A00044EA034400FB07F7A7420AD91CEB040405
:1002B00000F1FF3380F00A81A74240F207816444D5
:1002C000023840EA0640E41B00261DB1D44000235A
:1002D000C5E900433146BDE8F0878B4209D9002DBE
:1002E00000F0EF800026C5E9000130463146BDE848
:1002F000F087B3FA83F6002E4AD18B4202D38242B2
:1003000000F2F980841A61EB030301209E46002D60
:10031000E0D0C5E9004EDDE702B9FFDEB2FA82F2B5
:10032000002A40F09280A1EB0C014FEA1C471FFA13
:100330008CFE0126200CB1FBF7F307FB131140EAFA
:1003400001410EFB03F0884208D91CEB010103F1C7
:10035000FF3802D2884200F2CB804346091AA4B289
:10036000B1FBF7F007FB101144EA01440EFB00FE5D
:10037000A64508D91CEB040400F1FF3102D2A645C2
:1003800000F2BB800846A4EB0E0440EA03409CE761
:10039000C6F12007B34022FA07FC4CEA030C20FA0E
:1003A00007F401FA06F31C43F9404FEA1C4900FA2E
:1003B00006F3B1FBF9F8200C1FFA8CFE09FB1811AB
:1003C00040EA014108FB0EF0884202FA06F20BD91E
:1003D0001CEB010108F1FF3A80F08880884240F26E
:1003E0008580A8F102086144091AA4B2B1FBF9F0B2
:1003F00009FB101144EA014100FB0EFE8E4508D9AD
:100400001CEB010100F1FF346CD28E456AD9023831
:10041000614440EA0840A0FB0294A1EB0E01A14216
:10042000C846A64656D353D05DB1B3EB080261EB84
:100430000E0101FA07F722FA06F3F1401F43C5E95E
:10044000007100263146BDE8F087C2F12003D84094
:100450000CFA02FC21FA03F3914001434FEA1C47D6
:100460001FFA8CFEB3FBF7F007FB10360B0C43EAC8
:10047000064300FB0EF69E4204FA02F408D91CEB78
:10048000030300F1FF382FD29E422DD90238634476
:100490009B1B89B2B3FBF7F607FB163341EA034116
:1004A00006FB0EF38B4208D91CEB010106F1FF3865
:1004B00016D28B4214D9023E6144C91A46EA00465C
:1004C00038E72E46284605E70646E3E61846F8E6EE
:1004D0004B45A9D2B9EB020864EB0C0E0138A3E737
:1004E0004646EAE7204694E74046D1E7D0467BE718
:1004F000023B614432E7304609E76444023842E790
:10050000704700BF844641EA000313F003036DD136
:10051000403A41D351F8043B40F8043B51F8043BC6
:1005200040F8043B51F8043B40F8043B51F8043BCD
:1005300040F8043B51F8043B40F8043B51F8043BBD
:1005400040F8043B51F8043B40F8043B51F8043BAD
:1005500040F8043B51F8043B40F8043B51F8043B9D
:1005600040F8043B51F8043B40F8043B51F8043B8D
:1005700040F8043B51F8043B40F8043B51F8043B7D
:1005800040F8043B51F8043B40F8043B51F8043B6D
:1005900040F8043B403ABDD2303211D351F8043B0D
:1005A00040F8043B51F8043B40F8043B51F8043B4D
:1005B00040F8043B51F8043B40F8043B103AEDD2BC
:1005C0000C3205D351F8043B40F8043B043AF9D20D
:1005D000043208D0D2071CBF11F8013B00F8013BE0
:1005E00001D30B8803806046704700BF082A13D3ED
:1005F0008B078DD010F003038AD0C3F10403D21A05
:10060000DB071CBF11F8013B00F8013B80D331F838
:10061000023B20F8023B7BE7043AD9D3013A11F8B8
:10062000013B00F8013BF9D20B7803704B78437023
:100630008B78837060467047000000000000000067
:10064000A2EB0300704700BF02780B78012A28BF95
:100650009A42F5D16DE9044540EA0104CDE902670B
:100660006FF0000C4FEA447212B380EA010414F0F8
:10067000070F6AD100F0070420F0070004F003051B
:1006800021F007014FEAC505F0E8042314F0040F38
:10069000F1E804670CFA05F462EA040266EA04066B
:1006A0000AD063EA0403624667EA0407664603E089
:1006B000F0E80423F1E8046782FA4CF582EA0604C4
:1006C000A4FA8CF46CBB83FA4CF583EA0705A5FA0F
:1006D0008CF595B950E9022351E9026782FA4CF58D
:1006E00082EA0604A4FA8CF483FA4CF583EA07053F
:1006F000A5FA8CF52543DBD09CB92DBAB5FA85F463
:1007000024F0070427FA04F1DDE9026723FA04F371
:1007100003F0FF0001F0FF01FDE80445A0EB01003C
:10072000704724BAB4FA84F424F0070426FA04F1DA
:10073000DDE9026722FA04F202F0FF0001F0FF0196
:10074000FDE80445A0EB0100704714F0030F3CD115
:1007500010F0030428D150F8082B51F8083B82FA16
:100760004CF582EA0305A5FA8CF55DB950F8042C26
:1007700051F8043C82FA4CF582EA0305A5FA8CF59F
:10078000002DE8D02DBAB5FA85F424F0070423FA39
:1007900004F122FA04F202F0FF0001F0FF01FDE88B
:1007A0000445A0EB010070474FEAC40420F00300A9
:1007B00050F8082B21F0030151F8083B0CFA04F41F
:1007C00062EA040263EA0403C9E710F003041AD0E2
:1007D000A1EB040120F00300E40750F8042B06D03D
:1007E0000FD28B785FFAA2F4E41A06D12BB1CB7842
:1007F0005FFAB2F4E41A00D11BB920465DF8104B41
:10080000704701F1040150F8042BCC0721F00301DB
:1008100051F8043B48D824D222F07F4482FA4CF5A8
:1008200094EA1325A5FA8CF50AD165B951F8043B71
:1008300084EA0204B4EB036F0ED150F8042BEBE70B
:100840004FEA132355E035F07F454DD10878FDE898
:100850000445C0F1000070474FEA126203F0FF0345
:1008600047E002EA1C4482FA4CF594EA1345A5FAE3
:100870008CF50AD165B951F8043B84EA0204B4EB63
:10088000034F0CD150F8042BEBE74FEA134330E051
:1008900015EA1C4528D10B884FEA124229E04FEA9D
:1008A000124203EA1C4324E002F0FF0482FA4CF5F2
:1008B00094EA1365A5FA8CF50AD165B951F8043BA1
:1008C00084EA0204B4EB032F09D150F8042BEBE7C0
:1008D0004FEA13630DE015F0FF0F05D10B684FEAE7
:1008E000122223F07F4304E04FF00000FDE80445AE
:1008F000704712BA1BBA82FA4CF482EA0304A4FAD3
:100900008CF5B5FA85F402FA04F203FA04F34FEA1F
:100910001260FDE80445A0EB136070470000000082
:1009200000000000000000000000000000000000C7
:1009300000000000000000000000000000000000B7
:1009400090F800F06DE9024520F007016FF0000C0F
:1009500010F0070491F820F040F049804FF00004B7
:100960006FF00700D1E9002391F840F000F1080092
:1009700082FA4CF2A4FA8CF283FA4CF3A2FA8CF3CA
:100980004BBBD1E9022382FA4CF200F10800A4FA31
:100990008CF283FA4CF3A2FA8CF3E3B9D1E9042385
:1009A00082FA4CF200F10800A4FA8CF283FA4CF3BC
:1009B000A2FA8CF37BB9D1E9062301F1200182FA76
:1009C0004CF200F10800A4FA8CF283FA4CF3A2FA7C
:1009D0008CF3002BC6D0002A04BF04301A4612BA8A
:1009E000B2FA82F2FDE8024500EBD2007047D1E98D
:1009F000002304F00305C4F100004FEAC50514F01C
:100A0000040F91F840F00CFA05F562EA05021CBFEC
:100A100063EA050362464FF00004A9E70000000006
:100A200001F0FF01102A2BDB10F0070F08D010F89F
:100A3000013B013A8B422DD010F0070F42B3F6D1A3
:100A4000F0B441EA012141EA014122F007047FF0BC
:100A500000070023F0E80256083C85EA010586EA13
:100A6000010685FA47F5A3FA87F586FA47F6A5FA4F
:100A700087F68EB9EED1F0BC01F0FF0102F007025B
:100A800032B110F8013B013A83EA010313B1F8D106
:100A90000020704701387047002D06BF35460338E7
:100AA000073815F0010F07D1013015F4807F02BF20
:100AB000013015F4C03F0130F0BC0138704700BF71
:100AC00081F0004102E000BF83F0004330B54FEAFF
:100AD00041044FEA430594EA050F08BF90EA020F6C
:100AE0001FBF54EA000C55EA020C7FEA645C7FEAFF
:100AF000655C00F0E2804FEA5454D4EB5555B8BF22
:100B00006D420CDD2C4480EA020281EA030382EA92
:100B1000000083EA010180EA020281EA0303362D24
:100B200088BF30BD11F0004F4FEA01314FF4801CF7
:100B30004CEA113102D0404261EB410113F0004F09
:100B40004FEA03334CEA133302D0524263EB4303C0
:100B500094EA050F00F0A780A4F10104D5F1200E5E
:100B60000DDB02FA0EFC22FA05F2801841F10001B9
:100B700003FA0EF2801843FA05F359410EE0A5F18D
:100B800020050EF1200E012A03FA0EFC28BF4CF0BE
:100B9000020C43FA05F3C01851EBE37101F0004574
:100BA00007D54FF0000EDCF1000C7EEB00006EEB81
:100BB0000101B1F5801F1BD3B1F5001F0CD349080B
:100BC0005FEA30004FEA3C0C04F101044FEA445262
:100BD00012F5800F80F09A80BCF1004F08BF5FEAE9
:100BE000500C50F1000041EB045141EA050130BDC9
:100BF0005FEA4C0C404141EB0101013C28BFB1F5DB
:100C0000801FE9D291F0000F04BF01460020B1FA25
:100C100081F308BF2033A3F10B03B3F120020CDAF8
:100C20000C3208DD02F1140CC2F10C0201FA0CF0D6
:100C300021FA02F10CE002F11402D8BFC2F1200C3B
:100C400001FA02F120FA0CFCDCBF41EA0C019040F1
:100C5000E41AA2BF01EB0451294330BD6FEA04043A
:100C60001F3C1CDA0C340EDC04F11404C4F1200225
:100C700020FA04F001FA02F340EA030021FA04F337
:100C800045EA030130BDC4F10C04C4F1200220FA8E
:100C900002F001FA04F340EA0300294630BD21FACC
:100CA00004F0294630BD94F0000F83F4801306BF92
:100CB00081F480110134013D4EE77FEA645C18BF86
:100CC0007FEA655C29D094EA050F08BF90EA020F1D
:100CD00005D054EA000C04BF1946104630BD91EA15
:100CE000030F1EBF0021002030BD5FEA545C05D118
:100CF0004000494128BF41F0004130BD14F5800457
:100D00003CBF01F5801130BD01F0004545F0FE41CA
:100D100041F470014FF0000030BD7FEA645C1ABFFF
:100D2000194610467FEA655C1CBF0B46024650EA36
:100D3000013406BF52EA033591EA030F41F4002162
:100D400030BD00BF90F0000F04BF0021704730B5E8
:100D50004FF4806404F132044FF000054FF00001BD
:100D600050E700BF90F0000F04BF0021704730B57E
:100D70004FF4806404F1320410F0004548BF404253
:100D80004FF000013EE700BF42004FEAE2014FEAA8
:100D900031014FEA02701FBF12F07F4393F07F4F83
:100DA00081F06051704732F07F4208BF704793F086
:100DB0007F4F04BF41F40021704730B54FF4607499
:100DC00001F0004521F000411CE700BF50EA01029C
:100DD00008BF704730B54FF000050AE050EA010245
:100DE00008BF704730B511F0004502D5404261EBB5
:100DF00041014FF4806404F132045FEA915C3FF4F6
:100E0000D8AE4FF003025FEADC0C18BF03325FEA92
:100E1000DC0C18BF033202EBDC02C2F1200300FA43
:100E200003FC20FA02F001FA03FE40EA0E0021FA68
:100E300002F11444BDE600BF70B54FF0FF0C4CF456
:100E4000E06C1CEA11541DBF1CEA135594EA0C0F08
:100E500095EA0C0F00F0DEF82C4481EA030621EA43
:100E60004C5123EA4C5350EA013518BF52EA03357E
:100E700041F4801143F4801338D0A0FB02CE4FF030
:100E80000005E1FB02E506F00042E0FB03E54FF060
:100E90000006E1FB03569CF0000F18BF4EF0010E58
:100EA000A4F1FF04B6F5007F64F5407404D25FEA54
:100EB0004E0E6D4146EB060642EAC62141EA555107
:100EC0004FEAC52040EA5E504FEACE2EB4F1FD0C49
:100ED00088BFBCF5E06F1ED8BEF1004F08BF5FEAC7
:100EE000500E50F1000041EB045170BD06F0004679
:100EF00046EA010140EA020081EA0301B4EB5C0426
:100F0000C2BFD4EB0C0541EA045170BD41F480111D
:100F10004FF0000E013C00F3AB8014F1360FDEBF42
:100F2000002001F0004170BDC4F10004203C35DA1E
:100F30000C341BDC04F11404C4F1200500FA05F3A1
:100F400020FA04F001FA05F240EA020001F0004242
:100F500021F0004110EBD37021FA04F642EB0601B8
:100F60005EEA430E08BF20EAD37070BDC4F10C04E2
:100F7000C4F1200500FA04F320FA05F001FA04F2A6
:100F800040EA020001F0004110EBD37041F1000192
:100F90005EEA430E08BF20EAD37070BDC4F120059D
:100FA00000FA05F24EEA020E20FA04F301FA05F205
:100FB00043EA020321FA04F001F0004121FA04F2AD
:100FC00020EA020000EBD3705EEA430E08BF20EA7D
:100FD000D37070BD94F0000F0FD101F000464000B7
:100FE00041EB010111F4801F08BF013CF7D041EA39
:100FF000060195F0000F18BF704703F0004652003D
:1010000043EB030313F4801F08BF013DF7D043EA0D
:101010000603704794EA0C0F0CEA135518BF95EAC3
:101020000C0F0CD050EA410618BF52EA4306D1D14A
:1010300081EA030101F000414FF0000070BD50EA69
:10104000410606BF1046194652EA430619D094EAF3
:101050000C0F02D150EA013613D195EA0C0F05D1DD
:1010600052EA03361CBF104619460AD181EA030131
:1010700001F0004141F0FE4141F470014FF00000E9
:1010800070BD41F0FE4141F4780170BD70B54FF084
:10109000FF0C4CF4E06C1CEA11541DBF1CEA135504
:1010A00094EA0C0F95EA0C0F00F0A7F8A4EB0504E6
:1010B00081EA030E52EA03354FEA013100F08880DD
:1010C0004FEA03334FF0805545EA131343EA1263A6
:1010D0004FEA022245EA111545EA10654FEA00265B
:1010E0000EF000419D4208BF964244F1FD0404F514
:1010F000407402D25B084FEA3202B61A65EB030570
:101100005B084FEA32024FF480104FF4002CB6EB2C
:10111000020E75EB030E22BFB61A754640EA0C00AC
:101120005B084FEA3202B6EB020E75EB030E22BFEC
:10113000B61A754640EA5C005B084FEA3202B6EB2D
:10114000020E75EB030E22BFB61A754640EA9C00EC
:101150005B084FEA3202B6EB020E75EB030E22BFBC
:10116000B61A754640EADC0055EA060E18D04FEA7A
:10117000051545EA16754FEA06164FEAC30343EA1A
:1011800052734FEAC2025FEA1C1CC0D111F4801FE7
:101190000BD141EA00014FF000004FF0004CB6E7E0
:1011A00011F4801F04BF01430020B4F1FD0C88BF7F
:1011B000BCF5E06F3FF6AFAEB5EB030C04BFB6EB8A
:1011C000020C5FEA500C50F1000041EB045170BD7D
:1011D0000EF0004E4EEA113114EB5C04C2BFD4EBAA
:1011E0000C0541EA045170BD41F480114FF0000E2E
:1011F000013C90E645EA060E8DE60CEA135594EAAA
:101200000C0F08BF95EA0C0F3FF43BAF94EA0C0FAC
:101210000AD150EA01347FF434AF95EA0C0F7FF421
:1012200025AF104619462CE795EA0C0F06D152EA75
:1012300003353FF4FDAE1046194622E750EA410659
:1012400018BF52EA43067FF4C5AE50EA41047FF46A
:101250000DAF52EA43057FF4EBAE12E74FF0FF3CCF
:1012600006E000BF4FF0010C02E000BF4FF0010CA0
:101270004DF804CD4FEA410C7FEA6C5C4FEA430C19
:1012800018BF7FEA6C5C1BD001B050EA410C0CBF68
:1012900052EA430C91EA030F02BF90EA020F0020CA
:1012A000704710F1000F91EA030F58BF994208BF31
:1012B00090422CBFD8176FEAE37040F001007047EE
:1012C0004FEA410C7FEA6C5C02D150EA013C07D145
:1012D0004FEA430C7FEA6C5CD6D152EA033CD3D090
:1012E0005DF8040B704700BF8446104662468C468A
:1012F0001946634600E000BF01B5FFF7B7FF0028BD
:1013000048BF10F1000F01BD4DF808EDFFF7F4FFE5
:101310000CBF012000205DF808FB00BF4DF808ED70
:10132000FFF7EAFF34BF012000205DF808FB00BF93
:101330004DF808EDFFF7E0FF94BF012000205DF8B5
:1013400008FB00BF4DF808EDFFF7CEFF94BF01206A
:1013500000205DF808FB00BF4DF808EDFFF7C4FF63
:1013600034BF012000205DF808FB00BF4FEA410CAC
:101370007FEA6C5C02D150EA013C0AD14FEA430C8F
:101380007FEA6C5C02D152EA033C02D14FF00000CC
:1013900070474FF0010070474FEA410212F500120A
:1013A00015D211D56FF47873B3EB625212D94FEAAC
:1013B000C12343F0004343EA505311F0004F23FA96
:1013C00002F018BF404270474FF00000704750EAEB
:1013D000013005D111F0004008BF6FF000407047A8
:1013E0004FF00000704700BF10B50C460A4601469A
:1013F0000A4803F0C1FC0A4A1378B3FA83F35B0985
:1014000013703BB1074805F05DFE2146064830F0F9
:1014100051F810BD034805F069FEF6E7380C0020CE
:10142000840B0020280C0020F4750308F8B51D4F2C
:101430001D4A0021384605F03EFB1C4E1C4A002187
:10144000304605F038FB1B4C1B4A0021204605F0B6
:1014500032FB1A4D2A460321384605F04AFB2A463C
:101460000321304605F045FB2A460321204605F0BE
:1014700040FB2A460421204605F03BFB2A46062174
:10148000204605F036FB384605F046FB304605F0B1
:1014900043FB204605F040FB094802F0C3FB002057
:1014A000F8BD00BF880B0020DD140008E00B002011
:1014B000ED140008B40B002001150008E913000822
:1014C000C40D002008B5021E18BF01224FF40051C0
:1014D000014801F0C2F908BD0008024008B58021AA
:1014E000014801F0B3F908BD0018024008B54FF4F7
:1014F0008071024801F0AAF908BD00BF001802403F
:1015000008B52021014801F0A1F908BD00180240EA
:1015100008B50A4664230146014802F01CF908BDDB
:10152000200D002008B502460221024801F095F97D
:1015300008BD00BF0008024008B50246012102486C
:1015400001F08BF908BD00BF0018024008B5024643
:101550000221024801F081F908BD00BF00180240D5
:1015600000B583B00E4B00930E4B0F4A0F49104845
:1015700005F09BFD00280DDBF02387220C490D4868
:1015800005F013FB002808DB0A4805F005FB03B053
:101590005DF804FB4FF0FF30F9E76FF00100F6E76C
:1015A0004D1500083915000825150008111500080B
:1015B000180C00200C0C002010B5054C054A002129
:1015C000204605F0B4FD204605F090FD002010BD3A
:1015D000280C0020C514000810B582B00146064C46
:1015E0000022204601F075FF002201A9204601F0EB
:1015F00096FF02B010BD00BFA00C002030B587B030
:101600000446064D002201A9284601F062FF00228F
:101610002146284601F083FF07B030BDA00C002012
:1016200030B587B00446064D002201A9284601F0D6
:1016300050FF00222146284601F071FF07B030BD5F
:10164000A00C002008B501460022024801F08BFEE4
:1016500008BD00BFA00C002008B5014600220248CA
:1016600001F0E0FE08BD00BFA00C002000B583B073
:1016700000220192094B196B41F4800119631B6B25
:1016800003F480030193019B05213B2000F02CFD16
:101690003B2000F061FD03B05DF804FB0038024020
:1016A00008B5094C204605F00DFD4FF4FA7000F026
:1016B000F5FC204605F01AFD4FF4FA7000F0EEFC40
:1016C000012005F0CCFDECE7280C002008B503F064
:1016D00061F9012005F0C3FDF9E7000008B5FFF747
:1016E000A5FEFFF769FFFFF73BFF104805F0DDFAA5
:1016F00008F0F4FC07F0BCFB0D4802F093FA0F224F
:1017000011460C4803F0A3FA03F01EF90A4A00211F
:101710000A4805F045FD0A4B18600A4A00210A48AC
:1017200005F03EFD094B186008BD00BF0C0C002001
:101730007C0D0020380C002028760308A116000834
:10174000300C00204C760308CD160008340C002025
:1017500010B504460268074B9A4204D02268064B33
:101760009A4203D010BD05F0EFF9F7E7012023F00E
:1017700007FBF7E700080040000400402DE9F041B6
:101780008AB0002405940694079408940994009460
:10179000364B1A6B42F004021A631A6B02F0040211
:1017A0000092009A01941A6B42F080021A631A6B3D
:1017B00002F080020192019A02941A6B42F0010237
:1017C0001A631A6B02F001020292029A03941A6BD6
:1017D00042F040021A631A6B02F040020392039A2D
:1017E00004941A6B42F002021A631B6B03F00203AB
:1017F0000493049BDFF87C80224642F202014046BB
:1018000001F02BF81A4D22460121284601F025F857
:1018100001220221284601F020F84FF400530593DD
:10182000012706970794089405A9404600F01CFF7D
:1018300002230593069707940326089605A94046B8
:1018400000F012FF059606970794089605A928460A
:1018500000F00AFF4FF4D07305930694079405A98E
:10186000284600F001FF0AB0BDE8F08100380240D0
:10187000001802400008024008B50B480B4B0360FB
:101880000B4B436000238360C3604FF480420261CE
:1018900043618361C361036200F0E6FF00B908BDE4
:1018A00000F040F8FBE700BF4C0C00200054004063
:1018B000A086010030B589B00023039304930593FB
:1018C000069307930268144B9A4201D009B030BDC9
:1018D00000250195114C236B43F002032363236B16
:1018E00003F002030193019BC0230393122304938B
:1018F000032306930423079303A9094800F0B4FEC9
:101900000295236C43F400132364236C03F4001347
:101910000293029BDAE700BF005400400038024007
:101920000004024072B6FEE700B595B030220021F7
:1019300008A82FF06DFD00230393049305930693ED
:1019400007930193224A116C41F080511164126C8B
:1019500002F080520192019A02931E4B1A6842F4DF
:1019600080421A601B6803F480430293029B0523A4
:1019700008934FF48033099301230A9302220E92B5
:101980004FF480030F9304231093A8211191129216
:10199000139308A801F046F8A8B90F230393022374
:1019A0000493002305934FF4A05306934FF4805300
:1019B0000793052103A801F0A1FA30B901F02EFA2E
:1019C00015B05DF804FBFFF7ADFFFFF7ABFF00BFFD
:1019D000003802400070004008B500F033FBFFF70C
:1019E000A3FFFFF7CBFEFFF741FEFFF745FF00F037
:1019F0006FFA00F0C3F900F00BF800F077F800F090
:101A0000F5F905F09FFBFFF769FE05F0ADFBFEE77A
:101A100000B587B0002301930293039304930593C9
:101A200000931E481E4A026043607F228260FF22AC
:101A3000C26003614361836101F043FC20BB092361
:101A40008DF804300F238DF8053000228DF8062024
:101A50000492059201A9114801F085FCB8B901234F
:101A60008DF8003002238DF8013006238DF8023006
:101A700017238DF8033000226946084801F0D2FC94
:101A800040B907B05DF804FBFFF74CFFD7E7FFF75D
:101A900049FFE4E7FFF746FFF3E700BFA00C002093
:101AA0000028004000B585B0002300930193029305
:101AB000039302680B4B9A4202D005B05DF804FB19
:101AC000022300934FF480730393684601F0FEFAFB
:101AD00020B9054B0122C3F83C2EEEE7FFF722FFA9
:101AE000F7E700BF002800400000474208B50E4855
:101AF0000E4B03604FF48273436000238360C36026
:101B000002220261012242614FF400728261C361CC
:101B10000362436283620A23C36201F0BDFD00B920
:101B200008BDFFF7FFFEFBE7200D0020003001405D
:101B300030B589B00023039304930593069307936C
:101B40000268274B9A4201D009B030BD04460025F7
:101B5000019503F584335A6C42F480525A645A6CEE
:101B600002F480520192019A02951A6B42F001022E
:101B70001A631B6B03F001030293029BA0230393E0
:101B800002230493032306930523079303A915480F
:101B900000F06AFD1448154B03604FF0C0634360CA
:101BA00040238360C5604FF48063036145618561B4
:101BB000C5614FF440330362456200F06FFB58B9D2
:101BC000094BA3649C6300220521232000F08CFABA
:101BD000232000F0C1FAB7E7FFF7A4FEF0E700BF4B
:101BE0000030014000000240C00C00205864024058
:101BF00000B583B0002200920D4B596C41F4804136
:101C00005964596C01F48041009100990192196C5A
:101C100041F0805119641B6C03F080530193019BC8
:101C20000F216FF0010000F05FFA03B05DF804FBD4
:101C30000038024008B501F039FAFEE7FEE7FEE79A
:101C4000FEE7FEE7704708B500F016FA06F084FEDE
:101C5000012800D108BD05F045FCFBE708B50248A6
:101C600002F028F808BD00BF7C0D002008B502482E
:101C700002F020F808BD00BFC40D002008B50248DE
:101C800001F006FF08BD00BF200D002008B5024886
:101C900002F082FC08BD00BF0C0E002008B502480F
:101CA00000F0F4FB08BD00BFC00C0020012070470D
:101CB00008B52FF0F3FA162303604FF0FF3008BD8C
:101CC00008B54FF0FF31FFF7F3FFFEE770B50C46A4
:101CD0001646002506E0AFF30080214601F8010B0F
:101CE00001350C46B542F6DB304670BD70B50C468A
:101CF0001646002504E014F8010B00F043F9013505
:101D0000B542F8DB304670BD4FF0FF3070474FF4FE
:101D100000534B600020704701207047002070473F
:101D200010B503460C4A0D490D48006840B10C48F7
:101D300000680344521A934206D8094A136010BD42
:101D40000748084C0460F2E72FF0A8FA0C23036060
:101D50004FF0FF30F3E700BF000002200004000056
:101D6000780D0020F8D20120034AD2F8883043F4DD
:101D70007003C2F88830704700ED00E000B587B00E
:101D80000023029303930493059300930193154852
:101D9000154A026044F29F12426083600A22C260C8
:101DA00003618023836102F0A7F890B94FF4805358
:101DB000029302A90B4802F0D8F868B900230093F7
:101DC00001936946074802F04FF940B907B05DF842
:101DD00004FBFFF7A7FDE9E7FFF7A4FDEEE7FFF738
:101DE000A1FDF3E77C0D00200004004000B587B0A2
:101DF00000230293039304930593009301931548E2
:101E0000154A026044F29F12426083602722C2603A
:101E100003618023836102F06FF890B94FF480531F
:101E2000029302A90B4802F0A0F868B900230093BE
:101E300001936946074802F017F940B907B05DF809
:101E400004FBFFF76FFDE9E7FFF76CFDEEE7FFF737
:101E500069FDF3E7C40D00200008004000B583B021
:101E60000368184A934205D0174A934216D003B02C
:101E70005DF804FB00220092144B196C41F0020142
:101E800019641B6C03F002030093009B05211D20C5
:101E900000F02AF91D2000F05FF9E8E70022019226
:101EA0000A4B196C41F0040119641B6C03F0040324
:101EB0000193019B05211E2000F016F91E2000F061
:101EC0004BF9D4E70004004000080040003802400D
:101ED00008B50A480A4B03604FF4E133436000231E
:101EE0008360C36003610C2242618361C36102F0BD
:101EF0002DFA00B908BDFFF715FDFBE70C0E002019
:101F00000010014010B588B000230393049305939B
:101F100006930793026803F1804303F588339A42DE
:101F200001D008B010BD0024019403F594335A6C1D
:101F300042F010025A645A6C02F010020192019AA7
:101F400002941A6B42F001021A631B6B03F0010347
:101F50000293029B4FF4C063039302230493032371
:101F600006930723079303A9054800F07DFB22464B
:101F70000521252000F0B8F8252000F0EDF8D0E785
:101F80000000024000B583B001904FF6FF730122BC
:101F900001A9034802F009FA019803B05DF804FBB7
:101FA0000C0E0020DFF834D00D480E490E4A0023F5
:101FB00002E0D458C4500433C4188C42F9D30B4AFD
:101FC0000B4C002301E013600432A242FBD3FFF765
:101FD000CBFE2FF07DF9FFF7FFFC704700000220D9
:101FE00000000020680B00206C7E0908680B0020B0
:101FF000F8D20120FEE7000010B504460E4B187819
:102000004FF47A73B3FBF0F30C4A1068B0FBF3F0B3
:1020100000F0B0F868B90F2C01D901200AE00022C5
:1020200021464FF0FF3000F05FF8054B1C600020A8
:1020300000E0012010BD00BF0400002000000020CF
:102040000800002008B50B4B1A6842F400721A60B1
:102050001A6842F480621A601A6842F480721A6048
:10206000032000F02FF80F20FFF7C6FFFFF7C0FD99
:10207000002008BD003C0240034A1168034B1B7856
:102080000B441360704700BF500E00200400002076
:10209000014B1868704700BF500E002038B5044649
:1020A000FFF7F6FF0546B4F1FF3F02D0044B1B7863
:1020B0001C44FFF7EDFF401BA042FAD338BD00BF20
:1020C00004000020074AD36823F4E0631B041B0CC0
:1020D000000200F4E060034343F0BF6343F40033C5
:1020E000D360704700ED00E000B5194BDB68C3F327
:1020F0000223C3F1070CBCF1040F28BF4FF0040CFE
:1021000003F1040EBEF1060F18D9033B4FF0FF3E5A
:102110000EFA0CFC21EA0C0199400EFA03F322EAB4
:102120000303194300280BDB0901C9B200F1604029
:1021300000F5614080F800135DF804FB0023E5E73B
:1021400000F00F000901C9B2024B1954F4E700BFB7
:1021500000ED00E014ED00E0002807DB00F01F02B6
:10216000400901239340024A42F82030704700BFE3
:1021700000E100E00138B0F1807F0BD24FF0E023A6
:102180005861054AF02182F8231000209861072247
:102190001A6170470120704700ED00E030B4056817
:1021A0002C6824F480242C60046863608368402BCE
:1021B00005D0036899600368DA6030BC7047036833
:1021C0009A600368D960F8E710B40368D9B210398F
:1021D0000C4AA2FB014212090B4CA25CC2655F29AA
:1021E00009D923F47F7323F0030304338365806DDF
:1021F0005DF8044B704723F47F7323F0030383657A
:10220000F5E700BFABAAAAAA88760308836A8269A9
:1022100092B9012B0AD0022B02D00BB100207047DB
:10222000C36A13F0807F28D100207047C36AB3F1DE
:10223000C07F24D000207047B2F5005F09D0022B88
:1022400025D9032B25D1C36A13F0807F23D1002029
:102250007047032B03D8DFE803F01404140A0020AE
:102260007047C36A13F0807F0DD100207047C36AA6
:10227000B3F1C07F09D000207047012070470120D2
:1022800070470120704701207047012070470120EE
:1022900070470020704701207047000070B5044669
:1022A000FFF7F6FE002C5BD00546022384F835309C
:1022B000002384F834302268136823F0010313608C
:1022C00023681A6812F0010F0AD0FFF7E1FE431BE2
:1022D000052BF5D920236365032084F8350070BDF4
:1022E0001A68204810406168A2680A43E1680A43FE
:1022F00021690A4361690A43A1690A43E1690A4302
:10230000216A0A430243616A04291ED01A602668C2
:10231000756925F00705636A1D43042B07D1A36A7D
:102320001D43E36A1BB12046FFF770FF90B975614A
:102330002046FFF749FFE26D3F2393408360002072
:102340006065012384F83530C9E7E16A206B0143F9
:102350000A43DBE740236365012084F83500BEE7CC
:102360000120BCE73F8010F038B50446856D90F839
:10237000340001282BD0012084F8340094F8350073
:10238000C0B2012804D0002384F83430022038BDC4
:10239000022084F83500002060652046FFF7FEFE2D
:1023A000E26D3F239340AB602268136843F016034D
:1023B0001360236C23B12268136843F00803136091
:1023C0002268136843F0010313600020DFE7022056
:1023D000DDE770B50446866DFFF75AFE94F8353098
:1023E000DBB2022B06D080236365002384F83430EF
:1023F000012070BD05462268136823F016031360A0
:102400002268536923F080035361236CE3B122688F
:10241000136823F0080313602268136823F0010394
:10242000136023681B6813F0010F11D0FFF730FE13
:10243000431B052BF5D920236365032084F8350061
:10244000002384F83430D4E7A36C002BDFD1E3E71A
:10245000E26D3F239340B360012384F835300020C0
:1024600084F83400C5E790F83530DBB2022B03D096
:102470008023436501207047052380F835300268CA
:10248000136823F00103136000207047F0B583B098
:10249000044600230193724B1D68724BA3FB053564
:1024A000AD0A876D3E68C26D08239340334210D059
:1024B00003681A6812F0040F0BD01A6822F00402A5
:1024C0001A60C26D08239340BB60436D43F0010363
:1024D0004365E26D01239340334209D0226852697B
:1024E00012F0800F04D0BB60636D43F0020363659C
:1024F000E26D04239340334209D02268126812F03F
:10250000020F04D0BB60636D43F004036365E26DAA
:1025100010239340334224D02268126812F0080F2F
:102520001FD0BB6023681A6812F4802F0DD01B687F
:1025300013F4002F04D1236C9BB12046984710E080
:10254000A36C73B1204698470BE01A6812F4807FA1
:1025500003D11A6822F008021A60236C0BB12046DE
:102560009847E26D20239340334255D02268126889
:1025700012F0100F50D0BB6094F83530DBB2052B51
:102580000ED023681A6812F4802F33D01B6813F41E
:10259000002F2AD1636C002B3ED0204698473BE0A9
:1025A0002268136823F0160313602268536923F02E
:1025B00080035361236CA3B12268136823F00803DE
:1025C0001360E26D3F239340BB60012384F83530F4
:1025D000002384F83430236D002B3FD020469847E9
:1025E0003CE0A36C002BE7D1EBE7E36BA3B1204603
:1025F000984711E01A6812F4807F09D11A6822F016
:1026000010021A60012384F83530002384F8343036
:10261000E36B0BB120469847636DFBB1636D13F01C
:10262000010F17D0052384F835302268136823F092
:1026300001031360019B01330193AB4204D823686B
:102640001B6813F0010FF5D1012384F83530002306
:1026500084F83430E36C0BB12046984703B0F0BDEA
:1026600000000020B5814E1B00230F2B00F2E480F8
:1026700070B582B060E085685E000324B44025EA4E
:102680000405CC68B4402C438460456825EA020503
:102690004C68C4F300129A402A4342605AE0DC08B6
:1026A000083450F8246003F0070295000F22AA4076
:1026B00026EA020E0A69AA4042EA0E0240F82420E5
:1026C0005CE0072200E0002202FA0EF22A43023404
:1026D0005A4D45F824205A4A94686FEA0C0224EABD
:1026E0000C054E6816F4801F01D04CEA0405544CCA
:1026F000A560E46802EA04054E6816F4001F01D0E4
:102700004CEA04054E4CE560646802EA04054E6834
:1027100016F4003F01D04CEA0405494C656024687A
:1027200022404D6815F4803F01D04CEA0402444C2D
:10273000226001330F2B7DD801229A400C6804EAF5
:10274000020C32EA0404F4D14C6804F00304013CA6
:10275000012C90D94A6802F00302032A09D0C46808
:102760005D000322AA4024EA02048A68AA402243A8
:10277000C2604A6802F00302022A90D004684FEA5D
:10278000430E032202FA0EF224EA02044A6802F01F
:10279000030202FA0EF2224302604A6812F4403F3A
:1027A000C7D000220192274A546C44F480445464F8
:1027B000526C02F480420192019A9C08A51C1F4AA7
:1027C00052F8255003F003024FEA820E0F2202FA5C
:1027D0000EF225EA02051C4A90423FF474AF02F55E
:1027E000806290421AD002F58062904218D002F5C1
:1027F0008062904216D002F58062904214D002F5B9
:102800008062904212D002F58062904210D002F5B0
:10281000806290423FF455AF082255E7012253E70A
:10282000022251E703224FE704224DE705224BE73E
:10283000062249E702B070BD704700BF0038014072
:10284000003C014000380240000002400369194288
:1028500001D001207047002070470AB181617047A4
:102860000904816170470000002800F0CC8070B539
:10287000044690F83D30002B77D0242384F83D3077
:102880002268136823F0010313602268136843F47D
:10289000004313602268136823F40043136000F0C0
:1028A000E3FB62685A4B9A4264D85A4B98428CBFF9
:1028B00000230123002B40F0A8805749A1FB0031E1
:1028C0008B0C25686A6822F03F0242EA91426A60F6
:1028D00021680A6A22F03F0266684D4DAE424FD829
:1028E000013313430B622168CA6922F44F4222F07C
:1028F000FF026668464B9E424CD8431E7600B3FBEF
:10290000F6F3013340F6FC70034278D0C3F30B03B7
:102910001343CB6121680B6823F0C003E269206A8E
:10292000024313430B6021688B6823F4034323F0B5
:10293000FF032269E068024313438B602168CB6880
:1029400023F0FF036269A06902431343CB6022684E
:10295000136843F00103136000202064202384F8EF
:102960003D30206384F83E0070BD80F83C30FEF7B7
:10297000A1FF82E7294B98428CBF0023012399E7EE
:102980004FF4967505FB03F3254DA5FB03539B09F7
:102990000133A6E7A368BBB9451E06EB460CB5FBA1
:1029A000FCF50135C5F30B05B5FA85F56D0945BB99
:1029B000C3B9013806EB4603B0FBF3F30133C3F3AD
:1029C0000B0343F40043A3E7451E06EB860C0CEB18
:1029D0008C0CB5FBFCF50135C5F30B05B5FA85F597
:1029E0006D09E4E7013806EB860303EB8303B0FBD4
:1029F000F3F30133C3F30B0343F4404388E70423A9
:102A000086E7012384E7012070470120ACE700BF7F
:102A1000A08601007F841E0083DE1B43FF083D006B
:102A2000D34D6210002800F0E08170B582B00446FA
:102A3000036813F0010F3BD09F4B9B6803F00C031E
:102A4000042B2CD09C4B9B6803F00C03082B21D04B
:102A50006368B3F5803F4FD0B3F5A02F52D0964BAB
:102A60001A6822F480321A601A6822F480221A60EE
:102A70006368002B50D0FFF70BFB05468E4B1B689D
:102A800013F4003F14D1FFF703FB401B6428F5D972
:102A90000320B1E1884B5B6813F4800FD8D0864BDC
:102AA0001B6813F4003F03D06368002B00F09F8184
:102AB000236813F0020F54D07F4B9B6813F00C0F68
:102AC0003ED07D4B9B6803F00C03082B33D0E368AA
:102AD000002B68D0794B01221A60FFF7D9FA05461E
:102AE000754B1B6813F0020F54D1FFF7D1FA401B4E
:102AF0000228F5D903207FE16F4A136843F480333D
:102B00001360B5E76C4B1A6842F480221A601A68A9
:102B100042F480321A60ABE7FFF7BAFA0546664B1B
:102B20001B6813F4003FC3D0FFF7B2FA401B6428C0
:102B3000F5D9032060E1604B5B6813F4800FC6D1C8
:102B40005D4B1B6813F0020F03D0E368012B40F0CC
:102B50005081594A136823F0F803216943EAC103FD
:102B60001360236813F0080F42D063696BB3534BB3
:102B70000122C3F8802EFFF78BFA05464E4B5B6FA0
:102B800013F0020F34D1FFF783FA401B0228F5D966
:102B9000032031E1484A136823F0F803216943EA2E
:102BA000C1031360DDE7454B00221A60FFF770FA9E
:102BB0000546414B1B6813F0020FD2D0FFF768FAAD
:102BC000401B0228F5D9032016E13C4B0022C3F834
:102BD000802EFFF75DFA0546374B5B6F13F0020F4F
:102BE00006D0FFF755FA401B0228F5D9032003E170
:102BF000236813F0040F77D02F4B1B6C13F0805F0A
:102C000033D1002301932C4B1A6C42F080521A648A
:102C10001B6C03F080530193019B0125284B1B681B
:102C200013F4807F23D0A368012B34D0052B38D038
:102C3000214B1A6F22F001021A671A6F22F0040268
:102C40001A67A368002B3DD0FFF722FA06461A4BFD
:102C50001B6F13F0020F46D1FFF71AFA801B41F2E7
:102C600088339842F3D90320C6E00025D6E7144AFA
:102C7000136843F480731360FFF70AFA0646104B9B
:102C80001B6813F4807FCED1FFF702FA801B022865
:102C9000F5D90320B0E0084A136F43F0010313672E
:102CA000CFE7054B1A6F42F004021A671A6F42F021
:102CB00001021A67C5E700BF003802400000474222
:102CC00000700040FFF7E4F90646524B1B6F13F00B
:102CD000020F08D0FFF7DCF9801B41F288339842DD
:102CE000F3D9032088E0EDB9A369002B00F08380BD
:102CF000484A926802F00C02082A51D0022B17D0E1
:102D0000454B00221A66FFF7C3F90446414B1B6886
:102D100013F0007F42D0FFF7BBF9001B0228F5D962
:102D2000032069E03B4A136C23F080531364DBE714
:102D3000394B00221A66FFF7ABF90546354B1B6885
:102D400013F0007F06D0FFF7A3F9401B0228F5D946
:102D5000032051E0E369226A1343626A43EA821363
:102D6000A26A5208013A43EA0243E26A43EA026372
:102D7000284A5360284B01221A66FFF789F9044656
:102D8000244B1B6813F0007F06D1FFF781F9001B6D
:102D90000228F5D903202FE000202DE000202BE0B1
:102DA000012B2BD01B4B5B6803F48001E26991423D
:102DB00026D103F03F02216A8A4223D1616A47F695
:102DC000C0721A40B2EB811F1ED103F44031A26AD7
:102DD0005208013AB1EB024F18D103F07063E26A76
:102DE000B3EB026F14D1002006E0012070470120F0
:102DF00002E0012000E0002002B070BD0120FBE7EE
:102E00000120F9E70120F7E70120F5E70120F3E7CA
:102E10000120F1E70038024000004742014B012247
:102E2000DA6470470000474208B5314B9B6803F0F5
:102E30000C03042B57D0082B57D12D4B5A6802F0A6
:102E40003F025B6813F4800F2AD0294B5968C1F305
:102E5000881C4FEA4C11B1EB0C006EEB0E0E4FEAE2
:102E60008E1343EA90638101091A63EB0E03DB00C2
:102E700043EA5173C90011EB0C0C43F100035902F2
:102E800000234FEA4C2041EADC51FDF7B9F9184B19
:102E90005B68C3F3014301335B00B0FBF3F025E053
:102EA000134B5968C1F3881C4FEA4C11B1EB0C006D
:102EB0006EEB0E0E4FEA8E1343EA90638101091AFE
:102EC00063EB0E03DB0043EA5173C90011EB0C0CFA
:102ED00043F10003990200234FEA8C2041EA9C5100
:102EE000FDF78EF9D3E7034800E0034808BD00BFB3
:102EF0000038024000127A000024F400002800F09C
:102F00009B8070B50D4604464F4B1B6803F00703CA
:102F10008B4208D2CBB24C4A1370136803F00703FC
:102F20008B4240F08B80236813F0020F17D013F010
:102F3000040F04D0454A936843F4E0539360236838
:102F400013F0080F04D0414A936843F46043936040
:102F50003E4A936823F0F003A1680B439360236813
:102F600013F0010F32D06368012B21D09A1E012A81
:102F700025D9364A126812F0020F61D033498A68A7
:102F800022F0030213438B60FFF782F806462F4BB3
:102F90009B6803F00C036268B3EB820F16D0FFF757
:102FA00077F8801B41F288339842F0D9032042E041
:102FB000264A126812F4003FE0D101203BE0234A88
:102FC000126812F0007FD9D1012034E01E4B1B683B
:102FD00003F00703AB4207D9EAB21B4B1A701B6818
:102FE00003F00703AB422DD1236813F0040F06D082
:102FF000164A936823F4E053E1680B439360236817
:1030000013F0080F07D0114A936823F46043216935
:1030100043EAC1039360FFF707FF0C4B9B68C3F3C0
:1030200003130B4AD35CD8400A4B18600A4B18684C
:10303000FEF7E2FF002070BD012070470120FAE793
:103040000120F8E70120F6E7003C0240003802408A
:10305000707603080000002008000020014B18686B
:10306000704700BF0000002008B5FFF7F7FF044BD2
:103070009B68C3F38223034AD35CD84008BD00BFDA
:10308000003802408076030808B5FFF7E7FF044BDD
:103090009B68C3F34233034AD35CD84008BD00BFEA
:1030A00000380240807603087047000008B5064BE0
:1030B000DB6813F0800F00D108BDFFF7F5FF024B6E
:1030C00080229A73F8E700BF0038024030B583B021
:1030D0000446036813F0050F06D1236813F0020FAE
:1030E0002ED1002003B030BD4A4B00229A66FEF775
:1030F000CFFF0546484B1B6813F0006F06D0FEF764
:10310000C7FF431B022BF5D90320EBE76268A368D6
:103110001B0743EA8213404AC2F884303D4B012228
:103120009A66FEF7B5FF05463B4B1B6813F0006F30
:10313000D3D1FEF7ADFF431B022BF5D90320D1E716
:1031400000230193344B1A6C42F080521A641B6CBA
:1031500003F080530193019B304A136843F480735A
:103160001360FEF795FF05462C4B1B6813F4807F18
:1031700006D1FEF78DFF431B022BF5D90320B1E7E3
:10318000254B1B6F13F4407314D0E26802F44072B5
:103190009A420FD0204B1A6F22F440721D49012031
:1031A000C1F8400E0020C1F8400E1A671B6F13F0E3
:1031B000010F13D1E36803F44072B2F5407F1ED0D3
:1031C000154A936823F4F813936013490B6FE26870
:1031D000C2F30B0213430B67002083E7FEF758FF8F
:1031E00005460D4B1B6F13F0020FE3D1FEF750FFA6
:1031F000401B41F288339842F3D9032072E7064915
:103200008A6822F4F81223F0704323F440731343C6
:103210008B60DAE70000474200380240007000404F
:1032200038B504460268D36823F0A003D360FEF7E4
:103230002FFF05462368DB6813F0200F07D1FEF748
:1032400027FF401BB0F57A7FF4D9032000E000206F
:1032500038BD70B50368DA6812F0400F02D000255F
:10326000284670BD0446DA6842F08002DA60FEF754
:103270000FFF064600252368DB6813F0400FEFD1EF
:10328000002DEDD1FEF704FF831BB3F57A7FF2D951
:10329000042363770125EEE70268D36823F08003F7
:1032A000D36003689B6813F0200F01D000207047A3
:1032B00010B50446FFF7B4FF10B104236377012073
:1032C00010BD002841D010B50446437FE3B102236E
:1032D00063772368CA225A62236853225A622046BF
:1032E000FFF7B7FFA0B158B92268136C23F480230D
:1032F00013642268136CA1690B4313640123637781
:103300002368FF225A6210BD0377FEF7CBFBDEE78E
:103310002268936823F4E00323F04003936021685C
:103320008A686368206903436069034313438B60C1
:103330002368E2681A6122681369A16843EA0143BD
:1033400013612046FFF7A8FFCDE701207047002357
:1033500003E00133DBB20A38C0B20928F9D81B01F7
:10336000DBB218437047037F012B59D070B5044678
:103370000E4601230377022343774ABB03689B6809
:1033800013F0400F01D10023CB703078FFF7DFFF3F
:1033900005047078FFF7DBFF45EA0025B078FFF7FA
:1033A000D6FF0543F07845EA80552368CA225A6261
:1033B000236853225A622046FFF74BFFD0B108B969
:1033C000012363772368FF225A620023237770BDAD
:1033D00003689B6813F0400F01D10023CB70337852
:1033E00075782D0245EA0345B0780543F07845EA43
:1033F0008055DAE7236805F07F3525F0FE451D602E
:103400002268936823F48023936021688B68F268B4
:103410003069024313438B602046FFF73DFFCEE740
:1034200002207047037F012B48D070B504460E463A
:1034300001230377022343773AB94B7813F0100F37
:1034400003D003F0EF030A334B7012BBF078FFF7A1
:103450007EFF05047078FFF77AFF45EA0025B07813
:10346000FFF775FF0543307845EA40352368CA22E7
:103470005A62236853225A622046FFF7EAFE98B147
:1034800008B9012363772368FF225A620023237758
:1034900070BDF37875782D0245EA0345B078054391
:1034A000307845EA4035E1E7236825F07F4525F08F
:1034B000C0055D602046FFF7EFFEE1E702207047A0
:1034C000030903EB830300F00F0000EB4300C0B2DD
:1034D000704770B503689B6A4B6003681B69C3F350
:1034E0000E038B6003681B68C3F305400870C3F3C9
:1034F00006264E7003F07F058D70C3F38053CB70AA
:103500005AB90C46FFF7DCFF20703046FFF7D8FFB2
:1035100060702846FFF7D4FFA070002070BD70B522
:1035200003685B68C3F30740C870C3F304264E709A
:1035300003F03F058D70C3F342330B705AB90C464C
:10354000FFF7BEFFE0703046FFF7BAFF6070284615
:10355000FFF7B6FFA070002070BD00002DE9F04716
:1035600082B00546884617461E46FEF791FD0A9B27
:103570001B1A03EB0609FEF78BFD82462B4B1B68DB
:10358000C3F3CB3309FB03F301932B689C6838EA40
:1035900004030CBF4FF0010C4FF0000CBC4540D0B1
:1035A000B6F1FF3FF1D0FEF773FDA0EB0A004845EE
:1035B0000AD2B9F1000F07D0019A02B14A46019B25
:1035C000013B01939146E0E72A68536823F0E0034A
:1035D00053606B68B3F5827F0BD0AB6AB3F5005FC5
:1035E00014D0012385F85130002385F85030032092
:1035F00018E0AB68B3F5004F02D0B3F5806FECD1A3
:103600002A68136823F040031360E6E72A6813680A
:1036100023F4005313602A68136843F400531360C3
:10362000DFE7002002B0BDE8F08700BF0000002007
:1036300010B584B00446164B1868164BA3FB003037
:10364000400D4FF47A7303FB00F003906368B3F509
:10365000827F0BD0039BBBB1039B013B0393236889
:103660009B6813F0800FF5D100200EE000920B460E
:10367000002280212046FFF771FF30B1636D43F0D7
:1036800020036365032000E0002004B010BD00BFEC
:1036900000000020819F5E1600285AD010B5044615
:1036A000436A33B94368B3F5827F05D00023C36111
:1036B00002E00023036143610023A36294F85130C8
:1036C000002B40D0022384F851302268136823F085
:1036D00040031360636803F48273A26802F4044237
:1036E0001343E26802F400621343226902F002020B
:1036F0001343626902F001021343A26902F40072EB
:103700001343E26902F038021343226A02F0800296
:103710001343A26A02F40052216813430B60638BC7
:1037200003F00403626A02F01002216813434B6045
:103730002268D36923F40063D3610020606501230C
:1037400084F8513010BD84F850302046FEF7F0F96F
:10375000B8E7012070472DE9F04383B01D4690F88B
:103760005030012B00F0D180044688469146012359
:1037700080F85030FEF78CFC074694F85160F6B2A2
:10378000012E40F0AF80B8F1000F00F0AC80B9F12D
:10379000000F00F0A880032384F8513000236365F4
:1037A000C4F83080A4F83490A4F83690A363A387BB
:1037B000E38763642364A368B3F5004F1ED02368D6
:1037C0001A6812F0400F03D11A6842F040021A60E2
:1037D000E368B3F5006F1CD0636813B1B9F1010F52
:1037E00052D1226B236812781A73236B013323633F
:1037F000E38E9BB2013B9BB2E38645E022681368EF
:1038000023F0400313602268136843F4804313607D
:10381000D5E7636813B1B9F1010F16D1226B2368A4
:103820001288DA60236B02332363E38E9BB2013B81
:103830009BB2E38609E0FEF72BFCC01BA84202D333
:10384000B5F1FF3F59D1002D59D0E38E9BB2002B2B
:1038500033D023689A6812F0020FECD0226B1288E2
:10386000DA60236B02332363E38E9BB2013B9BB28E
:10387000E386EAE7FEF70CFCC01BA84202D3B5F1D1
:10388000FF3F3ED1002D3ED0E38E9BB2ABB123680B
:103890009A6812F0020FEDD0226B12781A73236B24
:1038A00001332363B4F836C01FFA8CFC0CF1FF3CE3
:1038B0001FFA8CFCA4F836C0E6E73A4629462046B3
:1038C000FFF7B6FE08B120236365A36833B90193FF
:1038D0002368DA6801929B680193019B636D13B9B9
:1038E000002600E00226012384F85130002384F8EA
:1038F0005030304603B0BDE8F0830326F3E70326DB
:10390000F1E70326EFE70326EDE70226F1E70000E3
:1039100038B590F85030012B61D00446012380F86F
:10392000503090F85150EDB29D4252D1002951D003
:10393000002A4FD0032380F85130002343650163F0
:103940008286C2868363436403648387C3878368F4
:10395000B3F5004F2AD0A36C224A1A64A36C224A02
:10396000DA63A36C214ADA64A36C00221A65226828
:10397000E38E9BB20C32216BA06CFEF7F5FC014686
:10398000F8B923681A6812F0400F03D11A6842F0A0
:1039900040021A602268536843F020035360226893
:1039A000536843F0020353600D4613E00268136846
:1039B00023F0400313600268136843F480431360EC
:1039C000C9E7636D43F010036365012384F8513048
:1039D00000E00225002384F85030284638BD022537
:1039E000FBE700BFF3390008213A0008FF3900085F
:1039F000704708B5806BFFF7FBFF08BD704708B53F
:103A0000806B0268536823F003035360436D43F0F7
:103A100010034365012380F85130FFF7EFFF08BD25
:103A200030B583B00546846BFEF732FB2B681B680C
:103A300013F4807F23D1024621684B6823F02003D2
:103A40004B6021684B6823F002034B6064212046E1
:103A5000FFF7EEFD18B1636D43F020036365A368C3
:103A600033B901932368DA6801929B680193019B43
:103A70000023E386012384F85130636D23B9204687
:103A800005F06AFA03B030BD2046FFF7B7FFF9E74B
:103A900030B585B00446026851689368C3F380105E
:103AA00013F0400F05D113F0010F02D011F0400FB9
:103AB00069D113F0020F02D011F0800F67D1C3F368
:103AC000401513F0200F03D110B913F4807F61D09B
:103AD00011F0200F5ED078B194F85100C0B20328E5
:103AE0005AD0606D40F00400606500200090D068FE
:103AF000009090680090009865B1606D40F0010002
:103B000060650020029090680290106820F04000EC
:103B10001060029A13F4807F09D0636D43F00803AC
:103B200063650023039323689B680393039B636D82
:103B3000002B2FD02268536823F0E0035360012349
:103B400084F8513011F0030F2ED02268536823F00F
:103B500003035360E36C4BB1154A1A65E06CFEF742
:103B600082FC18B1636D43F040036365A36C8BB1B5
:103B70000F4A1A65A06CFEF776FC58B1636D43F0EE
:103B80004003636506E0236C2046984702E0636CBF
:103B90002046984705B030BD00230193D3680193B8
:103BA00093680193019BF5E72046FFF727FFF1E7B4
:103BB000B53B000808B5806B0023C387C386FFF7B9
:103BC0001DFF08BD10B4036A046A24F001040462F6
:103BD000846924F0F00C4CEA021223F00A030B4330
:103BE000826103625DF8044B704710B4046A24F0EC
:103BF000100404628469036A24F4704C4CEA0232B3
:103C000023F0A00343EA0113826103625DF8044BD1
:103C10007047836823F070030B4343F0070383600E
:103C20007047000090F83D30DBB2012B37D1022302
:103C300080F83D300268D36843F00103D360036825
:103C4000194A934220D0B3F1804F1DD0A2F57C4297
:103C5000934219D002F58062934215D002F580623A
:103C6000934211D002F5784293420DD002F5705282
:103C7000934209D0A2F59432934205D01A6842F0DB
:103C800001021A60002070479A6802F00702062AB3
:103C900007D01A6842F001021A6000207047012024
:103CA00070470020704700BF000001407047704718
:103CB0007047704710B5044603681A6912F0020F86
:103CC00011D0DA6812F0020F0DD06FF002021A6103
:103CD0000123037703689B6913F0030F70D0FFF78C
:103CE000E6FF0023237723681A6912F0040F12D02D
:103CF000DA6812F0040F0ED06FF004021A6102238A
:103D0000237723689B6913F4407F5FD02046FFF739
:103D1000CEFF0023237723681A6912F0080F12D010
:103D2000DA6812F0080F0ED06FF008021A6104234F
:103D300023772368DB6913F0030F4ED02046FFF78B
:103D4000B6FF0023237723681A6912F0100F12D0F0
:103D5000DA6812F0100F0ED06FF010021A6108230B
:103D600023772368DB6913F4407F3DD02046FFF7BB
:103D70009EFF0023237723681A6912F0010F03D0F6
:103D8000DA6812F0010F36D123681A6912F0800F39
:103D900003D0DA6812F0800F34D123681A6912F068
:103DA000400F03D0DA6812F0400F32D123681A694D
:103DB00012F0200F03D0DA6812F0200F30D110BDBE
:103DC000FFF774FF2046FFF773FF8AE72046FFF7EF
:103DD0006DFF2046FFF76CFF9BE72046FFF766FF6D
:103DE0002046FFF765FFACE72046FFF75FFF204660
:103DF000FFF75EFFBDE76FF001021A612046FDF795
:103E0000A7FCC1E76FF080021A61204600F073F949
:103E1000C3E76FF040021A612046FFF74AFFC5E78B
:103E20006FF020021A61204600F064F9C7E7000035
:103E30000368304A904212D0B0F1804F0FD0A2F503
:103E40007C4290420BD002F58062904207D002F58E
:103E50008062904203D002F57842904203D123F071
:103E600070034A681343234A90422AD0B0F1804F2E
:103E700027D0A2F57C42904223D002F58062904286
:103E80001FD002F5806290421BD002F5784290422A
:103E900017D002F57052904213D002F58062904222
:103EA0000FD002F5806290420BD0A2F5983290427A
:103EB00007D002F58062904203D002F58062904202
:103EC00003D123F44073CA68134323F080034A6983
:103ED000134303608B68C3620B688362054B98428F
:103EE00003D003F58063984201D10B69036301237A
:103EF000436170470000014040B310B5044690F89C
:103F00003D30F3B1022384F83D30214651F8040BD3
:103F1000FFF78EFF012384F8463084F83E3084F8A2
:103F20003F3084F8403084F8413084F8423084F8DF
:103F3000433084F8443084F8453084F83D30002024
:103F400010BD80F83C30FDF789FFDBE701207047AA
:103F500010B4846824F47F4C42EA03220A4342EA04
:103F60000C0282605DF8044B704790F83C30012BE6
:103F700078D010B50446012380F83C30022380F845
:103F80003D300268936823F47F4323F07703936006
:103F90000B68602B4CD029D8402B54D00CD9502B17
:103FA00022D1CA6849680068FFF70CFE50212068DA
:103FB000FFF72FFE002005E0202B0DD009D9302B74
:103FC0000AD00120012384F83D30002384F83C30DE
:103FD00010BD0BB1102B05D119462068FFF719FE53
:103FE0000020EFE70120EDE70120EBE7B3F5805F6C
:103FF00034D0B3F5005F0CD1CB684A68896800689B
:10400000FFF7A6FF2268936843F480439360002083
:10401000D8E7702B24D1CB684A6889680068FFF71D
:1040200097FF2268936843F0770393600020C9E705
:10403000CA6849680068FFF7D8FD60212068FFF76B
:10404000E8FD0020BEE7CA6849680068FFF7BAFDCE
:1040500040212068FFF7DDFD0020B3E70020B1E735
:104060000120AFE70220704790F83C30012B3DD093
:1040700010B4012380F83C30022380F83D300368FF
:104080005A689C6822F0700C0A6842EA0C025A6076
:104090000368174A93421AD0B3F1804F17D0A2F5A4
:1040A0007C42934213D002F5806293420FD002F516
:1040B000806293420BD002F57842934207D002F51A
:1040C0007052934203D0A2F59432934204D124F06B
:1040D00080044A6814439C60012380F83D3000232B
:1040E00080F83C3018465DF8044B7047022070475A
:1040F0000000014070477047026802F10C0353E86A
:10410000003F23F490730C3242E800310029F3D1D0
:10411000026802F1140353E8003F23F00103143254
:1041200042E800310029F3D1036B012B05D0202395
:1041300080F83E30002303637047026802F10C03ED
:1041400053E8003F23F010030C3242E8003100290D
:10415000F3D1ECE790F83D30DBB2212B01D0022007
:1041600070478368B3F5805F17D0036A5A1C0262F8
:104170001A7803685A60C38C9BB2013B9BB2C3841C
:104180004BB90268D36823F08003D3600268D36818
:1041900043F04003D360002070470369002BE4D153
:1041A000036A1B880268C3F308035360036A02337F
:1041B0000362E0E738B504460268136923F440530C
:1041C000C1680B4313618368026913434269134357
:1041D000C2691A430168CB6823F4164323F00C0329
:1041E0001343CB600268536923F4407381690B4326
:1041F00053610368314A934206D002F580629342CC
:1042000002D0FEF731FF01E0FEF73EFFE369B3F5B0
:10421000004F29D00021031849411B1841F100012A
:10422000C90041EA5371DB00181863684FEA830242
:104230004FEA937341F10001FBF7E2FF204DA5FB2C
:1042400000325109642303FB11031B013233A5FB28
:1042500003235B0903F0F00202EB011203F00F03EA
:10426000216813448B6038BD0023021843EB03011F
:10427000121841F10001C90041EA5271D200101830
:1042800041F10001626892185B41FBF7B9FF0C4DE8
:10429000A5FB00325109642303FB1103DB00323319
:1042A000A5FB03235B095A0002F4F87202EB01122A
:1042B00003F00703216813448B60D4E7001001402A
:1042C0001F85EB512DE9F84305460F4616469946E2
:1042D000DDF820802C68246837EA04030CBF4FF017
:1042E000010C4FF0000CB4452DD1B8F1FF3FF1D0D7
:1042F000B8F1000F05D0FDF7CBFEA0EB090040455B
:10430000E8D92A6802F10C0353E8003F23F4D07384
:104310000C3242E800310029F3D12A6802F114037B
:1043200053E8003F23F00103143242E80031002932
:10433000F3D1202385F83D3085F83E30002385F801
:104340003C30032000E00020BDE8F88358B310B5EE
:10435000044690F83D300BB3242384F83D302268A6
:10436000D36823F40053D3602046FFF723FF22686D
:10437000136923F4904313612268536923F02A03DD
:1043800053612268D36843F40053D3600020206453
:10439000202384F83D3084F83E3010BD80F83C3056
:1043A000FDF7B0FDD8E7012070472DE9F04182B05C
:1043B0001E4690F83D30DBB2202B54D104460D460A
:1043C0009046002953D0002A53D090F83C30012B5E
:1043D00051D0012380F83C3000230364212380F86E
:1043E0003D30FDF755FE0746A4F82480A4F826804A
:1043F000A368B3F5805F05D04FF00008002384F870
:104400003C3012E0236913B14FF00008F6E7A846EC
:104410000025F3E738F8023B2268C3F30803536032
:10442000E28C92B2013A92B2E284E38C9BB273B115
:1044300000963B46002280212046FFF743FFE0B96B
:10444000002DE7D015F8012B23685A60E8E70096A5
:104450003B46002240212046FFF734FF78B9202355
:1044600084F83D3000E0022002B0BDE8F081012078
:10447000FAE70120F8E70220F6E70320F4E703203B
:10448000F2E7704708B50168CA6822F04002CA60C6
:10449000202280F83D20FFF7F4FF002008BD704780
:1044A000704708B5806B0023C385C384FFF7F8FF0E
:1044B00008BD704790F83E30DBB2222B67D183688D
:1044C000B3F5805F4DD0826AB3F5805F04D0002BD6
:1044D00054D10369002B51D103685B681370836A60
:1044E00001338362C38D9BB2013B9BB2C385002B1A
:1044F0004FD100B583B00268D36823F02003D360A6
:104500000268D36823F48073D3600268536923F090
:1045100001035361202380F83E30036B012B33D11C
:1045200000230363026802F10C0353E8003F23F009
:1045300010030C3242E800310029F3D103681A68F5
:1045400012F0100F06D0002201921A6801925B68E7
:104550000193019B818DFFF7ACFF002003B05DF854
:1045600004FB0269002AAED1826A03685B68C3F368
:1045700008031380836A02338362B3E703685B68CE
:1045800003F07F031370AAE7FFF789FFE5E7022036
:10459000704700207047000030B583B004460268C1
:1045A0001368D068516913F00F0505D113F0200F7F
:1045B00002D010F0200F19D12DB111F0010119D145
:1045C00010F4907F16D1216B01297DD013F0800F5C
:1045D00003D010F0800F40F0158113F0400F03D08E
:1045E00010F0400F40F0128103B030BD2046FFF7BD
:1045F00061FFF9E713F0010F06D010F4807F03D0BC
:10460000226C42F00102226413F0040F04D019B1AD
:10461000226C42F00202226413F0020F04D019B19E
:10462000226C42F00402226413F0080F07D010F04D
:10463000200F00D119B1226C42F008022264226CD2
:10464000002AD1D013F0200F02D010F0200F29D172
:1046500023685B6903F04003226C12F0080F00D15D
:1046600063B32046FFF748FD23685B6913F0400FF2
:1046700020D0226802F1140353E8003F23F04003E6
:10468000143242E800310029F3D1A36B73B1614ABF
:104690001A65A06BFDF7E7FE0028A5D0A06B036D9F
:1046A0009847A1E72046FFF705FFD1E72046FFF72F
:1046B000F7FE99E72046FFF7F3FE95E72046FFF760
:1046C000EFFE002323648FE713F0100F3FF47EAF5B
:1046D00010F0100F3FF47AAF002301931368019399
:1046E00053680193019B536913F0400F50D0A26BA4
:1046F00013685B689BB2002B3FF476AFA18D9942A3
:104700007FF672AFE385D369B3F5807F37D0226837
:1047100002F10C0353E8003F23F480730C3242E8AB
:1047200000310029F3D1226802F1140353E8003F5D
:1047300023F00103143242E800310029F3D122684A
:1047400002F1140353E8003F23F04003143242E81F
:1047500000310029F3D1202384F83E300023236365
:10476000226802F10C0353E8003F23F010030C32DF
:1047700042E800310029F3D1A06BFDF72AFEA18D9C
:10478000E38D9BB2C91A89B22046FFF792FE2BE750
:10479000A18DE38D9BB2C91A89B2E38D9BB2002B28
:1047A0003FF422AF00293FF41FAF226802F10C034F
:1047B00053E8003F23F490730C3242E800300028A5
:1047C000F3D1226802F1140353E8003F23F0010300
:1047D000143242E800300028F3D1202384F83E3020
:1047E00000232363226802F10C0353E8003F23F007
:1047F00010030C3242E800300028F3D12046FFF7C6
:1048000058FEF1E62046FFF7A5FCEDE62046FFF74F
:1048100039FEE9E6A344000808B501F0C9F800280C
:104820000DDB01F0F3FB002812DB00F0F7FB0028A2
:1048300017DB01F0FBFF00281CDB002008BD1E2356
:10484000114A124912482CF035FE4FF0FF30F5E7BF
:1048500025230D4A0D490F482CF02CFE6FF0010066
:10486000ECE72C23084A09490B482CF023FE6FF093
:104870000200E3E73323044A044908482CF01AFEF7
:104880006FF00300DAE700BFDC78030890760308D6
:10489000CC760308F87603082877030854770308D2
:1048A00008B501F0DDF800281ADB01F007FC00284C
:1048B0001FDB02F013F8002824DB00F007FC0028BF
:1048C00029DB0121184800F00AFA002810DA6023D9
:1048D000164A174917482CF0EDFD6FF0040007E069
:1048E0004323124A124914482CF0E4FD4FF0FF30E4
:1048F00008BD4A230D4A0E4910482CF0DBFD6FF02D
:104900000100F5E75123094A09490D482CF0D2FD71
:104910006FF00200ECE75823044A054909482CF0DF
:10492000C9FD6FF00300E3E7380C0020C8780308E6
:10493000907603084478030888770308B47703085F
:10494000E47703081878030808B5FFF765FF002827
:1049500005DBFFF7A5FF00280ADB002008BD6F2359
:10496000084A094909482CF0A5FD4FF0FF30F5E74A
:104970007623044A044906482CF09CFD6FF00100A0
:10498000ECE700BFF078030890760308707803081E
:104990009C78030808B522F081FE024800F0FCF97B
:1049A00008BD00BF380C002038B5054630B10C46B4
:1049B000102021F0A5FB08B10560446038BD00005F
:1049C00070B50C46164605F0B5FB0546002107F00C
:1049D000E3FF32462146284606F00EFC134C2046E3
:1049E00022F054FA0021204622F044FD0021204606
:1049F00022F0C4FD4FF00001204622F017FD0021F7
:104A0000204622F0FBFC0021204622F0FDFC002184
:104A1000204622F0E7FC0021204622F0E9FC00229B
:104A20002146284609F04AFE284670BD640E002043
:104A300008B100687047704708B140687047704718
:104A400008B100687047704710B5102021F058FB7E
:104A5000044610B1102121F0F9FC204610BDF8B534
:104A60000746D0B10C461546002918DD002A18DD8E
:104A7000082021F045FB064668B1082121F0E6FC3C
:104A80002A4621463846FFF79BFF306058B1FFF7B2
:104A9000DBFF706048B13046F8BD0646FBE70026F4
:104AA000F9E70026F7E70646F5E70646F3E759B1CA
:104AB00010B5044608461146FFF776FF38B1E268A4
:104AC000C260E060002010BD4FF0FF3070476FF013
:104AD0000100F8E738B5044648B10D46C46834B162
:104AE00029466068FBF7B0FD08B1E468F7E72046A7
:104AF00038BD58B110B5044620F0D6F804F042FA9B
:104B000007F0F8FC204606F03DFC10BD0020704781
:104B100058B110B5044620F0C7F804F033FA07F096
:104B2000E9FC204606F036FC10BD0020704758B165
:104B300010B5044620F0B8F804F024FA07F0DAFCC7
:104B4000204606F0FCFB10BD00207047F0B593B086
:104B50001B9E90B115461C46074681B14D609EB123
:104B6000CE611A9BCB600C624C62189B8B62199BC6
:104B7000CB620F60084620F081FA13B0F0BD01A8A7
:104B800020F030FA01A9E9E7004EE9E75B5102089D
:104B900030B370B5044631B3807B884226D901EB2F
:104BA0004100C500266806EBC00CCCF8082022683E
:104BB00002EBC002D360236803EBC003049A1A61BE
:104BC000236803EBC003059A5A610A482CF072FC73
:104BD00023682B44196908482CF06CFC002070BD38
:104BE0004FF0FF3070476FF00100F8E76FF0010001
:104BF000F5E700BF782F0908982F09080346B0B1E0
:104C0000A9B1827B8A4212D9026801EB410102EB11
:104C1000C10000228260186800EBC100C260186801
:104C200000EBC10002611B6803EBC1014A617047E0
:104C3000024658B1037C23B108E051680020C854F3
:104C40000133517B9942F8DCFF23D373704720B3C3
:104C5000F8B50E461746054681734273FF23C373AA
:104C600001EB4100C00002F087FD2860C0B10024C4
:104C700004E0E1B22846FFF7C1FF0134A642F8DCA8
:104C8000384602F079FD686068B12846FFF7D0FF2A
:104C9000002028730123EB72F8BD4FF0FF307047FE
:104CA0006FF00100F8E76FF00200F5E758B169B165
:104CB000827B8A420DD9027C72B9C1728172012253
:104CC0000274002070474FF0FF3070476FF0010012
:104CD00070476FF0010070476FF002007047C8B175
:104CE0000246D1B108B5837B8B4219D9037CD3B975
:104CF00090F90F30407B834218DA506810F803C0F7
:104D00008C4516D001335BB2D373C1541046FFF704
:104D1000CDFF08BD4FF0FF3070476FF001007047C6
:104D20006FF00100F5E76FF00200F2E76FF00300AB
:104D3000EFE76FF00400ECE7A8B108B50346027C8A
:104D4000A2B990F90F20002A13DB41680020885493
:104D5000596893F90F20013A52B2DA73895C184608
:104D6000FFF7A4FF08BD4FF0FF3070476FF0010060
:104D7000F8E76FF00100F5E768B108B58C46114619
:104D80000268437A03EB430302EBC3035B690BB195
:104D90006046984708BD7047002846D010B50446C5
:104DA000C27A017B8A4211D100230374437A002B1B
:104DB0003AD0827B934237D2026803EB430302EB83
:104DC000C303DB68002B2FD098472DE00123037429
:104DD00016482CF06FFB2268237B03EB430302EBA6
:104DE000C303196912482CF065FB237B53B1A27BE6
:104DF000934207D2226803EB430302EBC3031B6910
:104E000003B19847237B2372E37A637253B1A27B89
:104E1000934207D2226803EB430302EBC3039B6870
:104E200003B19847E37A237310BD7047A82F090890
:104E3000CC2F090808B50248FFF77EFF08BD00BF68
:104E4000380C002008B5024B18680AF08DF808BD30
:104E5000700E002070B51B4E306827F05DFE1A4DB5
:104E600028601A4928F072FB6FF01D03002205210B
:104E7000286806F027FA164C204622F007F84FF073
:104E8000FF31204622F062FB1249204622F064FBEB
:104E900000222146286809F011FC306827F03CFE0A
:104EA0000D4D28600D4928F051FB00231A460521BD
:104EB000286806F007FA00222146286809F0FEFB60
:104EC00070BD00BF700E0020780E0020F82F09087A
:104ED000900E00200C0000207C0E002008300908F5
:104EE000F0B583B00546284E306827F015FE274CF4
:104EF0002060294628F02AFB00231A460221206858
:104F000006F0E0F9224D284621F0C0FF4FF0FF31B6
:104F1000284622F01BFB1F49284622F01DFB0022D9
:104F20002946206809F0CAFB3068FFF7E2FD80B22D
:104F30000138194FB880306828F088FF174D286075
:104F40000222394628F08EFF0226009600230E2208
:104F50002168286807F0EEFA114C204621F096FFF0
:104F60004FF60001204622F0D9FA3146204622F0C1
:104F7000C9FA0121204622F0CBFA002221462868F6
:104F800009F09CFB03B0F0BD700E0020800E0020E5
:104F9000A80E002040000020840E00208C0E00206F
:104FA000B40E002010B582B00C4B186827F05CFBE3
:104FB0000B4C20600B4927F063FB14230093002364
:104FC0000E2209490968206807F0B4FA00231A463E
:104FD0000921206806F076F902B010BD700E00209D
:104FE000740E002010F008088C0E002010B5094B3C
:104FF0001C68204609F09DFE09F0DBFE411E20469C
:105000000AF03DF80448FFF76BFFFFF7CBFFFFF70F
:1050100021FF10BD700E00202030090870B51FF070
:1050200043FE03F0AFFF05F085F8264B186000281B
:1050300044D0002107F0B0FC224D2E681FF034FE52
:1050400003F0A0FFFFF755FD04461FF02DFE03F00F
:1050500099FFFFF75DFD02462146304606F0CCF889
:1050600000231A460921286806F02CF9164C204620
:1050700021F00CFF0021204622F080FA002120467A
:1050800022F0FEF94FF00001204622F0CFF9002176
:10509000204622F0B3F90021204622F0B5F9002184
:1050A000204622F09FF90021204622F0A1F900229B
:1050B0002146286809F002FB002070BD4FF0FF3048
:1050C000FBE700BF700E00209C0E002000B583B0EF
:1050D0000A4B01930A4B009300230A4A07210A480E
:1050E000FFF756FD002803DB002003B05DF804FB4A
:1050F00006482CF041FA4FF0FF30F6E7354E000835
:10510000454E0008ED4F0008380C002028300908F3
:1051100008B502210148FFF7E2FD08BD380C002068
:1051200008B5074B186808B122F078FA054B1868E3
:1051300008B122F073FA044B186809F015FF08BD96
:105140009411002098110020E010002010B5084BA9
:10515000186827F089FA074C2060074927F090FA71
:1051600000231A460921206806F0ACF810BD00BFE4
:10517000E0100020E41000209C32070838B5134BE3
:10518000186827F0C9FC124C2060124928F078F901
:105190000121206828F068FA1E23002202212068DD
:1051A00006F090F80C4D284621F070FE4FF0FF31CC
:1051B000284622F0CBF90949284622F0CDF90022F1
:1051C0002946206809F07AFA38BD00BFE0100020B7
:1051D000F01000206030090854110020BCCD0408F4
:1051E00070B51E4E306827F097FC1D4D28601D4994
:1051F00028F046F900231A460121286806F062F8D3
:10520000194C204621F042FE4FF0FF31204622F09B
:105210009DF91649204622F09FF900222146286870
:1052200009F04CFA306827F077FC114C20601149E6
:1052300028F026F90121206828F016FA00231A46E2
:105240000321206806F03EF800224FF4FA610A4874
:1052500022F0C4F9094B186070BD00BFE0100020B7
:10526000EC10002074300908601100200C000020B0
:10527000E8100020803009088152000894110020B5
:1052800008B501231A4603490348006828F035F998
:1052900008BD00BF90300908EC10002030B58BB07D
:1052A000114D2846FCF7AAF90DF10C0C0F4C0FCC50
:1052B000ACE80F0094E807008CE807002B78013B6E
:1052C000062B00D90023084A0AA901EB830353F8EF
:1052D0001C3C00939378527805490648006828F0F2
:1052E0000CF90BB030BD00BF1C110020687503081D
:1052F0009C300908F01000202DE9F04784B0994C4B
:105300002046FCF769F96278974BA3FB0201C908B4
:1053100001EB8101A2EB4102D1B2944A5278A3FB86
:105320000203DB0803EB8303A2EB4303DBB29942E6
:105330003CD18C4B5A788C49A1FB02328B4B5B7869
:10534000A1FB0313DB08B3EBD20F40F0A280854B27
:105350001A78854BA3FB0201C90801EB8101A2EB7E
:105360004102D1B2814A1278A3FB0203DB0803EBAE
:105370008303A2EB4303DBB2994240F00981794BEE
:105380001A787949A1FB0232784B1B78A1FB0313F1
:10539000DB08B3EBD20F40F06E81744C714D0FCD32
:1053A0000FC42B68236004B0BDE8F087704BD86849
:1053B000FFF7BDFB04466F4BD868FFF7B8FB84428C
:1053C00062DD6C4BDE686A4BDD68684B5B78664C6F
:1053D000A4FB0312D20802EB8202A3EB4202664F47
:1053E000D2B23946304628F088F85E4B5B78A4FB91
:1053F0000312D20802EB8202A3EB4202D2B2394678
:10540000284628F07AF86FF00903009300230B2256
:105410003146284607F08EF83046FFF788FB0446F1
:105420002846FFF784FB241A002CB8BF644224B23C
:105430003046FFF77CFB82463046FFF778FBDFF80B
:105440004C810027039702974FF0C809CDF80490CC
:10545000204400905346424648493046FFF776FBC9
:105460002846FFF764FB06462846FFF760FB0397D4
:105470000297CDF8049004440094334642464049D4
:105480002846FFF763FB54E7394BDE68394BDD688C
:105490009BE7374B9868FFF74AFB0446354B986803
:1054A000FFF745FB844258DD324B9E68304B9D68C8
:1054B0002E4B5A782C4FA7FB02322F4CD208214694
:1054C000304628F01AF8274B5A78A7FB0232D20848
:1054D0002146284628F011F86FF0090300930023B5
:1054E0000B223146284607F025F83046FFF71FFB10
:1054F00004462846FFF71BFB241A002CB8BF644261
:1055000024B23046FFF713FB82463046FFF70FFB0D
:10551000DFF878800027039702974FF0C809CDF88D
:105520000490204400905346424616493046FFF707
:105530000DFB2846FFF7FBFA06462846FFF7F7FA69
:1055400003970297CDF804900444009433464246F2
:105550000D492846FFF7FAFAF9E6054B9E68054B18
:105560009D68A5E720110020CDCCCCCC34110020C3
:1055700004110020F4100020B43009089C10002011
:105580005810002014100020D00F00205BB100083C
:105590006D4B5868FFF7CBFA04466C4B5868FFF721
:1055A000C6FA844262DD694B5E68674B5D68684B92
:1055B0001B78684CA4FB0312D20802EB8202A3EB17
:1055C0004202654FD2B23946304627F096FF634B10
:1055D0001B78A4FB0312D20802EB8202A3EB420267
:1055E000D2B23946284627F088FF6FF009030093AE
:1055F00000230B223146284606F09CFF3046FFF779
:1056000096FA04462846FFF792FA241A002CB8BFEF
:10561000644224B23046FFF78AFA82463046FFF7EA
:1056200086FADFF84C810027039702974FF0C809EC
:10563000CDF80490204400905346424648493046F5
:10564000FFF784FA2846FFF772FA06462846FFF766
:105650006EFA03970297CDF8049004440094334601
:10566000424640492846FFF771FA88E6364B5E68A5
:10567000364B5D689BE7344B1868FFF758FA0446D1
:10568000324B1868FFF753FA844258DD2F4B1E68DF
:105690002D4B1D682E4B1A782E4FA7FB02322E4C35
:1056A000D2082146304627F028FF2C4B1A78A7FB5A
:1056B0000232D2082146284627F01FFF6FF0090367
:1056C000009300230B223146284606F033FF304674
:1056D000FFF72DFA04462846FFF729FA241A002C72
:1056E000B8BF644224B23046FFF721FA8246304602
:1056F000FFF71DFADFF878800027039702974FF035
:10570000C809CDF8049020440090534642461649FB
:105710003046FFF71BFA2846FFF709FA06462846E7
:10572000FFF705FA03970297CDF80490044400941C
:10573000334642460D492846FFF708FA2DE6024B4C
:105740001E68024B1D68A5E704110020F41000201C
:1057500034110020CDCCCCCCB4300908201100206D
:105760008C0F0020480F0020040F0020C00E0020E6
:105770005BB1000830B583B04C4B186804F0DAFC1C
:105780004B4D2860002107F007F9002211462868D8
:1057900009F0A5FA50228221286805F02DFD00238A
:1057A0001A460921286805F08DFD424C204621F05B
:1057B0006DFB0021204621F0E1FE4FF6000120465E
:1057C00021F04CFE0021204621F05AFE0021204607
:1057D00021F014FE0021204621F016FE0021204673
:1057E00021F000FE0021204621F002FE0022214689
:1057F000286808F063FF304C204621F047FB4FF04B
:10580000FF31204621F0A2FE2C49204621F0A4FEC3
:10581000002518E0264B186827F07EF90446284931
:1058200027F02EFE00222449204608F047FF0523DA
:10583000244A32F915200921204605F043FD224B68
:1058400043F825400135032DE4D900251AE0184B13
:10585000186827F061F90446194927F011FE002263
:105860001549204608F02AFF0A23009300230E2240
:10587000154951F82510204606F05CFE134B43F8FD
:1058800025400135032DE2D9114B00221A605A60E0
:105890009A60DA601A614FF4FA710E4821F09EFEA8
:1058A0000D4B1860FFF728FD03B030BDE01000205D
:1058B000901100208411002078110020D4E2030808
:1058C000B8300908F0300908F41000200411002055
:1058D00034110020DD5800089811002010B5FFF7A2
:1058E0000BFD054C20681DF044FB60681DF041FB7A
:1058F000FFF7D4FC10BD00BF1411002070B51A4C86
:10590000204621F0C3FA0321204621F037FE00256E
:105910000FE06FF0090300220921204605F0D2FCB8
:1059200000221149204608F0C9FE104B43F82540DB
:105930000135012D16D80E4B18681DF0EFFA0446FC
:105940006FF304066FF34A1646F478410E461DF0D5
:10595000F1FA0A220821204605F04EFC002DD8D08D
:105960000A23D8E770BD00BF4811002014110020A1
:105970009011002010B50C4B1C68204609F0D9F995
:1059800009F017FA411E204609F079FBFFF7DEFB0C
:10599000FFF726FCFFF7F2FBFFF7ECFEFFF7AEFF89
:1059A00002482BF0E9FD10BDE0100020BC300908D2
:1059B00070B51FF079F903F0E5FA04F0BBFB264B54
:1059C0001860002844D0002106F0E6FF224D2E6822
:1059D0001FF06AF903F0D6FAFFF78BF804461FF0C0
:1059E00063F903F0CFFAFFF793F8024621463046F9
:1059F00005F002FC00231A460921286805F062FC24
:105A0000164C204621F042FA0021204621F0B6FD36
:105A10000021204621F034FD4FF00001204621F006
:105A200005FD0021204621F0E9FC0021204621F05F
:105A3000EBFC0021204621F0D5FC0021204621F07E
:105A4000D7FC00222146286808F038FE002070BDEF
:105A50004FF0FF30FBE700BFE01000206C1100208A
:105A600000B583B00A4B01930A4B009300230A4A06
:105A700001210A48FFF78CF8002803DB002003B05F
:105A80005DF804FB06482BF077FD4FF0FF30F6E79A
:105A9000115100082151000875590008380C0020E8
:105AA000D430090830B585B011482BF065FD114B95
:105AB0001D682846FFF73BF804460F4B1868FFF7B0
:105AC00027F8002303930293C823019340300090EA
:105AD00023460A4A0A492846FFF738F8094B18684E
:105AE00009F042FA08482BF047FD05B030BD00BF71
:105AF000F8300908281200202C1200205BB10008A1
:105B00009C1100202412002014310908F0B583B044
