:020000040800F2
:1000000000000220811D00084D1A0008551A000842
:10001000571A0008591A00085B1A0008000000006F
:10002000000000000000000000000000214E000859
:100030005D1A000800000000C14E00085F1A0008A9
:10004000D11D0008D11D0008D11D0008D11D0008D8
:10005000D11D0008D11D0008D11D0008D11D0008C8
:10006000D11D0008D11D0008D11D0008D11D0008B8
:10007000D11D0008D11D0008D11D0008D11D0008A8
:10008000D11D0008D11D0008D11D0008D11D000898
:10009000D11D0008D11D0008D11D0008D11D000888
:1000A000D11D0008D11D0008D11D0008D11D000878
:1000B000751A0008851A0008D11D0008D11D000816
:1000C000D11D0008D11D0008D11D0008D11D000858
:1000D000D11D0008D11D0008D11D0008D11D000848
:1000E000D11D0008D11D0008D11D0008D11D000838
:1000F000D11D0008D11D0008D11D0008D11D000828
:10010000D11D0008D11D0008D11D0008D11D000817
:10011000D11D0008D11D0008D11D0008D11D000807
:10012000D11D0008D11D0008D11D0008D11D0008F7
:10013000D11D0008D11D0008D11D0008D11D0008E7
:10014000D11D0008D11D0008D11D0008D11D0008D7
:10015000D11D0008D11D0008D11D0008D11D0008C7
:10016000D11D0008D11D0008D11D0008D11D0008B7
:10017000D11D0008D11D0008D11D0008000000009D
:08018000D11D0008D11D00088B
:1001C00010B5054C237833B9044B13B10448AFF391
:1001D00000800123237010BDA80A00200000000049
:1001E000244F030808B5034B1BB103490348AFF381
:1001F000008008BD00000000AC0A0020244F030866
:1002000053B94AB9002908BF00281CBF4FF0FF317D
:100210004FF0FF3000F074B9ADF1080C6DE904CE79
:1002200000F006F8DDF804E0DDE9022304B07047D1
:100230002DE9F047089D04468E46002B4DD18A4299
:10024000944669D9B2FA82F252B101FA02F3C2F1CC
:10025000200120FA01F10CFA02FC41EA030E94405D
:100260004FEA1C48210CBEFBF8F61FFA8CF708FB7E
:1002700016E341EA034306FB07F199420AD91CEB56
:10028000030306F1FF3080F01F81994240F21C8188
:10029000023E63445B1AA4B2B3FBF8F008FB1033D0
:1002A00044EA034400FB07F7A7420AD91CEB040405
:1002B00000F1FF3380F00A81A74240F207816444D5
:1002C000023840EA0640E41B00261DB1D44000235A
:1002D000C5E900433146BDE8F0878B4209D9002DBE
:1002E00000F0EF800026C5E9000130463146BDE848
:1002F000F087B3FA83F6002E4AD18B4202D38242B2
:1003000000F2F980841A61EB030301209E46002D60
:10031000E0D0C5E9004EDDE702B9FFDEB2FA82F2B5
:10032000002A40F09280A1EB0C014FEA1C471FFA13
:100330008CFE0126200CB1FBF7F307FB131140EAFA
:1003400001410EFB03F0884208D91CEB010103F1C7
:10035000FF3802D2884200F2CB804346091AA4B289
:10036000B1FBF7F007FB101144EA01440EFB00FE5D
:10037000A64508D91CEB040400F1FF3102D2A645C2
:1003800000F2BB800846A4EB0E0440EA03409CE761
:10039000C6F12007B34022FA07FC4CEA030C20FA0E
:1003A00007F401FA06F31C43F9404FEA1C4900FA2E
:1003B00006F3B1FBF9F8200C1FFA8CFE09FB1811AB
:1003C00040EA014108FB0EF0884202FA06F20BD91E
:1003D0001CEB010108F1FF3A80F08880884240F26E
:1003E0008580A8F102086144091AA4B2B1FBF9F0B2
:1003F00009FB101144EA014100FB0EFE8E4508D9AD
:100400001CEB010100F1FF346CD28E456AD9023831
:10041000614440EA0840A0FB0294A1EB0E01A14216
:10042000C846A64656D353D05DB1B3EB080261EB84
:100430000E0101FA07F722FA06F3F1401F43C5E95E
:10044000007100263146BDE8F087C2F12003D84094
:100450000CFA02FC21FA03F3914001434FEA1C47D6
:100460001FFA8CFEB3FBF7F007FB10360B0C43EAC8
:10047000064300FB0EF69E4204FA02F408D91CEB78
:10048000030300F1FF382FD29E422DD90238634476
:100490009B1B89B2B3FBF7F607FB163341EA034116
:1004A00006FB0EF38B4208D91CEB010106F1FF3865
:1004B00016D28B4214D9023E6144C91A46EA00465C
:1004C00038E72E46284605E70646E3E61846F8E6EE
:1004D0004B45A9D2B9EB020864EB0C0E0138A3E737
:1004E0004646EAE7204694E74046D1E7D0467BE718
:1004F000023B614432E7304609E76444023842E790
:10050000704700BF844641EA000313F003036DD136
:10051000403A41D351F8043B40F8043B51F8043BC6
:1005200040F8043B51F8043B40F8043B51F8043BCD
:1005300040F8043B51F8043B40F8043B51F8043BBD
:1005400040F8043B51F8043B40F8043B51F8043BAD
:1005500040F8043B51F8043B40F8043B51F8043B9D
:1005600040F8043B51F8043B40F8043B51F8043B8D
:1005700040F8043B51F8043B40F8043B51F8043B7D
:1005800040F8043B51F8043B40F8043B51F8043B6D
:1005900040F8043B403ABDD2303211D351F8043B0D
:1005A00040F8043B51F8043B40F8043B51F8043B4D
:1005B00040F8043B51F8043B40F8043B103AEDD2BC
:1005C0000C3205D351F8043B40F8043B043AF9D20D
:1005D000043208D0D2071CBF11F8013B00F8013BE0
:1005E00001D30B8803806046704700BF082A13D3ED
:1005F0008B078DD010F003038AD0C3F10403D21A05
:10060000DB071CBF11F8013B00F8013B80D331F838
:10061000023B20F8023B7BE7043AD9D3013A11F8B8
:10062000013B00F8013BF9D20B7803704B78437023
:100630008B78837060467047000000000000000067
:10064000A2EB0300704700BF02780B78012A28BF95
:100650009A42F5D16DE9044540EA0104CDE902670B
:100660006FF0000C4FEA447212B380EA010414F0F8
:10067000070F6AD100F0070420F0070004F003051B
:1006800021F007014FEAC505F0E8042314F0040F38
:10069000F1E804670CFA05F462EA040266EA04066B
:1006A0000AD063EA0403624667EA0407664603E089
:1006B000F0E80423F1E8046782FA4CF582EA0604C4
:1006C000A4FA8CF46CBB83FA4CF583EA0705A5FA0F
:1006D0008CF595B950E9022351E9026782FA4CF58D
:1006E00082EA0604A4FA8CF483FA4CF583EA07053F
:1006F000A5FA8CF52543DBD09CB92DBAB5FA85F463
:1007000024F0070427FA04F1DDE9026723FA04F371
:1007100003F0FF0001F0FF01FDE80445A0EB01003C
:10072000704724BAB4FA84F424F0070426FA04F1DA
:10073000DDE9026722FA04F202F0FF0001F0FF0196
:10074000FDE80445A0EB0100704714F0030F3CD115
:1007500010F0030428D150F8082B51F8083B82FA16
:100760004CF582EA0305A5FA8CF55DB950F8042C26
:1007700051F8043C82FA4CF582EA0305A5FA8CF59F
:10078000002DE8D02DBAB5FA85F424F0070423FA39
:1007900004F122FA04F202F0FF0001F0FF01FDE88B
:1007A0000445A0EB010070474FEAC40420F00300A9
:1007B00050F8082B21F0030151F8083B0CFA04F41F
:1007C00062EA040263EA0403C9E710F003041AD0E2
:1007D000A1EB040120F00300E40750F8042B06D03D
:1007E0000FD28B785FFAA2F4E41A06D12BB1CB7842
:1007F0005FFAB2F4E41A00D11BB920465DF8104B41
:10080000704701F1040150F8042BCC0721F00301DB
:1008100051F8043B48D824D222F07F4482FA4CF5A8
:1008200094EA1325A5FA8CF50AD165B951F8043B71
:1008300084EA0204B4EB036F0ED150F8042BEBE70B
:100840004FEA132355E035F07F454DD10878FDE898
:100850000445C0F1000070474FEA126203F0FF0345
:1008600047E002EA1C4482FA4CF594EA1345A5FAE3
:100870008CF50AD165B951F8043B84EA0204B4EB63
:10088000034F0CD150F8042BEBE74FEA134330E051
:1008900015EA1C4528D10B884FEA124229E04FEA9D
:1008A000124203EA1C4324E002F0FF0482FA4CF5F2
:1008B00094EA1365A5FA8CF50AD165B951F8043BA1
:1008C00084EA0204B4EB032F09D150F8042BEBE7C0
:1008D0004FEA13630DE015F0FF0F05D10B684FEAE7
:1008E000122223F07F4304E04FF00000FDE80445AE
:1008F000704712BA1BBA82FA4CF482EA0304A4FAD3
:100900008CF5B5FA85F402FA04F203FA04F34FEA1F
:100910001260FDE80445A0EB136070470000000082
:1009200000000000000000000000000000000000C7
:1009300000000000000000000000000000000000B7
:1009400090F800F06DE9024520F007016FF0000C0F
:1009500010F0070491F820F040F049804FF00004B7
:100960006FF00700D1E9002391F840F000F1080092
:1009700082FA4CF2A4FA8CF283FA4CF3A2FA8CF3CA
:100980004BBBD1E9022382FA4CF200F10800A4FA31
:100990008CF283FA4CF3A2FA8CF3E3B9D1E9042385
:1009A00082FA4CF200F10800A4FA8CF283FA4CF3BC
:1009B000A2FA8CF37BB9D1E9062301F1200182FA76
:1009C0004CF200F10800A4FA8CF283FA4CF3A2FA7C
:1009D0008CF3002BC6D0002A04BF04301A4612BA8A
:1009E000B2FA82F2FDE8024500EBD2007047D1E98D
:1009F000002304F00305C4F100004FEAC50514F01C
:100A0000040F91F840F00CFA05F562EA05021CBFEC
:100A100063EA050362464FF00004A9E70000000006
:100A200001F0FF01102A2BDB10F0070F08D010F89F
:100A3000013B013A8B422DD010F0070F42B3F6D1A3
:100A4000F0B441EA012141EA014122F007047FF0BC
:100A500000070023F0E80256083C85EA010586EA13
:100A6000010685FA47F5A3FA87F586FA47F6A5FA4F
:100A700087F68EB9EED1F0BC01F0FF0102F007025B
:100A800032B110F8013B013A83EA010313B1F8D106
:100A90000020704701387047002D06BF35460338E7
:100AA000073815F0010F07D1013015F4807F02BF20
:100AB000013015F4C03F0130F0BC0138704700BF71
:100AC00081F0004102E000BF83F0004330B54FEAFF
:100AD00041044FEA430594EA050F08BF90EA020F6C
:100AE0001FBF54EA000C55EA020C7FEA645C7FEAFF
:100AF000655C00F0E2804FEA5454D4EB5555B8BF22
:100B00006D420CDD2C4480EA020281EA030382EA92
:100B1000000083EA010180EA020281EA0303362D24
:100B200088BF30BD11F0004F4FEA01314FF4801CF7
:100B30004CEA113102D0404261EB410113F0004F09
:100B40004FEA03334CEA133302D0524263EB4303C0
:100B500094EA050F00F0A780A4F10104D5F1200E5E
:100B60000DDB02FA0EFC22FA05F2801841F10001B9
:100B700003FA0EF2801843FA05F359410EE0A5F18D
:100B800020050EF1200E012A03FA0EFC28BF4CF0BE
:100B9000020C43FA05F3C01851EBE37101F0004574
:100BA00007D54FF0000EDCF1000C7EEB00006EEB81
:100BB0000101B1F5801F1BD3B1F5001F0CD349080B
:100BC0005FEA30004FEA3C0C04F101044FEA445262
:100BD00012F5800F80F09A80BCF1004F08BF5FEAE9
:100BE000500C50F1000041EB045141EA050130BDC9
:100BF0005FEA4C0C404141EB0101013C28BFB1F5DB
:100C0000801FE9D291F0000F04BF01460020B1FA25
:100C100081F308BF2033A3F10B03B3F120020CDAF8
:100C20000C3208DD02F1140CC2F10C0201FA0CF0D6
:100C300021FA02F10CE002F11402D8BFC2F1200C3B
:100C400001FA02F120FA0CFCDCBF41EA0C019040F1
:100C5000E41AA2BF01EB0451294330BD6FEA04043A
:100C60001F3C1CDA0C340EDC04F11404C4F1200225
:100C700020FA04F001FA02F340EA030021FA04F337
:100C800045EA030130BDC4F10C04C4F1200220FA8E
:100C900002F001FA04F340EA0300294630BD21FACC
:100CA00004F0294630BD94F0000F83F4801306BF92
:100CB00081F480110134013D4EE77FEA645C18BF86
:100CC0007FEA655C29D094EA050F08BF90EA020F1D
:100CD00005D054EA000C04BF1946104630BD91EA15
:100CE000030F1EBF0021002030BD5FEA545C05D118
:100CF0004000494128BF41F0004130BD14F5800457
:100D00003CBF01F5801130BD01F0004545F0FE41CA
:100D100041F470014FF0000030BD7FEA645C1ABFFF
:100D2000194610467FEA655C1CBF0B46024650EA36
:100D3000013406BF52EA033591EA030F41F4002162
:100D400030BD00BF90F0000F04BF0021704730B5E8
:100D50004FF4806404F132044FF000054FF00001BD
:100D600050E700BF90F0000F04BF0021704730B57E
:100D70004FF4806404F1320410F0004548BF404253
:100D80004FF000013EE700BF42004FEAE2014FEAA8
:100D900031014FEA02701FBF12F07F4393F07F4F83
:100DA00081F06051704732F07F4208BF704793F086
:100DB0007F4F04BF41F40021704730B54FF4607499
:100DC00001F0004521F000411CE700BF50EA01029C
:100DD00008BF704730B54FF000050AE050EA010245
:100DE00008BF704730B511F0004502D5404261EBB5
:100DF00041014FF4806404F132045FEA915C3FF4F6
:100E0000D8AE4FF003025FEADC0C18BF03325FEA92
:100E1000DC0C18BF033202EBDC02C2F1200300FA43
:100E200003FC20FA02F001FA03FE40EA0E0021FA68
:100E300002F11444BDE600BF70B54FF0FF0C4CF456
:100E4000E06C1CEA11541DBF1CEA135594EA0C0F08
:100E500095EA0C0F00F0DEF82C4481EA030621EA43
:100E60004C5123EA4C5350EA013518BF52EA03357E
:100E700041F4801143F4801338D0A0FB02CE4FF030
:100E80000005E1FB02E506F00042E0FB03E54FF060
:100E90000006E1FB03569CF0000F18BF4EF0010E58
:100EA000A4F1FF04B6F5007F64F5407404D25FEA54
:100EB0004E0E6D4146EB060642EAC62141EA555107
:100EC0004FEAC52040EA5E504FEACE2EB4F1FD0C49
:100ED00088BFBCF5E06F1ED8BEF1004F08BF5FEAC7
:100EE000500E50F1000041EB045170BD06F0004679
:100EF00046EA010140EA020081EA0301B4EB5C0426
:100F0000C2BFD4EB0C0541EA045170BD41F480111D
:100F10004FF0000E013C00F3AB8014F1360FDEBF42
:100F2000002001F0004170BDC4F10004203C35DA1E
:100F30000C341BDC04F11404C4F1200500FA05F3A1
:100F400020FA04F001FA05F240EA020001F0004242
:100F500021F0004110EBD37021FA04F642EB0601B8
:100F60005EEA430E08BF20EAD37070BDC4F10C04E2
:100F7000C4F1200500FA04F320FA05F001FA04F2A6
:100F800040EA020001F0004110EBD37041F1000192
:100F90005EEA430E08BF20EAD37070BDC4F120059D
:100FA00000FA05F24EEA020E20FA04F301FA05F205
:100FB00043EA020321FA04F001F0004121FA04F2AD
:100FC00020EA020000EBD3705EEA430E08BF20EA7D
:100FD000D37070BD94F0000F0FD101F000464000B7
:100FE00041EB010111F4801F08BF013CF7D041EA39
:100FF000060195F0000F18BF704703F0004652003D
:1010000043EB030313F4801F08BF013DF7D043EA0D
:101010000603704794EA0C0F0CEA135518BF95EAC3
:101020000C0F0CD050EA410618BF52EA4306D1D14A
:1010300081EA030101F000414FF0000070BD50EA69
:10104000410606BF1046194652EA430619D094EAF3
:101050000C0F02D150EA013613D195EA0C0F05D1DD
:1010600052EA03361CBF104619460AD181EA030131
:1010700001F0004141F0FE4141F470014FF00000E9
:1010800070BD41F0FE4141F4780170BD70B54FF084
:10109000FF0C4CF4E06C1CEA11541DBF1CEA135504
:1010A00094EA0C0F95EA0C0F00F0A7F8A4EB0504E6
:1010B00081EA030E52EA03354FEA013100F08880DD
:1010C0004FEA03334FF0805545EA131343EA1263A6
:1010D0004FEA022245EA111545EA10654FEA00265B
:1010E0000EF000419D4208BF964244F1FD0404F514
:1010F000407402D25B084FEA3202B61A65EB030570
:101100005B084FEA32024FF480104FF4002CB6EB2C
:10111000020E75EB030E22BFB61A754640EA0C00AC
:101120005B084FEA3202B6EB020E75EB030E22BFEC
:10113000B61A754640EA5C005B084FEA3202B6EB2D
:10114000020E75EB030E22BFB61A754640EA9C00EC
:101150005B084FEA3202B6EB020E75EB030E22BFBC
:10116000B61A754640EADC0055EA060E18D04FEA7A
:10117000051545EA16754FEA06164FEAC30343EA1A
:1011800052734FEAC2025FEA1C1CC0D111F4801FE7
:101190000BD141EA00014FF000004FF0004CB6E7E0
:1011A00011F4801F04BF01430020B4F1FD0C88BF7F
:1011B000BCF5E06F3FF6AFAEB5EB030C04BFB6EB8A
:1011C000020C5FEA500C50F1000041EB045170BD7D
:1011D0000EF0004E4EEA113114EB5C04C2BFD4EBAA
:1011E0000C0541EA045170BD41F480114FF0000E2E
:1011F000013C90E645EA060E8DE60CEA135594EAAA
:101200000C0F08BF95EA0C0F3FF43BAF94EA0C0FAC
:101210000AD150EA01347FF434AF95EA0C0F7FF421
:1012200025AF104619462CE795EA0C0F06D152EA75
:1012300003353FF4FDAE1046194622E750EA410659
:1012400018BF52EA43067FF4C5AE50EA41047FF46A
:101250000DAF52EA43057FF4EBAE12E74FF0FF3CCF
:1012600006E000BF4FF0010C02E000BF4FF0010CA0
:101270004DF804CD4FEA410C7FEA6C5C4FEA430C19
:1012800018BF7FEA6C5C1BD001B050EA410C0CBF68
:1012900052EA430C91EA030F02BF90EA020F0020CA
:1012A000704710F1000F91EA030F58BF994208BF31
:1012B00090422CBFD8176FEAE37040F001007047EE
:1012C0004FEA410C7FEA6C5C02D150EA013C07D145
:1012D0004FEA430C7FEA6C5CD6D152EA033CD3D090
:1012E0005DF8040B704700BF8446104662468C468A
:1012F0001946634600E000BF01B5FFF7B7FF0028BD
:1013000048BF10F1000F01BD4DF808EDFFF7F4FFE5
:101310000CBF012000205DF808FB00BF4DF808ED70
:10132000FFF7EAFF34BF012000205DF808FB00BF93
:101330004DF808EDFFF7E0FF94BF012000205DF8B5
:1013400008FB00BF4DF808EDFFF7CEFF94BF01206A
:1013500000205DF808FB00BF4DF808EDFFF7C4FF63
:1013600034BF012000205DF808FB00BF4FEA410CAC
:101370007FEA6C5C02D150EA013C0AD14FEA430C8F
:101380007FEA6C5C02D152EA033C02D14FF00000CC
:1013900070474FF0010070474FEA410212F500120A
:1013A00015D211D56FF47873B3EB625212D94FEAAC
:1013B000C12343F0004343EA505311F0004F23FA96
:1013C00002F018BF404270474FF00000704750EAEB
:1013D000013005D111F0004008BF6FF000407047A8
:1013E0004FF00000704700BF08B50A4601460948A3
:1013F00002F09EFA084A1378B3FA83F35B0913707C
:101400001BB1064803F033FB08BD044803F043FB5F
:10141000FAE700BF780B0020C40A0020680B002008
:10142000F8B51D4F1D4A0021384603F03CF81C4E0C
:101430001C4A0021304603F036F81B4C1B4A0021A1
:10144000204603F030F81A4D2A460321384603F0AF
:1014500048F82A460321304603F043F82A46032180
:10146000204603F03EF82A460421204603F039F8CE
:101470002A460621204603F034F8384603F044F8A3
:10148000304603F041F8204603F03EF8094801F0E9
:1014900099FC0020F8BD00BFC80A0020D114000844
:1014A000200B0020E1140008F40A0020F5140008C5
:1014B000E9130008400C002008B5021E18BF0122E5
:1014C0004FF40051014800F03CFE08BD0008024006
:1014D00008B58021014800F02DFE08BD001802402B
:1014E00008B54FF48071024800F024FE08BD00BF2B
:1014F0000018024008B52021014800F01BFE08BD7D
:101500000018024008B50A464FF47A7301460248B3
:1015100001F04DFB08BD00BFE40B002008B50246FA
:101520000221024800F00DFE08BD00BF0008024085
:1015300008B502460121024800F003FE08BD00BFC5
:101540000018024008B502460221024800F0F9FDE9
:1015500008BD00BF0018024000B583B00E4B0093D9
:101560000E4B0F4A0F49104803F074FA00280DDBA8
:10157000F0231A460C490D4803F017F8002808DB41
:101580000A4803F009F803B05DF804FB4FF0FF30A0
:10159000F9E76FF00100F6E745150008311500087E
:1015A0001D15000805150008580B00204C0B0020E5
:1015B00010B5054C054A0021204603F08DFA20465F
:1015C00003F069FA002010BD680B0020B914000870
:1015D00008B5012003F017FBFBE7000008B523F076
:1015E00049FD034802F0BEF9012003F00CFBF6E7C9
:1015F000780B002008B515482DF0AAFCFFF710FF66
:10160000FFF7D6FFFFF7A8FF06F08AFA05F0B6F954
:101610000F4801F0D7FB0A2211460E4802F073F87A
:1016200002F02AF80C4803F0FCFA0C4B18600C4A44
:1016300000210C4803F088FA0B4B18600B4A00217C
:101640000B4803F081FA0B4B186008BD584F030894
:10165000400C0020780B0020EC4F03088C0B00207E
:10166000A44F0308D1150008700B0020C84F0308D1
:10167000DD150008740B002010B504460368B3F1B3
:10168000804F04D02368B3F1804F03D010BD02F027
:1016900053FFF7E7012021F059F8F7E72DE9F04172
:1016A0008AB0002405940694079408940994009441
:1016B000364B1A6B42F004021A631A6B02F00402F2
:1016C0000092009A01941A6B42F080021A631A6B1E
:1016D00002F080020192019A02941A6B42F04002D9
:1016E0001A631A6B02F040020292029A03941A6B78
:1016F00042F002021A631A6B02F002020392039A8A
:1017000004941A6B42F001021A631B6B03F001038D
:101710000493049BDFF87C80224642F2020140469B
:1017200000F00FFD1A4D22460121284600F009FD68
:1017300001220221284600F004FD4FF400530593D6
:10174000012706970794089405A9404600F000FC7D
:1017500002230593069707940326089605A9404699
:1017600000F0F6FB059606970794089605A928460B
:1017700000F0EEFB4FF4D07305930694079405A98F
:10178000284600F0E5FB0AB0BDE8F08100380240D1
:10179000001802400008024008B50B480B4B0360DC
:1017A0000B4B436000238360C3604FF480420261AF
:1017B00043618361C361036200F0CAFC00B908BDE4
:1017C00000F040F8FBE700BF900B00200054004001
:1017D000A086010030B589B00023039304930593DC
:1017E000069307930268144B9A4201D009B030BDAA
:1017F00000250195114C236B43F002032363236BF7
:1018000003F002030193019BC0230393122304936B
:10181000032306930423079303A9094800F098FBC8
:101820000295236C43F400132364236C03F4001328
:101830000293029BDAE700BF0054004000380240E8
:101840000004024072B6FEE700B595B030220021D8
:1018500008A82DF0C9FA0023039304930593069377
:1018600007930193214A116C41F080511164126C6D
:1018700002F080520192019A02931D4B1A6842F4C1
:1018800080421A601B6803F480430293029B012389
:1018900008934FF48033099302220E924FF4800391
:1018A0000F9304231093A82111911292139308A867
:1018B00000F02CFDA8B90F23039302230493002307
:1018C00005934FF4A05306934FF4805307930521DB
:1018D00003A800F087FF30B900F014FF15B05DF8E1
:1018E00004FBFFF7AFFFFFF7ADFF00BF003802407A
:1018F0000070004008B500F093FAFFF7A5FFFFF76E
:10190000CDFEFFF749FF00F00DF800F02BF900F0D5
:10191000D3F900F05FF903F0E9F8FFF76BFE03F08D
:10192000F7F8FEE708B50E480E4B03604FF48273DC
:10193000436000238360C360036143614FF400721E
:1019400082611022C2610362436283620A23C3621E
:1019500001F0CEF800B908BDFFF774FFFBE700BF48
:10196000E40B002000380040F0B589B00023039359
:1019700004930593069307930268204B9A4201D083
:1019800009B0F0BD0022009203F50033196C41F458
:1019900080411964196C01F4804100910099019211
:1019A000196B41F004011963196B01F004010191F5
:1019B000019902921A6B42F002021A631B6B03F048
:1019C00002030293029B0823039302270497012634
:1019D0000596032506950524079403A9084800F0F9
:1019E000B7FA4FF48063039304970596069507941E
:1019F00003A9044800F0ACFAC2E700BF0038004079
:101A0000000802400004024000B583B000220092AA
:101A10000D4B596C41F480415964596C01F480417B
:101A2000009100990192196C41F0805119641B6C6E
:101A300003F080530193019B0F216FF0010000F030
:101A40002DFA03B05DF804FB0038024008B500F041
:101A5000A1FFFEE7FEE7FEE7FEE7FEE7704708B5F9
:101A600000F0F8F904F0E0FC012800D108BD03F013
:101A700059FAFBE708B5024801F0ECF908BD00BFD0
:101A8000400C002008B5024801F0E4F908BD00BF91
:101A9000880C00200120704708B52DF0EBF81623C4
:101AA00003604FF0FF3008BD08B54FF0FF31FFF77E
:101AB000F3FFFEE770B50C461646002506E0AFF3CF
:101AC0000080214601F8010B01350C46B542F6DBDA
:101AD000304670BD70B50C461646002504E014F87B
:101AE000010B00F03DF90135B542F8DB304670BD21
:101AF0004FF0FF3070474FF400534B6000207047A9
:101B0000012070470020704710B503460C4A0D496C
:101B10000D48006840B10C4800680344521A9342D3
:101B200006D8094A136010BD0748084C0460F2E764
:101B30002DF0A0F80C2303604FF0FF30F3E700BF57
:101B400000000220000400003C0C0020583001205E
:101B5000034AD2F8883043F47003C2F888307047E3
:101B600000ED00E000B587B00023029303930493D7
:101B700005930093019316484FF08042026044F2AF
:101B80009F12426083603122C260036180238361BF
:101B900001F082FA90B94FF48053029302A90C48E5
:101BA00001F0B3FA68B9002300930193694608482D
:101BB00001F02AFB40B907B05DF804FBFFF742FED5
:101BC000E9E7FFF73FFEEEE7FFF73CFEF3E700BF74
:101BD000400C002000B587B00023029303930493C8
:101BE0000593009301931548154A026044F29F1231
:101BF000426083600A22C26003618023836101F036
:101C00004BFA90B94FF48053029302A90B4801F0AC
:101C10007CFA68B90023009301936946074801F0F4
:101C2000F3FA40B907B05DF804FBFFF70BFEE9E7F4
:101C3000FFF708FEEEE7FFF705FEF3E7880C00204C
:101C40000004004000B583B00368B3F1804F05D0B5
:101C5000174A934217D003B05DF804FB00220092AC
:101C600003F50E33196C41F0010119641B6C03F08C
:101C700001030093009B05211C2000F00FF91C209C
:101C800000F044F9E7E7002201920A4B196C41F099
:101C9000020119641B6C03F002030193019B0521EF
:101CA0001D2000F0FBF81D2000F030F9D3E700BF45
:101CB000000400400038024008B50A480A4B03609F
:101CC0004FF4E133436000238360C36003610C225F
:101CD00042618361C36101F0ABFB00B908BDFFF74E
:101CE000B1FDFBE7D00C00200010014000B589B029
:101CF000002303930493059306930793026803F16B
:101D0000804303F588339A4202D009B05DF804FBA2
:101D10000021019103F594335A6C42F010025A6489
:101D20005A6C02F010020192019A02911A6B42F071
:101D300001021A631B6B03F001030293029B4FF431
:101D4000C06303930223049303230693072307939B
:101D500003A9024800F0FCF8D7E700BF00000240EA
:101D600000B583B001904FF6FF73012201A903482B
:101D700001F08DFB019803B05DF804FBD00C00204E
:101D8000DFF834D00D480E490E4A002302E0D45843
:101D9000C4500433C4188C42F9D30B4A0B4C0023B3
:101DA00001E013600432A242FBD3FFF7D1FE2CF016
:101DB0007BFFFFF79FFD704700000220000000201E
:101DC000A80A0020CC480608A80A002054300120A8
:101DD000FEE7000010B504460E4B18784FF47A73F6
:101DE000B3FBF0F30C4A1068B0FBF3F000F09CF882
:101DF00068B90F2C01D901200AE0002221464FF0DA
:101E0000FF3000F04BF8054B1C60002000E0012083
:101E100010BD00BF040000200000002008000020CA
:101E200008B50B4B1A6842F400721A601A6842F443
:101E300080621A601A6842F480721A60032000F00F
:101E40001BF80F20FFF7C6FFFFF7DEFD002008BDDF
:101E5000003C0240034A1168034B1B780B4413609B
:101E6000704700BF140D002004000020014B1868CB
:101E7000704700BF140D0020074AD36823F4E063C5
:101E80001B041B0C000200F4E060034343F0BF633B
:101E900043F40033D360704700ED00E000B5194B08
:101EA000DB68C3F30223C3F1070CBCF1040F28BFA6
:101EB0004FF0040C03F1040EBEF1060F18D9033BDA
:101EC0004FF0FF3E0EFA0CFC21EA0C0199400EFA8D
:101ED00003F322EA0303194300280BDB0901C9B20B
:101EE00000F1604000F5614080F800135DF804FBEC
:101EF0000023E5E700F00F000901C9B2024B1954B5
:101F0000F4E700BF00ED00E014ED00E0002807DB7F
:101F100000F01F02400901239340024A42F820309A
:101F2000704700BF00E100E00138B0F1807F0BD2C4
:101F30004FF0E0235861054AF02182F82310002079
:101F4000986107221A6170470120704700ED00E098
:101F500000230F2B00F2E48070B582B060E085684A
:101F60005E000324B44025EA0405CC68B4402C4349
:101F70008460456825EA02054C68C4F300129A4063
:101F80002A4342605AE0DC08083450F8246003F029
:101F9000070295000F22AA4026EA020E0A69AA400B
:101FA00042EA0E0240F824205CE0072200E0002212
:101FB00002FA0EF22A4302345A4D45F824205A4AB6
:101FC00094686FEA0C0224EA0C054E6816F4801F30
:101FD00001D04CEA0405544CA560E46802EA04050B
:101FE0004E6816F4001F01D04CEA04054E4CE56023
:101FF000646802EA04054E6816F4003F01D04CEA1A
:102000000405494C6560246822404D6815F4803F02
:1020100001D04CEA0402444C226001330F2B7DD8DE
:1020200001229A400C6804EA020C32EA0404F4D15A
:102030004C6804F00304013C012C90D94A6802F07A
:102040000302032A09D0C4685D000322AA4024EADF
:1020500002048A68AA402243C2604A6802F003026E
:10206000022A90D004684FEA430E032202FA0EF2CD
:1020700024EA02044A6802F0030202FA0EF2224342
:1020800002604A6812F4403FC7D000220192274AFA
:10209000546C44F480445464526C02F480420192C3
:1020A000019A9C08A51C1F4A52F8255003F0030210
:1020B0004FEA820E0F2202FA0EF225EA02051C4AAE
:1020C00090423FF474AF02F5806290421AD002F55C
:1020D0008062904218D002F58062904216D002F5DC
:1020E0008062904214D002F58062904212D002F5D4
:1020F0008062904210D002F5806290423FF455AF6A
:10210000082255E7012253E7022251E703224FE755
:1021100004224DE705224BE7062249E702B070BDD5
:10212000704700BF00380140003C014000380240C9
:10213000000002400369194201D0012070470020CD
:1021400070470AB1816170470904816170470000DE
:10215000002800F0CC8070B5044690F83D30002B8C
:1021600077D0242384F83D302268136823F00103DC
:1021700013602268136843F40043136022681368F5
:1021800023F40043136000F0E3FB62685A4B9A4269
:1021900064D85A4B98428CBF00230123002B40F097
:1021A000A8805749A1FB00318B0C25686A6822F092
:1021B0003F0242EA91426A6021680A6A22F03F02C5
:1021C00066684D4DAE424FD8013313430B62216810
:1021D000CA6922F44F4222F0FF026668464B9E42D3
:1021E0004CD8431E7600B3FBF6F3013340F6FC7087
:1021F000034278D0C3F30B031343CB6121680B6810
:1022000023F0C003E269206A024313430B60216894
:102210008B6823F4034323F0FF032269E068024341
:1022200013438B602168CB6823F0FF036269A069C8
:1022300002431343CB602268136843F00103136029
:1022400000202064202384F83D30206384F83E0081
:1022500070BD80F83C30FFF7BDFA82E7294B984209
:102260008CBF0023012399E74FF4967505FB03F318
:10227000254DA5FB03539B090133A6E7A368BBB912
:10228000451E06EB460CB5FBFCF50135C5F30B0509
:10229000B5FA85F56D0945BBC3B9013806EB4603B0
:1022A000B0FBF3F30133C3F30B0343F40043A3E7A1
:1022B000451E06EB860C0CEB8C0CB5FBFCF50135D2
:1022C000C5F30B05B5FA85F56D09E4E7013806EBB2
:1022D000860303EB8303B0FBF3F30133C3F30B0378
:1022E00043F4404388E7042386E7012384E7012081
:1022F00070470120ACE700BFA08601007F841E006C
:1023000083DE1B43FF083D00D34D6210002800F020
:10231000E08170B582B00446036813F0010F3BD032
:102320009F4B9B6803F00C03042B2CD09C4B9B68A9
:1023300003F00C03082B21D06368B3F5803F4FD026
:10234000B3F5A02F52D0964B1A6822F480321A604F
:102350001A6822F480221A606368002B50D0FFF7BD
:1023600085FD05468E4B1B6813F4003F14D1FFF723
:102370007DFD401B6428F5D90320B1E1884B5B68E3
:1023800013F4800FD8D0864B1B6813F4003F03D0A2
:102390006368002B00F09F81236813F0020F54D074
:1023A0007F4B9B6813F00C0F3ED07D4B9B6803F076
:1023B0000C03082B33D0E368002B68D0794B012243
:1023C0001A60FFF753FD0546754B1B6813F0020FAB
:1023D00054D1FFF74BFD401B0228F5D903207FE1C4
:1023E0006F4A136843F480331360B5E76C4B1A6887
:1023F00042F480221A601A6842F480321A60ABE715
:10240000FFF734FD0546664B1B6813F4003FC3D04D
:10241000FFF72CFD401B6428F5D9032060E1604BD9
:102420005B6813F4800FC6D15D4B1B6813F0020F7D
:1024300003D0E368012B40F05081594A136823F020
:10244000F803216943EAC1031360236813F0080FFE
:1024500042D063696BB3534B0122C3F8802EFFF760
:1024600005FD05464E4B5B6F13F0020F34D1FFF7AD
:10247000FDFC401B0228F5D9032031E1484A1368CE
:1024800023F0F803216943EAC1031360DDE7454BFC
:1024900000221A60FFF7EAFC0546414B1B6813F067
:1024A000020FD2D0FFF7E2FC401B0228F5D903202F
:1024B00016E13C4B0022C3F8802EFFF7D7FC0546FF
:1024C000374B5B6F13F0020F06D0FFF7CFFC401BBA
:1024D0000228F5D9032003E1236813F0040F77D015
:1024E0002F4B1B6C13F0805F33D1002301932C4BD7
:1024F0001A6C42F080521A641B6C03F080530193F3
:10250000019B0125284B1B6813F4807F23D0A3680F
:10251000012B34D0052B38D0214B1A6F22F0010249
:102520001A671A6F22F004021A67A368002B3DD0C5
:10253000FFF79CFC06461A4B1B6F13F0020F46D1A7
:10254000FFF794FC801B41F288339842F3D90320B3
:10255000C6E00025D6E7144A136843F4807313607D
:10256000FFF784FC0646104B1B6813F4807FCED126
:10257000FFF77CFC801B0228F5D90320B0E0084A55
:10258000136F43F001031367CFE7054B1A6F42F057
:1025900004021A671A6F42F001021A67C5E700BF0A
:1025A000003802400000474200700040FFF75EFC28
:1025B0000646524B1B6F13F0020F08D0FFF756FC74
:1025C000801B41F288339842F3D9032088E0EDB9AB
:1025D000A369002B00F08380484A926802F00C0245
:1025E000082A51D0022B17D0454B00221A66FFF75C
:1025F0003DFC0446414B1B6813F0007F42D0FFF7BF
:1026000035FC001B0228F5D9032069E03B4A136C16
:1026100023F080531364DBE7394B00221A66FFF77F
:1026200025FC0546354B1B6813F0007F06D0FFF7ED
:102630001DFC401B0228F5D9032051E0E369226A02
:102640001343626A43EA8213A26A5208013A43EAD8
:102650000243E26A43EA0263284A5360284B01229C
:102660001A66FFF703FC0446244B1B6813F0007F37
:1026700006D1FFF7FBFB001B0228F5D903202FE052
:1026800000202DE000202BE0012B2BD01B4B5B68A2
:1026900003F48001E269914226D103F03F02216AEE
:1026A0008A4223D1616A47F6C0721A40B2EB811F99
:1026B0001ED103F44031A26A5208013AB1EB024F35
:1026C00018D103F07063E26AB3EB026F14D10020FB
:1026D00006E001207047012002E0012000E0002018
:1026E00002B070BD0120FBE70120F9E70120F7E708
:1026F0000120F5E70120F3E70120F1E7003802406F
:1027000000004742014B0122DA6470470000474253
:1027100008B5314B9B6803F00C03042B57D0082BF2
:1027200057D12D4B5A6802F03F025B6813F4800FBB
:102730002AD0294B5968C1F3881C4FEA4C11B1EBE0
:102740000C006EEB0E0E4FEA8E1343EA906381018C
:10275000091A63EB0E03DB0043EA5173C90011EB66
:102760000C0C43F10003590200234FEA4C2041EACC
:10277000DC51FDF745FD184B5B68C3F301430133A2
:102780005B00B0FBF3F025E0134B5968C1F3881CE4
:102790004FEA4C11B1EB0C006EEB0E0E4FEA8E13AC
:1027A00043EA90638101091A63EB0E03DB0043EAFD
:1027B0005173C90011EB0C0C43F100039902002383
:1027C0004FEA8C2041EA9C51FDF71AFDD3E70348FC
:1027D00000E0034808BD00BF0038024000127A0044
:1027E0000024F400002800F09B8070B50D460446DC
:1027F0004F4B1B6803F007038B4208D2CBB24C4A05
:102800001370136803F007038B4240F08B8023683A
:1028100013F0020F17D013F0040F04D0454A936849
:1028200043F4E0539360236813F0080F04D0414A47
:10283000936843F4604393603E4A936823F0F00347
:10284000A1680B439360236813F0010F32D06368D3
:10285000012B21D09A1E012A25D9364A126812F07E
:10286000020F61D033498A6822F0030213438B6060
:10287000FFF7FCFA06462F4B9B6803F00C036268D7
:10288000B3EB820F16D0FFF7F1FA801B41F28833C9
:102890009842F0D9032042E0264A126812F4003F21
:1028A000E0D101203BE0234A126812F0007FD9D129
:1028B000012034E01E4B1B6803F00703AB4207D92D
:1028C000EAB21B4B1A701B6803F00703AB422DD111
:1028D000236813F0040F06D0164A936823F4E053DC
:1028E000E1680B439360236813F0080F07D0114A87
:1028F000936823F46043216943EAC1039360FFF7BF
:1029000007FF0C4B9B68C3F303130B4AD35CD840FF
:102910000A4B18600A4B1868FFF75CFA002070BD7C
:10292000012070470120FAE70120F8E70120F6E7CF
:10293000003C024000380240FC4F03080000002029
:1029400008000020014B1868704700BF00000020FD
:1029500008B5FFF7F7FF044B9B68C3F38223034AD4
:10296000D35CD84008BD00BF003802400C500308BB
:1029700008B5FFF7E7FF044B9B68C3F34233034AF4
:10298000D35CD84008BD00BF003802400C5003089B
:102990007047000008B5064BDB6813F0800F00D1CC
:1029A00008BDFFF7F5FF024B80229A73F8E700BFDE
:1029B000003802402DE9F04782B0054688461746A8
:1029C0001E46FFF753FA0A9B1B1A03EB0609FFF793
:1029D0004DFA82462B4B1B68C3F3CB3309FB03F341
:1029E00001932B689C6838EA04030CBF4FF0010C7C
:1029F0004FF0000CBC4540D0B6F1FF3FF1D0FFF7DF
:102A000035FAA0EB0A0048450AD2B9F1000F07D009
:102A1000019A02B14A46019B013B01939146E0E7CE
:102A20002A68536823F0E00353606B68B3F5827F34
:102A30000BD0AB6AB3F5005F14D0012385F8513099
:102A4000002385F85030032018E0AB68B3F5004F41
:102A500002D0B3F5806FECD12A68136823F04003ED
:102A60001360E6E72A68136823F4005313602A68AA
:102A7000136843F400531360DFE7002002B0BDE8A1
:102A8000F08700BF0000002010B584B00446164B4C
:102A90001868164BA3FB0030400D4FF47A7303FB0C
:102AA00000F003906368B3F5827F0BD0039BBBB14A
:102AB000039B013B039323689B6813F0800FF5D1C0
:102AC00000200EE000920B46002280212046FFF7F6
:102AD00071FF30B1636D43F020036365032000E0B4
:102AE000002004B010BD00BF00000020819F5E16D2
:102AF00000285AD010B50446436A33B94368B3F589
:102B0000827F05D00023C36102E00023036143619B
:102B10000023A36294F85130002B40D0022384F8A4
:102B200051302268136823F040031360636803F494
:102B30008273A26802F404421343E26802F4006262
:102B40001343226902F002021343626902F0010298
:102B50001343A26902F400721343E26902F03802DF
:102B60001343226A02F080021343A26A02F4005265
:102B7000216813430B60638B03F00403626A02F065
:102B80001002216813434B602268D36923F4006369
:102B9000D36100206065012384F8513010BD84F8B2
:102BA00050302046FEF7E0FEB8E7012070472DE9DF
:102BB000F04383B01D4690F85030012B00F0D180D7
:102BC000044688469146012380F85030FFF74EF9BD
:102BD000074694F85160F6B2012E40F0AF80B8F18C
:102BE000000F00F0AC80B9F1000F00F0A8800323C3
:102BF00084F8513000236365C4F83080A4F8349021
:102C0000A4F83690A363A387E38763642364A3686F
:102C1000B3F5004F1ED023681A6812F0400F03D19D
:102C20001A6842F040021A60E368B3F5006F1CD0E6
:102C3000636813B1B9F1010F52D1226B2368127886
:102C40001A73236B01332363E38E9BB2013B9BB268
:102C5000E38645E02268136823F04003136022688E
:102C6000136843F480431360D5E7636813B1B9F187
:102C7000010F16D1226B23681288DA60236B0233AE
:102C80002363E38E9BB2013B9BB2E38609E0FFF72F
:102C9000EDF8C01BA84202D3B5F1FF3F59D1002D7A
:102CA00059D0E38E9BB2002B33D023689A6812F080
:102CB000020FECD0226B1288DA60236B023323639D
:102CC000E38E9BB2013B9BB2E386EAE7FFF7CEF8C7
:102CD000C01BA84202D3B5F1FF3F3ED1002D3ED02C
:102CE000E38E9BB2ABB123689A6812F0020FEDD06D
:102CF000226B12781A73236B01332363B4F836C046
:102D00001FFA8CFC0CF1FF3C1FFA8CFCA4F836C0B7
:102D1000E6E73A4629462046FFF7B6FE08B12023EB
:102D20006365A36833B901932368DA6801929B68ED
:102D30000193019B636D13B9002600E00226012375
:102D400084F85130002384F85030304603B0BDE899
:102D5000F0830326F3E70326F1E70326EFE70326D4
:102D6000EDE70226F1E710B4036A046A24F00104D7
:102D70000462846924F0F00C4CEA021223F00A0386
:102D80000B43826103625DF8044B704710B4046A20
:102D900024F0100404628469036A24F4704C4CEA41
:102DA000023223F0A00343EA0113826103625DF85B
:102DB000044B7047836823F070030B4343F0070311
:102DC0008360704790F83D30DBB2012B37D102238E
:102DD00080F83D300268D36843F00103D360036894
:102DE000194A934220D0B3F1804F1DD0A2F57C4206
:102DF000934219D002F58062934215D002F58062A9
:102E0000934211D002F5784293420DD002F57052F0
:102E1000934209D0A2F59432934205D01A6842F049
:102E200001021A60002070479A6802F00702062A21
:102E300007D01A6842F001021A6000207047012092
:102E400070470020704700BF000001407047704786
:102E50007047704710B5044603681A6912F0020FF4
:102E600011D0DA6812F0020F0DD06FF002021A6171
:102E70000123037703689B6913F0030F70D0FFF7FA
:102E8000E6FF0023237723681A6912F0040F12D09B
:102E9000DA6812F0040F0ED06FF004021A610223F8
:102EA000237723689B6913F4407F5FD02046FFF7A8
:102EB000CEFF0023237723681A6912F0080F12D07F
:102EC000DA6812F0080F0ED06FF008021A610423BE
:102ED00023772368DB6913F0030F4ED02046FFF7FA
:102EE000B6FF0023237723681A6912F0100F12D05F
:102EF000DA6812F0100F0ED06FF010021A6108237A
:102F000023772368DB6913F4407F3DD02046FFF729
:102F10009EFF0023237723681A6912F0010F03D064
:102F2000DA6812F0010F36D123681A6912F0800FA7
:102F300003D0DA6812F0800F34D123681A6912F0D6
:102F4000400F03D0DA6812F0400F32D123681A69BB
:102F500012F0200F03D0DA6812F0200F30D110BD2C
:102F6000FFF774FF2046FFF773FF8AE72046FFF75D
:102F70006DFF2046FFF76CFF9BE72046FFF766FFDB
:102F80002046FFF765FFACE72046FFF75FFF2046CE
:102F9000FFF75EFFBDE76FF001021A612046FEF702
:102FA0006BFBC1E76FF080021A61204600F073F9F5
:102FB000C3E76FF040021A612046FFF74AFFC5E7FA
:102FC0006FF020021A61204600F064F9C7E70000A4
:102FD0000368304A904212D0B0F1804F0FD0A2F572
:102FE0007C4290420BD002F58062904207D002F5FD
:102FF0008062904203D002F57842904203D123F0E0
:1030000070034A681343234A90422AD0B0F1804F9C
:1030100027D0A2F57C42904223D002F580629042F4
:103020001FD002F5806290421BD002F57842904298
:1030300017D002F57052904213D002F58062904290
:103040000FD002F5806290420BD0A2F598329042E8
:1030500007D002F58062904203D002F58062904270
:1030600003D123F44073CA68134323F080034A69F1
:10307000134303608B68C3620B688362054B9842FD
:1030800003D003F58063984201D10B6903630123E8
:10309000436170470000014040B310B5044690F80A
:1030A0003D30F3B1022384F83D30214651F8040B42
:1030B000FFF78EFF012384F8463084F83E3084F811
:1030C0003F3084F8403084F8413084F8423084F84E
:1030D000433084F8443084F8453084F83D30002093
:1030E00010BD80F83C30FEF7ADFDDBE701207047F6
:1030F00010B4846824F47F4C42EA03220A4342EA73
:103100000C0282605DF8044B704790F83C30012B54
:1031100078D010B50446012380F83C30022380F8B3
:103120003D300268936823F47F4323F07703936074
:103130000B68602B4CD029D8402B54D00CD9502B85
:1031400022D1CA6849680068FFF70DFE5021206847
:10315000FFF730FE002005E0202B0DD009D9302BE1
:103160000AD00120012384F83D30002384F83C304C
:1031700010BD0BB1102B05D119462068FFF71AFEC0
:103180000020EFE70120EDE70120EBE7B3F5805FDA
:1031900034D0B3F5005F0CD1CB684A688968006809
:1031A000FFF7A6FF2268936843F4804393600020F2
:1031B000D8E7702B24D1CB684A6889680068FFF78C
:1031C00097FF2268936843F0770393600020C9E774
:1031D000CA6849680068FFF7D9FD60212068FFF7D9
:1031E000E9FD0020BEE7CA6849680068FFF7BBFD3B
:1031F00040212068FFF7DEFD0020B3E70020B1E7A3
:103200000120AFE70220704790F83C30012B3DD001
:1032100010B4012380F83C30022380F83D3003686D
:103220005A689C6822F0700C0A6842EA0C025A60E4
:103230000368174A93421AD0B3F1804F17D0A2F512
:103240007C42934213D002F5806293420FD002F584
:10325000806293420BD002F57842934207D002F588
:103260007052934203D0A2F59432934204D124F0D9
:1032700080044A6814439C60012380F83D30002399
:1032800080F83C3018465DF8044B704702207047C8
:10329000000001407047704738B504460268136962
:1032A00023F44053C1680B431361836802691343DD
:1032B00042691343C2691A430168CB6823F4164379
:1032C00023F00C031343CB600268536923F440736B
:1032D00081690B4353610368314A934206D002F57A
:1032E0008062934202D0FFF733FB01E0FFF740FB1F
:1032F000E369B3F5004F29D00021031849411B1899
:1033000041F10001C90041EA5371DB0018186368FC
:103310004FEA83024FEA937341F10001FCF770FF1B
:10332000204DA5FB00325109642303FB11031B014F
:103330003233A5FB03235B0903F0F00202EB011219
:1033400003F00F03216813448B6038BD002302187B
:1033500043EB0301121841F10001C90041EA527127
:10336000D200101841F10001626892185B41FCF72D
:1033700047FF0C4DA5FB00325109642303FB1103E9
:10338000DB003233A5FB03235B095A0002F4F87219
:1033900002EB011203F00703216813448B60D4E7AA
:1033A000001001401F85EB512DE9F84305460F46FB
:1033B00016469946DDF820802C68246837EA040315
:1033C0000CBF4FF0010C4FF0000CB4452DD1B8F1FB
:1033D000FF3FF1D0B8F1000F05D0FEF747FDA0EB9D
:1033E00009004045E8D92A6802F10C0353E8003F80
:1033F00023F4D0730C3242E800310029F3D12A685B
:1034000002F1140353E8003F23F00103143242E8B1
:1034100000310029F3D1202385F83D3085F83E3076
:10342000002385F83C30032000E00020BDE8F8834D
:1034300058B310B5044690F83D300BB3242384F8FC
:103440003D302268D36823F40053D3602046FFF751
:1034500023FF2268136923F49043136122685369A0
:1034600023F02A0353612268D36843F40053D360E6
:1034700000202064202384F83D3084F83E3010BDC5
:1034800080F83C30FEF732FCD8E7012070472DE988
:10349000F04182B01E4690F83D30DBB2202B54D173
:1034A00004460D469046002953D0002A53D090F888
:1034B0003C30012B51D0012380F83C3000230364C1
:1034C000212380F83D30FEF7D1FC0746A4F8248084
:1034D000A4F82680A368B3F5805F05D04FF00008FC
:1034E000002384F83C3012E0236913B14FF0000848
:1034F000F6E7A8460025F3E738F8023B2268C3F355
:1035000008035360E28C92B2013A92B2E284E38CF7
:103510009BB273B100963B46002280212046FFF704
:1035200043FFE0B9002DE7D015F8012B23685A605E
:10353000E8E700963B46002240212046FFF734FF93
:1035400078B9202384F83D3000E0022002B0BDE8C5
:10355000F0810120FAE70120F8E70220F6E70320D6
:10356000F4E70320F2E7000008B500F08DFC002826
:1035700009DB00F073FE00280EDB00F069FB002879
:1035800013DB002008BD1D230C4A0D490D482BF00C
:103590007DFC4FF0FF30F5E72423084A08490A482C
:1035A0002BF074FC6FF00100ECE72B23034A044975
:1035B00006482BF06BFC4FF0FF30E3E704520308A2
:1035C000145003084850030874500308A45003081B
:1035D00010B500F091FC002818DB00F07DFE0028FB
:1035E0001DDB00F06DFB002822DB1A4B19781A480E
:1035F0002BF04CFC194C0121204600F07BF80146D1
:10360000204600F023F900281BDB10BD3B23144AA1
:10361000144915482BF03AFC4FF0FF30F5E74223F0
:103620000F4A104911482BF031FC6FF00100ECE714
:1036300049230B4A0B490E482BF028FC6FF002007F
:10364000E3E75723064A07490A482BF01FFC6FF0AF
:103650000200DAE7380D002058510308780B0020EB
:10366000F051030814500308D0500308FC5003081D
:103670002C5103086C51030808B5FFF775FF0028AB
:1036800005DBFFF7A5FF00280ADB002008BD662345
:10369000084A094909482BF0F9FB4FF0FF30F5E7DC
:1036A0006D23044A044906482BF0F0FB6FF001003B
:1036B000ECE700BF185203081450030898510308A0
:1036C000C451030888B130B40446094D287800F18C
:1036D000010C85F800C020706460A160E260236185
:1036E000029B6361002030BC70474FF0FF30704791
:1036F0000C00002030B1036801EB410103EBC10174
:10370000486870477047D0B138B515460446002365
:10371000036043608360C36003614174027401EB22
:103720004101C80001F046FD206058B1284601F073
:1037300041FDE06048B1FF23A374002038BD4FF085
:10374000FF3070476FF00100F8E76FF00200F5E717
:10375000002837D070B50D460646002935D00C78C4
:10376000437CA34234D921461B482BF08FFB33689E
:1037700004EB440C03EBCC0E2C460FCCAEE80F0050
:1037800094E803008EE80300336803EBCC03AA68D7
:103790009A60336803EBCC03EA68DA60336803EBC2
:1037A000CC032A691A61336803EBCC036A695A6156
:1037B000336803EBCC0CDCF8101008482BF066FBE8
:1037C000002070BD4FF0FF3070474FF0FF30F8E73A
:1037D0006FF00100F5E700BF2C5203084C520308BC
:1037E00028B1034619B10A78417C914200D870474C
:1037F00010B4046802EB420C04EBCC00002144F846
:103800003C1041608160C160016141611B6803F847
:103810003C205DF8044B704760B171B1C27C7AB94D
:103820000A78417C91420ED9C27182710122C27420
:10383000002070474FF0FF3070474FF0FF30704767
:103840006FF0010070476FF00200704700B338B5A9
:103850000D460446F9B10A78437C93421ED9C37CD5
:10386000FBB990F91230017C8B421DDAC168C85C4B
:1038700090421CD001335BB2A374CA5494F9121065
:103880000C482BF003FB29462046FFF7C5FF38BD47
:103890004FF0FF3070474FF0FF30F8E76FF0010056
:1038A000F5E76FF00200F2E76FF00300EFE76FF06B
:1038B0000400ECE77052030860B310B50446C36817
:1038C00090F912209B5C417C994226D9C17C39BB7E
:1038D000002A28DB016803EB430301EBC301FFF778
:1038E0007FFF94F91210002901DC002010BD01397E
:1038F00049B2A1740D482BF0C9FA2168E26894F925
:103900001230D35C03EB430301EBC3012046FFF706
:1039100083FFEBE74FF0FF3070476FF00100E5E702
:103920006FF00200E2E76FF00300DFE77052030878
:1039300008B5034668B10846114668B11A685B7954
:1039400003EB430302EBC3035B6943B198470020D9
:1039500008BD4FF0FF30FBE74FF0FF30F8E76FF0A6
:103960000100F5E7002841D010B50446C279017A7C
:103970008A420ED10023C3744379427C934234D2ED
:10398000026803EB430302EBC303DB686BB39847A6
:103990002BE017482BF07AFA0123E3742268237A8C
:1039A00003EB430302EBC303196912482BF06EFAD1
:1039B000237A627C934207D2226803EB430302EB33
:1039C000C3031B6903B19847237A2371E3796371B9
:1039D000627C934207D2226803EB430302EBC303EA
:1039E0009B6803B19847E379237210BD704700BF0D
:1039F00080520308A452030818B108B505F0E4F991
:103A000008BD4FF0FF30704718B108B505F0E4F974
:103A100008BD4FF0FF307047F0B593B01B9E90B1DA
:103A200015461C46074681B14D609EB1CE611A9B7A
:103A3000CB600C624C62189B8B62199BCB620F604F
:103A400008461FF001F813B0F0BD01A81EF0B0FF4A
:103A500001A9E9E7004EE9E7272B020808B5064B64
:103A6000834200D008BD0329FCD10448FFF724FF9E
:103A700003482BF06DFAF5E7F40A0020780B0020DC
:103A800084A7050808B5044B186808F08FFF0348A1
:103A90002BF05EFA08BD00BF180D002094A70508A2
:103AA00070B51B4E306826F023FD1A4D28601A4968
:103AB00027F038FA6FF01D0300220521286805F071
:103AC00023F9164C204620F0C7FE4FF0FF31204668
:103AD00021F022FA1249204621F024FA0022214640
:103AE000286808F00DFB306826F002FD0D4D2860B7
:103AF0000D4927F017FA00231A460521286805F01A
:103B000003F900222146286808F0FAFA70BD00BFC8
:103B1000180D0020200D0020A8A70508500D00203A
:103B200068EA0508240D0020B8A70508F0B583B0A1
:103B30000546284E306826F0DBFC274C20602946DD
:103B400027F0F0F900231A460221206805F0DCF87E
:103B5000224D284620F080FE4FF0FF31284621F00C
:103B6000DBF91F49284621F0DDF9002229462068AB
:103B700008F0C6FA3068FFF73FFF80B20138194FEE
:103B8000B880306827F04EFE174D28600222394673
:103B900027F054FE0226009600230E222168286892
:103BA00006F0EAF9114C204620F056FE4FF60001CF
:103BB000204621F099F93146204621F089F901216A
:103BC000204621F08BF900222146286808F098FA57
:103BD00003B0F0BD180D0020280D0020680D002056
:103BE0008C3F06082C0D0020340D0020740D0020A1
:103BF00010B582B00C4B186826F022FA0B4C2060EE
:103C00000B4926F029FA1423009300230E220949B8
:103C10000968206806F0B0F900231A4609212068D7
:103C200005F072F802B010BD180D00201C0D002028
:103C30001C680508340D002008B50448FFF776FF1E
:103C4000FFF7D6FFFFF72CFF08BD00BFD0A7050880
:103C500038B51EF00FFD02F0B7FE03F08DFF164BD6
:103C6000186030B3F022872104F0E8FF124D0023E2
:103C70001A460921286805F047F80021286806F04F
:103C8000ADFB0E4C204620F0E7FD0021204621F040
:103C90005BF90021204621F0D9F84FF000012046C1
:103CA00021F0AAF800222146286808F029FA00200D
:103CB00038BD4FF0FF30FBE7180D00205C0D0020F1
:103CC00000B583B0104B0093104B002210491148EF
:103CD000FFF7F8FC00280EDB0E490F48FFF738FD10
:103CE00000280CDB0B4B19780C482BF0CFF8002088
:103CF00003B05DF804FB0A482BF02AF9ECE7094809
:103D00002BF026F9EEE700BF5D3A0008853A00087F
:103D1000393C0008380D0020780B002010A8050859
:103D2000D8A70508F4A70508032902D0062900D062
:103D3000704710B5044C02212046FFF7DBFC01461A
:103D40002046FFF783FD10BD780B002008B5024B1D
:103D5000186808F02BFE08BD800D002010B5084B38
:103D6000186826F06DF9074C2060074926F074F9B1
:103D700000231A460921206804F0C6FF10BD00BFC9
:103D8000800D0020840D002060EC030838B5114B35
:103D9000186826F0ADFB104C2060104927F05CF845
:103DA00001210F4B186827F04BF91E230022022136
:103DB000206804F0A9FF0B4D284620F04DFD4FF080
:103DC000FF31284621F0A8F800222946206808F093
:103DD00097F938BD800D0020900D002030A805080F
:103DE000880D0020AC0D002070B51C4E306826F008
:103DF0007FFB1B4C20601B4927F02EF800231A463E
:103E00000121206804F080FF174D284620F024FD92
:103E10004FF0FF31284621F07FF800222946206824
:103E200008F06EF9306826F063FB104D28601049E9
:103E3000206827F011F80121286827F001F90023F4
:103E40001A460321286804F05FFF00224FF4FA614C
:103E5000104621F0AFF8074B186070BD800D0020B0
:103E60008C0D002044A80508B80D0020880D002006
:103E700050A80508D00D002008B5FFF76FFFFFF729
:103E8000B3FFFFF783FF08BD38B51EF0F3FB02F068
:103E90009BFD03F071FE164B186030B3F0228721B2
:103EA00004F0CCFE124D00231A460921286804F0C4
:103EB0002BFF0021286806F091FA0E4C204620F0D6
:103EC000CBFC0021204621F03FF80021204620F0C5
:103ED000BDFF4FF00001204620F08EFF002221465A
:103EE000286808F00DF9002038BD4FF0FF30FBE7DF
:103EF000800D0020C40D002010B582B0074C084B87
:103F00000093084B002208492046FFF7DBFB2146BF
:103F10000648FFF71DFC002002B010BD940D0020E4
:103F2000293D00084D3D0008793E0008780B00202F
:103F3000042800D9704730B585B004460F4B03EB19
:103F4000001359680E4B186826F0ECFF013C6FF027
:103F5000450000FB04F40B4B1D68284604F011FFDC
:103F60000346002203920292C82201920094064A5C
:103F700006492846FFF750FD05B030BD100000206F
:103F80006C0E0020600E00209F8B0008180E002091
:103F900008B5074B1B78C01808D4042800D90020A6
:103FA000C0B2034B1870FFF7C3FF08BD0420F4E74D
:103FB000680E002010B5174B98420BD00446032919
:103FC00001D0062905D1144B9C421AD0134B9C42B8
:103FD0001CD010BD032905D00429FAD11048FFF7E1
:103FE0006BFCF6E70F4B1A780F4B03EB02130C4CEC
:103FF000197B2046FFF77EFB01462046FFF726FC93
:10400000E7E74FF0FF30FFF7C3FFDFE70120FFF7DF
:10401000BFFFDEE7F40A0020C80A0020200B0020C2
:10402000780B0020680E00201000002030B585B00D
:104030000E4B1D68284604F0A4FE04460C4B18687D
:1040400004F0CAFE002303930293C8230193323085
:1040500000902346074A08492846FFF7DDFC074B36
:10406000186808F0A3FC05B030BD00BF600E00204A
:10407000640E00209F8B0008D40D00205C0E0020F1
:10408000F0B583B0284E306826F032FA274C206015
:10409000274B596926F046FF00231A460221206863
:1040A00004F032FE234D284620F0D6FB4FF0FF31BE
:1040B000284620F031FF2049284620F033FF002217
:1040C0002946206808F01CF83068FFF795FC80B29C
:1040D00001381A4FB880306827F0A4FB184D2860CB
:1040E0000222394627F0AAFB0226009600230E2260
:1040F0002168286805F040FF124C204620F0ACFBF8
:104100004FF60001204620F0EFFE3146204620F019
:10411000DFFE0121204620F0E1FE00222146286832
:1041200007F0EEFF03B0F0BD5C0E00206C0E002027
:1041300010000020AC0E00208C3F0608700E0020FE
:10414000780E0020B80E0020F8B53B4C206803F034
:1041500013FD0646394D28602068FFF755FC84B2F0
:10416000374B186804F00DFE82B2A21A92B2143ACC
:1041700012B24621304604F061FD0A2300220E21CE
:10418000286804F0C1FD0021286806F027F92D4CAD
:10419000204620F061FB0021204620F0E1FE0022B5
:1041A0002146286807F0ACFF286803F0E5FC0646C6
:1041B000254F3860286804F007FE01464FF4AF72BF
:1041C000304604F03BFD3D68284604F005FE0146FC
:1041D000284604F0E4FC00222146386807F090FFEE
:1041E000002425E0184B186825F02AFF0546174BD8
:1041F000220103EB04118860995825F02DFF00235C
:104200001A460221284604F07FFD284604F0E4FD0A
:10421000C0F1320101EBD17004EB8401C1EBC101AB
:10422000490001EB600109B2284604F0B8FC0134F2
:10423000042CD7D9F8BD00BF5C0E0020640E00200E
:10424000780E0020A00E0020600E0020100000203C
:1042500008B5FFF715FFFFF777FF08BD38B51EF06B
:1042600009FA02F0B1FB03F087FC184B186048B361
:10427000F022872104F0E2FC144D00231A460921A4
:10428000286804F041FD0021286806F0A7F8104CCA
:10429000204620F0E1FA0021204620F055FE0021C2
:1042A000204620F0D3FD4FF00001204620F0A4FD71
:1042B00000222146286807F023FF06482AF048FE1E
:1042C000002038BD4FF0FF30FBE700BF5C0E002040
:1042D000940E002060A8050810B582B0074C084B6A
:1042E0000093084B002208492046FFF7EBF92146CE
:1042F0000648FFF72DFA002002B010BD7C0E00200A
:10430000B53F00082D40000851420008780B0020FE
:1043100000207047002800F0C58010B5044683686F
:104320007BB3827912B10268013202609847E37967
:10433000B0EBD31F13D01A4603F03F03013303F051
:104340003F0363F30502E271022B0CD9D3B260F391
:10435000C713E371DBB26FF30503E37103E0E379A5
:104360006FF30503E371A379042B0AD8DFE803F0A8
:10437000031731688000E379C3F38012B2EBD31FD7
:1043800000D010BD00236371236001232371A3714A
:10439000E368002BF5D0002120469847F1E7E37948
:1043A000C3F38012B2EBD31F06D001236371002345
:1043B00023600223A371E4E72368C82BE1D9052316
:1043C0006371236A13B10521204698470423A37122
:1043D000D7E7E379C3F38012B2EBD31F0AD0236887
:1043E0003C2BCED92379012B18D0022B1FD00023D0
:1043F000A371C6E700236371E36813B1002120466F
:104400009847237901332371636913B10221204650
:104410009847002323600323A371B2E7032363714A
:10442000A369002BE3D0032120469847DFE704234C
:104430006371E369002BDAD0042120469847D6E760
:10444000E379C3F38012B2EBD31F9AD001236371D7
:10445000236913B101212046984723683B2B04D8D8
:10446000002323600223A3718BE70023A37188E755
:10447000E379C3F38012B2EBD31F09D00123637138
:10448000236913B10121204698470023A37178E7DF
:1044900006236371636A002B3FF473AF0621204645
:1044A00098476EE77047B0B170B50E4615460446A2
:1044B000A2B12C2200212AF097FCE37966F386133F
:1044C000E371A560A847E37960F3C713E371204661
:1044D000FFF71EFF70BD4FF0FF3070474FF0FF3009
:1044E000F8E740B152B106290BD8023100EB810147
:1044F0004A60002070474FF0FF3070474FF0FF30A8
:1045000070476FF0010070470A4B1968024650B1BE
:104510000B461BB1934209D09B6AFAE79162054BA7
:104520001A60002070474FF0FF3070474FF0FF30A7
:10453000704700BFC40E002010B5054B1C6803E097
:104540002046FFF7E7FEA46A002CF9D110BD00BF9A
:10455000C40E002030B108B539B14AB1006800F08E
:10456000A1F808BD4FF0FF3070474FF0FF30F8E77B
:104570004FF0FF30F5E730B108B539B14AB1006806
:1045800000F0AEF808BD4FF0FF3070474FF0FF303D
:10459000F8E74FF0FF30F5E720B108B5006800F00C
:1045A000BDF808BD4FF0FF30704758B169B1002A1F
:1045B0000EDD002B0FDD08B5016042608360FFF760
:1045C000EBFF08BD4FF0FF3070474FF0FF307047F2
:1045D0004FF0FF3070474FF0FF3070472DE9F0414A
:1045E00082B0CF18089E1644A8B30D4614468046E4
:1045F0002A238DF8073001220DF10701FFF7AAFFEA
:104600002B128DF800308DF801503B128DF80230DE
:104610008DF80370042269464046FFF7ACFF2B2358
:104620008DF8073001220DF107014046FFF792FF98
:1046300023128DF800308DF8014033128DF80230CE
:104640008DF80360042269464046FFF794FF00207E
:1046500002B0BDE8F0814FF0FF30F9E770B584B0EB
:104660001C462C238DF80F30C8B105460126009654
:104670003346FFF7B3FF32460DF10F012846FFF72F
:1046800069FFC4F307238DF80C308DF80D4002222A
:1046900003A92846FFF76FFF002004B070BD4FF05C
:1046A000FF30FAE780B170B50C4615460646036840
:1046B0006BB179B18AB183680BB100209847336838
:1046C00029462046984770BD4FF0FF3070474FF0A5
:1046D000FF30F8E74FF0FF30F5E74FF0FF30F2E73B
:1046E00080B170B50C461546064603686BB179B1CA
:1046F0008AB183680BB10120984733682946204668
:10470000984770BD4FF0FF3070474FF0FF30F8E72B
:104710004FF0FF30F5E74FF0FF30F2E72DE9F04FB3
:1047200085B0044643680BB10020984763680BB11D
:1047300001209847002C00F08A813A238DF80F3031
:1047400001220DF10F012046FFF7ACFF05268DF881
:104750000060012269462046FFF7C2FFC5238DF89D
:104760000F3001220DF10F012046FFF79BFF1A23A6
:104770008DF80030012269462046FFF7B1FF36234D
:104780008DF80F3001220DF10F012046FFF78AFF4F
:104790004FF000058DF80050012269462046FFF7D2
:1047A0009FFFB2238DF80F3001220DF10F0120463B
:1047B000FFF778FF8DF800608DF801608DF80250EA
:1047C0004FF0330A8DF803A08DF804A032466946F5
:1047D0002046FFF785FFB7238DF80F3001220DF13A
:1047E0000F012046FFF75EFF8DF800600122694649
:1047F0002046FFF775FFBB238DF80F3001220DF126
:104800000F012046FFF74EFF4FF03F038DF80030B9
:10481000012269462046FFF763FFC0238DF80F3061
:1048200001220DF10F012046FFF73CFF2C238DF8EC
:104830000030012269462046FFF752FFC2238DF85F
:104840000F3001220DF10F012046FFF72BFF01254C
:104850008DF800502A4669462046FFF741FFC323E2
:104860008DF80F302A460DF10F012046FFF71AFF91
:104870000F278DF800702A4669462046FFF730FF63
:10488000C4238DF80F302A460DEB07012046FFF7B1
:1048900009FF20238DF800302A4669462046FFF79D
:1048A0001FFFC6238DF80F302A460DEB0701204667
:1048B000FFF7F8FE8DF800702A4669462046FFF79C
:1048C0000FFF6FF02F088DF80F802A460DEB0701C0
:1048D0002046FFF7E7FEA4238DF80030A1238DF8D2
:1048E0000130022269462046FFF7FAFEE8238DF8E0
:1048F0000F302A460DEB07012046FFF7D3FE4FF09D
:1049000003018DF800102A4669462046FFF7E8FEAD
:10491000E9238DF80F302A460DEB070001462046AB
:10492000FFF7C0FE09278DF800708DF801704FF079
:10493000080B8DF802B0032269462046FFF7D0FE2F
:10494000E0238DF80F302A460DF10F000146204676
:10495000FFF7A8FE8DF800808DF801608DF80270D9
:104960008DF803708DF804B04FF014098DF80590A0
:104970004FF028088DF806808DF807A04FF03F0211
:104980008DF8082007238DF809304FF0130A8DF8B1
:104990000AA08DF80B908DF80C8030238DF80D3027
:1049A0000E2269462046FFF79BFEE1238DF80F306B
:1049B0002A460DF10F0001462046FFF773FE6FF007
:1049C0002F038DF800308DF801608DF802708DF89E
:1049D00003708DF804B04FF003018DF80510242307
:1049E0008DF8063032238DF807308DF808303B23E0
:1049F0008DF809308DF80A908DF80BA08DF80C8099
:104A00002F238DF80D300E2269462046FFF768FEF1
:104A100021238DF80F302A460DF10F012046FFF7B4
:104A200041FE11238DF80F302A460DF10F0120466B
:104A3000FFF738FE29238DF80F302A460DF10F01BC
:104A40002046FFF72FFE002005B0BDE8F08F4FF0A5
:104A5000FF30F9E740B108B5016042608360029B16
:104A6000C360FFF75BFE08BD4FF0FF30704760B1D9
:104A700010B5044643685BB18078003818BF012048
:104A8000984701236370002010BD4FF0FF3070473E
:104A90004FF0FF30F8E758B110B50446436853B102
:104AA0008078B0FA80F0400998470020607010BD0F
:104AB0004FF0FF3070474FF0FF30F8E730B108B5E6
:104AC000426832B1FFF7E7FF002008BD4FF0FF302A
:104AD00070474FF0FF30F8E728B108B581704260A9
:104AE000FFF7ECFF08BD4FF0FF307047EFF3058391
:104AF0002BB9064B186828B901221A6070476FF06D
:104B0000050070474FF0FF30704700BF6015002070
:104B1000EFF3058373B90A4B1B68012B0DD110B558
:104B20000024084BDC77064B02221A6001F0CCF916
:104B3000204610BD6FF0050070474FF0FF30704702
:104B40006015002000ED00E0F0B587B0002405946A
:104B5000EFF305847CBB70B32AB31568936903B97E
:104B600018235C1E372C4AD8546814F0010F48D122
:104B7000566976B14FEA960C946834B1D768B7F5A8
:104B8000936F02D3176907B1C6B92CB14FF0FF3448
:104B90000EE04FF0800CEFE7D4688CB9146994B143
:104BA0004FF0FF3404E01546002418234FF0800C2A
:104BB000012C0AD0ACB1059807B0F0BD0124F7E78D
:104BC0004FF0FF34F4E70024F2E714699268029290
:104BD000019400930B466246294601F003F90590C3
:104BE000E9E705AA019200930B461FFA8CF22946C9
:104BF00001F035F90128DED000230593DBE7002022
:104C0000DAE70020D8E708B5EFF3058333B908B930
:104C1000002008BD01F0C4FA0020FAE76FF005009B
:104C2000F7E770B5EFF30583002B3FD1044600B1E1
:104C3000436813F0010600D0012613F0080F38D1A5
:104C40004CB3A16811B1E3684F2B19D899B14FF05B
:104C5000FF334BBB1EB3042000F099FD05462DB178
:104C600004B124682146284600F0C2FEFDB1F6B129
:104C700045F001051BE0E3687BB14FF0FF33E8E747
:104C800026B1042000F08EFD0546E8E7012000F083
:104C900089FD0546E3E70023DBE70023D9E7012090
:104CA00000F075FD0546DAE70025DFE70025284618
:104CB00070BD0025FBE70000034B0360034B0B6056
:104CC00080231360704700BFC8100020C80E00206A
:104CD000034B0360034B0B604FF48073136070470A
:104CE000681900206415002000F1080343604FF0AC
:104CF000FF328260C36003610023036070470023BA
:104D00000361704743684B609A688A60516099609C
:104D10000861036801330360704730B40D68B5F172
:104D2000FF3F11D000F108031C465B681A68AA42D5
:104D3000FAD963684B6099608C60616008610368B0
:104D40000133036030BC70470469F2E703694168CE
:104D500082688A60416851605A68824206D00022A7
:104D600002611A68013A1A601868704782685A60CE
:104D7000F5E7000082B0002301930D4B1B68B3F1EF
:104D8000FF3F08D04FF0500383F31188BFF36F8FBC
:104D9000BFF34F8FFEE74FF0500383F31188BFF34B
:104DA0006F8FBFF34F8F019B002BFCD002B0704779
:104DB0006000002008480068006880F308884FF011
:104DC000000080F3148862B661B6BFF34F8FBFF363
:104DD0006F8F00DF00BF000008ED00E0DFF80C007F
:104DE000016841F4700101607047000088ED00E047
:104DF0004FF0807340F8043C21F0010140F8081C9A
:104E0000054B40F80C3C40F8202C6FF0020340F8B2
:104E1000243C4438704700BF754D00080000000076
:104E2000074B19680868B0E8F04F80F30988BFF3B2
:104E30006F8F4FF0000080F311887047AFF3008050
:104E4000685A00204FF0500383F31188BFF36F8F2F
:104E5000BFF34F8F0B4A136801331360012B00D04F
:104E600070474FF0E023D3F8043D13F0FF0FF7D065
:104E70004FF0500383F31188BFF36F8FBFF34F8F51
:104E8000FEE700BF60000020094B1B6843B94FF0EC
:104E9000500383F31188BFF36F8FBFF34F8FFEE78B
:104EA000013B034A13600BB983F31188704700BFBD
:104EB0006000002000000000000000000000000072
:104EC000EFF30980BFF36F8F154B1A681EF0100FB8
:104ED00008BF20ED108A20E9F04F10602DE909008D
:104EE0004FF0500080F31188BFF34F8FBFF36F8FE7
:104EF00001F07CF94FF0000080F3118809BC1968BB
:104F00000868B0E8F04F1EF0100F08BFB0EC108A30
:104F100080F30988BFF36F8F704700BFAFF3008045
:104F2000685A002008B54FF0500383F31188BFF38F
:104F30006F8FBFF34F8F01F02BF828B14FF0E023B4
:104F40004FF08052C3F8042D002383F3118808BD6D
:104F50004FF0E022002313619361054B1B68054964
:104F6000A1FB03139B09013B5361072313617047A6
:104F700000000020D34D62104FF0E023D3F8002D45
:104F80003D4B9A421CD04FF0E023D3F8002D3B4B11
:104F90009A421ED030B583B0394B1A78D2B2019202
:104FA000FF221A701B78DBB28DF803309DF80330B6
:104FB00003F05003334A1370334B07221A601BE08F
:104FC0004FF0500383F31188BFF36F8FBFF34F8F00
:104FD000FEE74FF0500383F31188BFF36F8FBFF3E9
:104FE0004F8FFEE7284A1368013B13609DF803309A
:104FF0005B00DBB28DF803309DF8033013F0800FB7
:10500000F0D1214B1B68032B08D04FF0500383F3E2
:105010001188BFF36F8FBFF34F8FFEE71B021A4A51
:10502000136003F4E0631360019BDBB2144A137056
:105030004FF0E024D4F8203D43F47003C4F8203D41
:10504000D4F8203D43F07043C4F8203DFFF780FFC3
:1050500000250E4B1D60FFF7C1FED4F8343F43F02E
:105060004043C4F8343FFFF7A5FE01F0BFF8FFF757
:1050700081FE284603B030BD71C20F4170C20F419E
:1050800000E400E0001E0020041E0020600000205C
:10509000EFF305830F2B0FD9114A9B5CDBB2114A4A
:1050A00012789A4208D94FF0500383F31188BFF366
:1050B0006F8FBFF34F8FFEE74FF0E023D3F80C3D27
:1050C00003F4E063084A1268934208D94FF0500392
:1050D00083F31188BFF36F8FBFF34F8FFEE77047E5
:1050E000F0E300E0001E0020041E0020124A12F02F
:1050F000070F1ED0D11D21F00701C1F570531344D5
:105100000A460E480260002141601344083B23F028
:1051100007030B48036059601960991A51601360C6
:10512000084B1960084B1960084B4FF000421A6099
:1051300070474FF47053E4E70C1E0020205A002003
:10514000081E0020145A0020105A00200C5A00207B
:10515000164B1A461B688342FBD3516802EB010CC5
:10516000844509D0416800EB010C634509D0036018
:10517000904219D010607047406801445160104659
:10518000F0E710B40A4C2468A3420BD05B681944C2
:10519000416013681B680360904200D010605DF8A6
:1051A000044B70470460F7E7704700BF205A0020A7
:1051B000081E002070B5054600F0DCFE364B1B686B
:1051C000A3B1364B1B681D424ED135B1083515F0E1
:1051D000070F02D025F007050835002D46D0304BCB
:1051E0001B68AB4251D32F4A146804E0FFF77EFFDF
:1051F000E7E722461C466368AB4202D22368002BD5
:10520000F7D1254B1B68A34241D0166808362368A6
:10521000136063685B1B102B10D9601910F0070F27
:1052200008D04FF0500383F31188BFF36F8FBFF3A3
:105230004F8FFEE743606560FFF78AFF6268184999
:105240000B689B1A0B60184909688B4201D21649FA
:105250000B60124B1B681343636000232360134AE7
:1052600013680133136002E0002600E0002600F01E
:105270001BFF16F0070F0CD04FF0500383F311887B
:10528000BFF36F8FBFF34F8FFEE70026EFE70026D7
:10529000EDE7304670BD00BF081E00200C5A00200C
:1052A000105A0020205A0020145A0020185A0020BA
:1052B000002834D038B50446A0F1080550F8043C65
:1052C000174A1268134208D14FF0500383F3118834
:1052D000BFF36F8FBFF34F8FFEE750F8081C41B14B
:1052E0004FF0500383F31188BFF36F8FBFF34F8FDD
:1052F000FEE723EA020340F8043C00F03BFE54F8CA
:10530000041C084A13680B4413602846FFF720FF6B
:10531000054A13680133136000F0C6FE38BD7047BC
:105320000C5A0020105A00201C5A002010B50446C8
:10533000FFF788FDA26BE36B9A4204D00024FFF7CD
:10534000A3FD204610BD0124F9E710B50446FFF780
:1053500079FDA36B23B90124FFF796FD204610BD0C
:105360000024F9E770B504461546866B026C5AB9FD
:1053700003681BB100200136A66370BD806801F090
:1053800063F80023A360F6E76DB94068FBF7BAF84D
:10539000226C636813446360A268934219D3236844
:1053A00063602846E7E7C068FBF7ACF8226C51421F
:1053B000E3689B1AE3602268934202D2A3680B441D
:1053C000E360022D01D00020D5E726B1013E002088
:1053D000D1E72846CFE70020CDE70346026C6AB14B
:1053E00010B50846D9681144D9609C68A14201D320
:1053F0001968D960D968FBF785F810BD704738B5D2
:105400000546FFF71FFD95F8454064B201E0013CF9
:1054100064B2002C0ADD6B6A43B105F1240000F090
:1054200069FF0028F3D000F0F9FFF0E7FF2385F8CB
:105430004530FFF729FDFFF705FD95F8444064B2BC
:1054400001E0013C64B2002C0ADD2B6943B105F197
:10545000100000F04FFF0028F3D000F0DFFFF0E76E
:10546000FF2385F84430FFF70FFD38BD38B5E0B1B4
:105470000D460446FFF7E6FC2368E26B216C01FB56
:105480000230A0600020A0636360013A02FB013398
:10549000E360FF2384F8443084F84530FDB9236984
:1054A00063B9FFF7F1FC012038BD4FF0500383F3DF
:1054B0001188BFF36F8FBFF34F8FFEE704F1100029
:1054C00000F018FF0028ECD04FF0E0234FF080529E
:1054D000C3F8042DBFF34F8FBFF36F8FE1E704F1E3
:1054E0001000FFF701FC04F12400FFF7FDFBD8E7F3
:1054F00038B51D46049C0B4649B92460E06323641B
:1055000001212046FFF7B2FF84F84C5038BD2260DD
:10551000F4E740B94FF0500383F31188BFF36F8F66
:10552000BFF34F8FFEE710B584B01C46844653B1DD
:1055300092B189B94FF0500383F31188BFF36F8F95
:10554000BFF34F8FFEE74FF0500383F31188BFF393
:105550006F8FBFF34F8FFEE76AB150230393039B16
:10556000502B13D04FF0500383F31188BFF36F8F8C
:10557000BFF34F8FFEE70029EFD04FF0500383F3C6
:105580001188BFF36F8FBFF34F8FFEE7039B01239B
:1055900084F8463000949DF818306046FFF7A8FF65
:1055A000204604B010BD40B94FF0500383F311887A
:1055B000BFF36F8FBFF34F8FFEE7F0B583B00D469B
:1055C0001446064601FB00F05030FFF7F3FD074696
:1055D00050B1002380F846300090234600F150027D
:1055E00029463046FFF784FF384603B0F0BDF0B5DA
:1055F00085B0019288B10F461D460446B1B1022D17
:1056000020D1E36B012B1DD04FF0500383F31188A1
:10561000BFF36F8FBFF34F8FFEE74FF0500383F35D
:105620001188BFF36F8FBFF34F8FFEE7036C002B22
:10563000E5D04FF0500383F31188BFF36F8FBFF3B2
:105640004F8FFEE700F0F0FE064658B9019B002B95
:1056500048D04FF0500383F31188BFF36F8FBFF32F
:105660004F8FFEE700263DE02A4639462046FFF7E9
:1056700079FE636A7BB948B14FF0E0234FF0805266
:10568000C3F8042DBFF34F8FBFF36F8FFFF7FCFB01
:10569000012005B0F0BD04F1240000F02BFE00282D
:1056A000F4D04FF0E0234FF08052C3F8042DBFF345
:1056B0004F8FBFF36F8FE9E7FFF7E6FB0020E8E7C6
:1056C00002A800F05DFE012619E0002384F84430B2
:1056D00021E0002384F8453023E02046FFF78FFEC9
:1056E00000F0E2FCFFF7AEFBA26BE36B9A42BBD388
:1056F000022DB9D0019B002BDED0002EE0D0FFF7A9
:10570000C3FB00F037FCFFF79DFB94F8442052B236
:10571000B2F1FF3FD9D094F8452052B2B2F1FF3F29
:10572000D7D0FFF7B1FB01A902A800F035FED8B928
:105730002046FFF7FBFD0028CFD0019904F11000AF
:1057400000F0A4FD2046FFF75AFE00F0ADFC002853
:10575000C8D14FF0E0234FF08052C3F8042DBFF3BF
:105760004F8FBFF36F8FBDE72046FFF748FE00F075
:105770009BFC00208DE748B108B5002181600160E5
:10578000C1600B460A46FFF732FF08BD704710B5EF
:10579000024600210120FFF706FF0446FFF7EBFF5A
:1057A000204610BD10B582B00B4600900022114675
:1057B0000120FFF7AEFE0446FFF7DDFF204602B0F2
:1057C00010BD2DE9F84390B10F4616461C4605461C
:1057D000B1B1022C20D1EB6B012B1DD04FF0500347
:1057E00083F31188BFF36F8FBFF34F8FFEE74FF046
:1057F000500383F31188BFF36F8FBFF34F8FFEE722
:10580000036C002BE5D04FF0500383F31188BFF3F6
:105810006F8FBFF34F8FFEE7FFF73AFCEFF311896D
:105820004FF0500383F31188BFF36F8FBFF34F8F97
:10583000AA6BEB6B9A4206D3022C04D0002089F3AA
:105840001188BDE8F88395F845804FFA88F8AB6B6E
:10585000224639462846FFF785FDB8F1FF3F06D0BE
:1058600008F101035BB285F845300120E7E76B6A78
:105870000BB90120E3E705F1240000F03BFD18B16E
:1058800026B101203060DAE70120D8E70120D6E711
:10589000F0B585B0019290B10F460446C1B100F059
:1058A000C3FD064600BB019B002B5ED04FF05003AA
:1058B00083F31188BFF36F8FBFF34F8FFEE74FF075
:1058C000500383F31188BFF36F8FBFF34F8FFEE751
:1058D000036C002BE3D04FF0500383F31188BFF328
:1058E0006F8FBFF34F8FFEE700263EE0394620461C
:1058F000FFF773FD013DA563236923B9FFF7C4FAE0
:10590000012005B0F0BD04F1100000F0F3FC002808
:10591000F4D04FF0E0234FF08052C3F8042DBFF3D2
:105920004F8FBFF36F8FE9E7FFF7AEFA0020E8E78C
:1059300002A800F025FD012621E0002384F8443070
:1059400029E0002384F845302BE02046FFF757FD7F
:1059500000F0AAFB09E02046FFF751FD00F0A4FB90
:105960002046FFF7F2FC00283FD1FFF76BFAA56B4A
:10597000002DBBD1019B002BD6D0002ED8D0FFF735
:1059800083FA00F0F7FAFFF75DFA94F844305BB25F
:10599000B3F1FF3FD1D094F845305BB2B3F1FF3F94
:1059A000CFD0FFF771FA01A902A800F0F5FC00289A
:1059B000D1D12046FFF7C9FC0028C6D0019904F1D7
:1059C000240000F063FC2046FFF719FD00F06CFB9B
:1059D0000028CAD14FF0E0234FF08052C3F8042DC5
:1059E000BFF34F8FBFF36F8FBFE7002089E7000041
:1059F0000023072B0CD8074A52F833200AB1013391
:105A0000F7E7044A42F8331002EBC30358607047CB
:105A1000704700BF285A002070B504460D46164650
:105A2000FFF710FA94F844305BB2B3F1FF3F0DD0AA
:105A300094F845305BB2B3F1FF3F0BD0FFF724FA87
:105A4000A36B5BB12046FFF7DAFC70BD002384F83E
:105A50004430EDE7002384F84530EFE7324629462D
:105A600004F1240000F02AFCECE70000084B1B685E
:105A70001B6823B9074B4FF0FF321A607047044B85
:105A80001B68DB68DB685A68024B1A60704700BF0E
:105A90006C5A0020145F00202DE9F04780460D4627
:105AA00017469946089EDDF824A00A9C9200A5217D
:105AB000206B29F099F9236B07F18042013A03EB3F
:105AC000820727F00707002D65D04FF0000CBCF1CE
:105AD0001F0F0BD815F80C2004EB0C0383F83420AF
:105AE00015F80C3013B10CF1010CF0E7002384F829
:105AF0005330372E00D93726E662E6650025256645
:105B0000201DFFF7FCF804F11800FFF7F8F82461F6
