:020000040800F2
:1000000000000220DD1C0008A9190008B119000831
:10001000B3190008B5190008B7190008000000005E
:100020000000000000000000000000001143000874
:10003000B919000800000000B1430008BB1900080E
:100040002D1D00082D1D00082D1D00082D1D000868
:100050002D1D00082D1D00082D1D00082D1D000858
:100060002D1D00082D1D00082D1D00082D1D000848
:100070002D1D00082D1D00082D1D00082D1D000838
:100080002D1D00082D1D00082D1D00082D1D000828
:100090002D1D00082D1D00082D1D00082D1D000818
:1000A0002D1D00082D1D00082D1D00082D1D000808
:1000B000D1190008E11900082D1D00082D1D0008A8
:1000C0002D1D00082D1D00082D1D00082D1D0008E8
:1000D0002D1D00082D1D00082D1D00082D1D0008D8
:1000E0002D1D00082D1D00082D1D00082D1D0008C8
:1000F0002D1D00082D1D00082D1D00082D1D0008B8
:100100002D1D00082D1D00082D1D00082D1D0008A7
:100110002D1D00082D1D00082D1D00082D1D000897
:100120002D1D00082D1D00082D1D00082D1D000887
:100130002D1D00082D1D00082D1D00082D1D000877
:100140002D1D00082D1D00082D1D00082D1D000867
:100150002D1D00082D1D00082D1D00082D1D000857
:100160002D1D00082D1D00082D1D00082D1D000847
:100170002D1D00082D1D00082D1D00080000000089
:080180002D1D00082D1D0008D3
:1001C00010B5054C237833B9044B13B10448AFF391
:1001D00000800123237010BD580A00200000000099
:1001E0002443030808B5034B1BB103490348AFF38D
:1001F000008008BD000000005C0A002024430308C2
:1002000053B94AB9002908BF00281CBF4FF0FF317D
:100210004FF0FF3000F074B9ADF1080C6DE904CE79
:1002200000F006F8DDF804E0DDE9022304B07047D1
:100230002DE9F047089D04468E46002B4DD18A4299
:10024000944669D9B2FA82F252B101FA02F3C2F1CC
:10025000200120FA01F10CFA02FC41EA030E94405D
:100260004FEA1C48210CBEFBF8F61FFA8CF708FB7E
:1002700016E341EA034306FB07F199420AD91CEB56
:10028000030306F1FF3080F01F81994240F21C8188
:10029000023E63445B1AA4B2B3FBF8F008FB1033D0
:1002A00044EA034400FB07F7A7420AD91CEB040405
:1002B00000F1FF3380F00A81A74240F207816444D5
:1002C000023840EA0640E41B00261DB1D44000235A
:1002D000C5E900433146BDE8F0878B4209D9002DBE
:1002E00000F0EF800026C5E9000130463146BDE848
:1002F000F087B3FA83F6002E4AD18B4202D38242B2
:1003000000F2F980841A61EB030301209E46002D60
:10031000E0D0C5E9004EDDE702B9FFDEB2FA82F2B5
:10032000002A40F09280A1EB0C014FEA1C471FFA13
:100330008CFE0126200CB1FBF7F307FB131140EAFA
:1003400001410EFB03F0884208D91CEB010103F1C7
:10035000FF3802D2884200F2CB804346091AA4B289
:10036000B1FBF7F007FB101144EA01440EFB00FE5D
:10037000A64508D91CEB040400F1FF3102D2A645C2
:1003800000F2BB800846A4EB0E0440EA03409CE761
:10039000C6F12007B34022FA07FC4CEA030C20FA0E
:1003A00007F401FA06F31C43F9404FEA1C4900FA2E
:1003B00006F3B1FBF9F8200C1FFA8CFE09FB1811AB
:1003C00040EA014108FB0EF0884202FA06F20BD91E
:1003D0001CEB010108F1FF3A80F08880884240F26E
:1003E0008580A8F102086144091AA4B2B1FBF9F0B2
:1003F00009FB101144EA014100FB0EFE8E4508D9AD
:100400001CEB010100F1FF346CD28E456AD9023831
:10041000614440EA0840A0FB0294A1EB0E01A14216
:10042000C846A64656D353D05DB1B3EB080261EB84
:100430000E0101FA07F722FA06F3F1401F43C5E95E
:10044000007100263146BDE8F087C2F12003D84094
:100450000CFA02FC21FA03F3914001434FEA1C47D6
:100460001FFA8CFEB3FBF7F007FB10360B0C43EAC8
:10047000064300FB0EF69E4204FA02F408D91CEB78
:10048000030300F1FF382FD29E422DD90238634476
:100490009B1B89B2B3FBF7F607FB163341EA034116
:1004A00006FB0EF38B4208D91CEB010106F1FF3865
:1004B00016D28B4214D9023E6144C91A46EA00465C
:1004C00038E72E46284605E70646E3E61846F8E6EE
:1004D0004B45A9D2B9EB020864EB0C0E0138A3E737
:1004E0004646EAE7204694E74046D1E7D0467BE718
:1004F000023B614432E7304609E76444023842E790
:10050000704700BF844641EA000313F003036DD136
:10051000403A41D351F8043B40F8043B51F8043BC6
:1005200040F8043B51F8043B40F8043B51F8043BCD
:1005300040F8043B51F8043B40F8043B51F8043BBD
:1005400040F8043B51F8043B40F8043B51F8043BAD
:1005500040F8043B51F8043B40F8043B51F8043B9D
:1005600040F8043B51F8043B40F8043B51F8043B8D
:1005700040F8043B51F8043B40F8043B51F8043B7D
:1005800040F8043B51F8043B40F8043B51F8043B6D
:1005900040F8043B403ABDD2303211D351F8043B0D
:1005A00040F8043B51F8043B40F8043B51F8043B4D
:1005B00040F8043B51F8043B40F8043B103AEDD2BC
:1005C0000C3205D351F8043B40F8043B043AF9D20D
:1005D000043208D0D2071CBF11F8013B00F8013BE0
:1005E00001D30B8803806046704700BF082A13D3ED
:1005F0008B078DD010F003038AD0C3F10403D21A05
:10060000DB071CBF11F8013B00F8013B80D331F838
:10061000023B20F8023B7BE7043AD9D3013A11F8B8
:10062000013B00F8013BF9D20B7803704B78437023
:100630008B78837060467047000000000000000067
:10064000A2EB0300704700BF02780B78012A28BF95
:100650009A42F5D16DE9044540EA0104CDE902670B
:100660006FF0000C4FEA447212B380EA010414F0F8
:10067000070F6AD100F0070420F0070004F003051B
:1006800021F007014FEAC505F0E8042314F0040F38
:10069000F1E804670CFA05F462EA040266EA04066B
:1006A0000AD063EA0403624667EA0407664603E089
:1006B000F0E80423F1E8046782FA4CF582EA0604C4
:1006C000A4FA8CF46CBB83FA4CF583EA0705A5FA0F
:1006D0008CF595B950E9022351E9026782FA4CF58D
:1006E00082EA0604A4FA8CF483FA4CF583EA07053F
:1006F000A5FA8CF52543DBD09CB92DBAB5FA85F463
:1007000024F0070427FA04F1DDE9026723FA04F371
:1007100003F0FF0001F0FF01FDE80445A0EB01003C
:10072000704724BAB4FA84F424F0070426FA04F1DA
:10073000DDE9026722FA04F202F0FF0001F0FF0196
:10074000FDE80445A0EB0100704714F0030F3CD115
:1007500010F0030428D150F8082B51F8083B82FA16
:100760004CF582EA0305A5FA8CF55DB950F8042C26
:1007700051F8043C82FA4CF582EA0305A5FA8CF59F
:10078000002DE8D02DBAB5FA85F424F0070423FA39
:1007900004F122FA04F202F0FF0001F0FF01FDE88B
:1007A0000445A0EB010070474FEAC40420F00300A9
:1007B00050F8082B21F0030151F8083B0CFA04F41F
:1007C00062EA040263EA0403C9E710F003041AD0E2
:1007D000A1EB040120F00300E40750F8042B06D03D
:1007E0000FD28B785FFAA2F4E41A06D12BB1CB7842
:1007F0005FFAB2F4E41A00D11BB920465DF8104B41
:10080000704701F1040150F8042BCC0721F00301DB
:1008100051F8043B48D824D222F07F4482FA4CF5A8
:1008200094EA1325A5FA8CF50AD165B951F8043B71
:1008300084EA0204B4EB036F0ED150F8042BEBE70B
:100840004FEA132355E035F07F454DD10878FDE898
:100850000445C0F1000070474FEA126203F0FF0345
:1008600047E002EA1C4482FA4CF594EA1345A5FAE3
:100870008CF50AD165B951F8043B84EA0204B4EB63
:10088000034F0CD150F8042BEBE74FEA134330E051
:1008900015EA1C4528D10B884FEA124229E04FEA9D
:1008A000124203EA1C4324E002F0FF0482FA4CF5F2
:1008B00094EA1365A5FA8CF50AD165B951F8043BA1
:1008C00084EA0204B4EB032F09D150F8042BEBE7C0
:1008D0004FEA13630DE015F0FF0F05D10B684FEAE7
:1008E000122223F07F4304E04FF00000FDE80445AE
:1008F000704712BA1BBA82FA4CF482EA0304A4FAD3
:100900008CF5B5FA85F402FA04F203FA04F34FEA1F
:100910001260FDE80445A0EB136070470000000082
:1009200000000000000000000000000000000000C7
:1009300000000000000000000000000000000000B7
:1009400090F800F06DE9024520F007016FF0000C0F
:1009500010F0070491F820F040F049804FF00004B7
:100960006FF00700D1E9002391F840F000F1080092
:1009700082FA4CF2A4FA8CF283FA4CF3A2FA8CF3CA
:100980004BBBD1E9022382FA4CF200F10800A4FA31
:100990008CF283FA4CF3A2FA8CF3E3B9D1E9042385
:1009A00082FA4CF200F10800A4FA8CF283FA4CF3BC
:1009B000A2FA8CF37BB9D1E9062301F1200182FA76
:1009C0004CF200F10800A4FA8CF283FA4CF3A2FA7C
:1009D0008CF3002BC6D0002A04BF04301A4612BA8A
:1009E000B2FA82F2FDE8024500EBD2007047D1E98D
:1009F000002304F00305C4F100004FEAC50514F01C
:100A0000040F91F840F00CFA05F562EA05021CBFEC
:100A100063EA050362464FF00004A9E70000000006
:100A200001F0FF01102A2BDB10F0070F08D010F89F
:100A3000013B013A8B422DD010F0070F42B3F6D1A3
:100A4000F0B441EA012141EA014122F007047FF0BC
:100A500000070023F0E80256083C85EA010586EA13
:100A6000010685FA47F5A3FA87F586FA47F6A5FA4F
:100A700087F68EB9EED1F0BC01F0FF0102F007025B
:100A800032B110F8013B013A83EA010313B1F8D106
:100A90000020704701387047002D06BF35460338E7
:100AA000073815F0010F07D1013015F4807F02BF20
:100AB000013015F4C03F0130F0BC0138704700BF71
:100AC00081F0004102E000BF83F0004330B54FEAFF
:100AD00041044FEA430594EA050F08BF90EA020F6C
:100AE0001FBF54EA000C55EA020C7FEA645C7FEAFF
:100AF000655C00F0E2804FEA5454D4EB5555B8BF22
:100B00006D420CDD2C4480EA020281EA030382EA92
:100B1000000083EA010180EA020281EA0303362D24
:100B200088BF30BD11F0004F4FEA01314FF4801CF7
:100B30004CEA113102D0404261EB410113F0004F09
:100B40004FEA03334CEA133302D0524263EB4303C0
:100B500094EA050F00F0A780A4F10104D5F1200E5E
:100B60000DDB02FA0EFC22FA05F2801841F10001B9
:100B700003FA0EF2801843FA05F359410EE0A5F18D
:100B800020050EF1200E012A03FA0EFC28BF4CF0BE
:100B9000020C43FA05F3C01851EBE37101F0004574
:100BA00007D54FF0000EDCF1000C7EEB00006EEB81
:100BB0000101B1F5801F1BD3B1F5001F0CD349080B
:100BC0005FEA30004FEA3C0C04F101044FEA445262
:100BD00012F5800F80F09A80BCF1004F08BF5FEAE9
:100BE000500C50F1000041EB045141EA050130BDC9
:100BF0005FEA4C0C404141EB0101013C28BFB1F5DB
:100C0000801FE9D291F0000F04BF01460020B1FA25
:100C100081F308BF2033A3F10B03B3F120020CDAF8
:100C20000C3208DD02F1140CC2F10C0201FA0CF0D6
:100C300021FA02F10CE002F11402D8BFC2F1200C3B
:100C400001FA02F120FA0CFCDCBF41EA0C019040F1
:100C5000E41AA2BF01EB0451294330BD6FEA04043A
:100C60001F3C1CDA0C340EDC04F11404C4F1200225
:100C700020FA04F001FA02F340EA030021FA04F337
:100C800045EA030130BDC4F10C04C4F1200220FA8E
:100C900002F001FA04F340EA0300294630BD21FACC
:100CA00004F0294630BD94F0000F83F4801306BF92
:100CB00081F480110134013D4EE77FEA645C18BF86
:100CC0007FEA655C29D094EA050F08BF90EA020F1D
:100CD00005D054EA000C04BF1946104630BD91EA15
:100CE000030F1EBF0021002030BD5FEA545C05D118
:100CF0004000494128BF41F0004130BD14F5800457
:100D00003CBF01F5801130BD01F0004545F0FE41CA
:100D100041F470014FF0000030BD7FEA645C1ABFFF
:100D2000194610467FEA655C1CBF0B46024650EA36
:100D3000013406BF52EA033591EA030F41F4002162
:100D400030BD00BF90F0000F04BF0021704730B5E8
:100D50004FF4806404F132044FF000054FF00001BD
:100D600050E700BF90F0000F04BF0021704730B57E
:100D70004FF4806404F1320410F0004548BF404253
:100D80004FF000013EE700BF42004FEAE2014FEAA8
:100D900031014FEA02701FBF12F07F4393F07F4F83
:100DA00081F06051704732F07F4208BF704793F086
:100DB0007F4F04BF41F40021704730B54FF4607499
:100DC00001F0004521F000411CE700BF50EA01029C
:100DD00008BF704730B54FF000050AE050EA010245
:100DE00008BF704730B511F0004502D5404261EBB5
:100DF00041014FF4806404F132045FEA915C3FF4F6
:100E0000D8AE4FF003025FEADC0C18BF03325FEA92
:100E1000DC0C18BF033202EBDC02C2F1200300FA43
:100E200003FC20FA02F001FA03FE40EA0E0021FA68
:100E300002F11444BDE600BF70B54FF0FF0C4CF456
:100E4000E06C1CEA11541DBF1CEA135594EA0C0F08
:100E500095EA0C0F00F0DEF82C4481EA030621EA43
:100E60004C5123EA4C5350EA013518BF52EA03357E
:100E700041F4801143F4801338D0A0FB02CE4FF030
:100E80000005E1FB02E506F00042E0FB03E54FF060
:100E90000006E1FB03569CF0000F18BF4EF0010E58
:100EA000A4F1FF04B6F5007F64F5407404D25FEA54
:100EB0004E0E6D4146EB060642EAC62141EA555107
:100EC0004FEAC52040EA5E504FEACE2EB4F1FD0C49
:100ED00088BFBCF5E06F1ED8BEF1004F08BF5FEAC7
:100EE000500E50F1000041EB045170BD06F0004679
:100EF00046EA010140EA020081EA0301B4EB5C0426
:100F0000C2BFD4EB0C0541EA045170BD41F480111D
:100F10004FF0000E013C00F3AB8014F1360FDEBF42
:100F2000002001F0004170BDC4F10004203C35DA1E
:100F30000C341BDC04F11404C4F1200500FA05F3A1
:100F400020FA04F001FA05F240EA020001F0004242
:100F500021F0004110EBD37021FA04F642EB0601B8
:100F60005EEA430E08BF20EAD37070BDC4F10C04E2
:100F7000C4F1200500FA04F320FA05F001FA04F2A6
:100F800040EA020001F0004110EBD37041F1000192
:100F90005EEA430E08BF20EAD37070BDC4F120059D
:100FA00000FA05F24EEA020E20FA04F301FA05F205
:100FB00043EA020321FA04F001F0004121FA04F2AD
:100FC00020EA020000EBD3705EEA430E08BF20EA7D
:100FD000D37070BD94F0000F0FD101F000464000B7
:100FE00041EB010111F4801F08BF013CF7D041EA39
:100FF000060195F0000F18BF704703F0004652003D
:1010000043EB030313F4801F08BF013DF7D043EA0D
:101010000603704794EA0C0F0CEA135518BF95EAC3
:101020000C0F0CD050EA410618BF52EA4306D1D14A
:1010300081EA030101F000414FF0000070BD50EA69
:10104000410606BF1046194652EA430619D094EAF3
:101050000C0F02D150EA013613D195EA0C0F05D1DD
:1010600052EA03361CBF104619460AD181EA030131
:1010700001F0004141F0FE4141F470014FF00000E9
:1010800070BD41F0FE4141F4780170BD70B54FF084
:10109000FF0C4CF4E06C1CEA11541DBF1CEA135504
:1010A00094EA0C0F95EA0C0F00F0A7F8A4EB0504E6
:1010B00081EA030E52EA03354FEA013100F08880DD
:1010C0004FEA03334FF0805545EA131343EA1263A6
:1010D0004FEA022245EA111545EA10654FEA00265B
:1010E0000EF000419D4208BF964244F1FD0404F514
:1010F000407402D25B084FEA3202B61A65EB030570
:101100005B084FEA32024FF480104FF4002CB6EB2C
:10111000020E75EB030E22BFB61A754640EA0C00AC
:101120005B084FEA3202B6EB020E75EB030E22BFEC
:10113000B61A754640EA5C005B084FEA3202B6EB2D
:10114000020E75EB030E22BFB61A754640EA9C00EC
:101150005B084FEA3202B6EB020E75EB030E22BFBC
:10116000B61A754640EADC0055EA060E18D04FEA7A
:10117000051545EA16754FEA06164FEAC30343EA1A
:1011800052734FEAC2025FEA1C1CC0D111F4801FE7
:101190000BD141EA00014FF000004FF0004CB6E7E0
:1011A00011F4801F04BF01430020B4F1FD0C88BF7F
:1011B000BCF5E06F3FF6AFAEB5EB030C04BFB6EB8A
:1011C000020C5FEA500C50F1000041EB045170BD7D
:1011D0000EF0004E4EEA113114EB5C04C2BFD4EBAA
:1011E0000C0541EA045170BD41F480114FF0000E2E
:1011F000013C90E645EA060E8DE60CEA135594EAAA
:101200000C0F08BF95EA0C0F3FF43BAF94EA0C0FAC
:101210000AD150EA01347FF434AF95EA0C0F7FF421
:1012200025AF104619462CE795EA0C0F06D152EA75
:1012300003353FF4FDAE1046194622E750EA410659
:1012400018BF52EA43067FF4C5AE50EA41047FF46A
:101250000DAF52EA43057FF4EBAE12E74FF0FF3CCF
:1012600006E000BF4FF0010C02E000BF4FF0010CA0
:101270004DF804CD4FEA410C7FEA6C5C4FEA430C19
:1012800018BF7FEA6C5C1BD001B050EA410C0CBF68
:1012900052EA430C91EA030F02BF90EA020F0020CA
:1012A000704710F1000F91EA030F58BF994208BF31
:1012B00090422CBFD8176FEAE37040F001007047EE
:1012C0004FEA410C7FEA6C5C02D150EA013C07D145
:1012D0004FEA430C7FEA6C5CD6D152EA033CD3D090
:1012E0005DF8040B704700BF8446104662468C468A
:1012F0001946634600E000BF01B5FFF7B7FF0028BD
:1013000048BF10F1000F01BD4DF808EDFFF7F4FFE5
:101310000CBF012000205DF808FB00BF4DF808ED70
:10132000FFF7EAFF34BF012000205DF808FB00BF93
:101330004DF808EDFFF7E0FF94BF012000205DF8B5
:1013400008FB00BF4DF808EDFFF7CEFF94BF01206A
:1013500000205DF808FB00BF4DF808EDFFF7C4FF63
:1013600034BF012000205DF808FB00BF4FEA410CAC
:101370007FEA6C5C02D150EA013C0AD14FEA430C8F
:101380007FEA6C5C02D152EA033C02D14FF00000CC
:1013900070474FF0010070474FEA410212F500120A
:1013A00015D211D56FF47873B3EB625212D94FEAAC
:1013B000C12343F0004343EA505311F0004F23FA96
:1013C00002F018BF404270474FF00000704750EAEB
:1013D000013005D111F0004008BF6FF000407047A8
:1013E0004FF00000704700BF08B502F051FA00B19D
:1013F00008BD02482CF0AAFFFAE700BF58430308D3
:1014000008B502F061FA28B10649074802F0F3F87E
:1014100020B108BD05482CF099FFF5E704482CF0F1
:1014200095FFF6E77C0C0020C40A002074430308F3
:101430009043030808B5FFF7D7FFFFF7E1FF08BDAA
:1014400008B50A464FF47A730146024801F055FB8D
:1014500008BD00BF300B002008B50246022102483B
:1014600000F016FE08BD00BF0008024008B50246A5
:101470000121024800F00CFE08BD00BF0018024028
:1014800008B502460221024800F002FE08BD00BF76
:101490000018024000B583B00E4B00930E4B0F4A6C
:1014A0000F49104802F08CFD00280DDBF0231A468E
:1014B0000C490D4802F02FFB002808DB0A4802F017
:1014C00021FB03B05DF804FB4FF0FF30F9E76FF04C
:1014D0000100F6E7811400086D1400085914000893
:1014E00041140008AC0A0020A00A002008B5012021
:1014F00002F001FEFBE7000008B522F0C9FF034837
:1015000002F0E0F8012002F0F6FDF6E7C40A002040
:1015100010B523482CF01AFFFFF7BCFF05F078FD4B
:1015200004F0A4FC1F4801F0F3FB0A2211461E48F8
:1015300001F0DCFFFFF77EFF20F0E0FA04F0BCFCD6
:101540004FF0FF310AF0BAFB0AF0CDFB0146174815
:101550002CF09AFE20F0D2FA04F0AEFC4FF0FF31EE
:101560000AF0ACFB044620F0C9FA04F0A5FC0246E0
:1015700021460F482CF088FE0E4802F0CAFD0E4BA3
:1015800018600E4A00210E4802F056FD0D4B1860FF
:101590000D4A00210D4802F04FFD0D4B186010BDA3
:1015A000A44303088C0B0020C40A0020C043030896
:1015B000DC4303085C440308D80A002014440308F1
:1015C000ED140008BC0A002038440308F914000890
:1015D000C00A002010B504460368B3F1804F04D060
:1015E0002368B3F1804F03D010BD02F05BFAF7E738
:1015F000012020F0EFFAF7E72DE9F0418AB000244E
:10160000059406940794089409940094364B1A6B39
:1016100042F004021A631A6B02F004020092009A6C
:1016200001941A6B42F080021A631A6B02F0800276
:101630000192019A02941A6B42F040021A631A6BEB
:1016400002F040020292029A03941A6B42F00202E4
:101650001A631A6B02F002020392039A04941A6B43
:1016600042F001021A631B6B03F001030493049B15
:10167000DFF87C80224642F20201404600F008FD7D
:101680001A4D22460121284600F002FD01220221C6
:10169000284600F0FDFC4FF4005305930127069700
:1016A0000794089405A9404600F000FC0223059326
:1016B000069707940326089605A9404600F0F6FB16
:1016C000059606970794089605A9284600F0EEFBB4
:1016D0004FF4D07305930694079405A9284600F0AB
:1016E000E5FB0AB0BDE8F081003802400018024076
:1016F0000008024008B50B480B4B03600B4B4360DE
:1017000000238360C3604FF48042026143618361C0
:10171000C361036200F0C2FC00B908BD00F040F8EC
:10172000FBE700BFDC0A002000540040A086010057
:1017300030B589B000230393049305930693079370
:101740000268144B9A4201D009B030BD00250195C2
:10175000114C236B43F002032363236B03F002035A
:101760000193019BC0230393122304930323069345
:101770000423079303A9094800F098FB0295236C02
:1017800043F400132364236C03F400130293029BBD
:10179000DAE700BF00540040003802400004024075
:1017A00072B6FEE700B595B03022002108A82CF0F3
:1017B00019FD002303930493059306930793019364
:1017C000214A116C41F080511164126C02F0805278
:1017D0000192019A02931D4B1A6842F480421A60EA
:1017E0001B6803F480430293029B012308934FF488
:1017F0008033099302220E924FF480030F93042347
:101800001093A82111911292139308A800F024FDBF
:10181000A8B90F23039302230493002305934FF4E5
:10182000A05306934FF480530793052103A800F0BB
:101830007FFF30B900F00CFF15B05DF804FBFFF737
:10184000AFFFFFF7ADFF00BF00380240007000405F
:1018500008B500F093FAFFF7A5FFFFF7CDFEFFF7FD
:1018600049FF00F00DF800F02BF900F0D3F900F07B
:101870005FF902F0B3FBFFF74BFE02F0C1FBFEE79E
:1018800008B50E480E4B03604FF48273436000238B
:101890008360C360036143614FF400728261102270
:1018A000C2610362436283620A23C36201F0C6F825
:1018B00000B908BDFFF774FFFBE700BF300B002045
:1018C00000380040F0B589B00023039304930593DA
:1018D000069307930268204B9A4201D009B0F0BDED
:1018E0000022009203F50033196C41F48041196421
:1018F000196C01F48041009100990192196B41F03B
:1019000004011963196B01F004010191019902921C
:101910001A6B42F002021A631B6B03F0020302937C
:10192000029B0823039302270497012605960325AB
:1019300006950524079403A9084800F0B7FA4FF468
:1019400080630393049705960695079403A90448BA
:1019500000F0ACFAC2E700BF0038004000080240C7
:101960000004024000B583B0002200920D4B596C78
:1019700041F480415964596C01F48041009100990F
:101980000192196C41F0805119641B6C03F0805373
:101990000193019B0F216FF0010000F02DFA03B0BD
:1019A0005DF804FB0038024008B500F099FFFEE73F
:1019B000FEE7FEE7FEE7FEE7704708B500F0F8F93E
:1019C00003F0AAFF012800D108BD02F023FDFBE7C8
:1019D00008B5024801F0E4F908BD00BF8C0B0020F7
:1019E00008B5024801F0DCF908BD00BFD40B0020A7
:1019F0000120704708B52CF03BFB162303604FF025
:101A0000FF3008BD08B54FF0FF31FFF7F3FFFEE7E9
:101A100070B50C461646002506E0AFF3008021465F
:101A200001F8010B01350C46B542F6DB304670BDBE
:101A300070B50C461646002504E014F8010B00F0C2
:101A40003DF90135B542F8DB304670BD4FF0FF304F
:101A500070474FF400534B600020704701207047DF
:101A60000020704710B503460C4A0D490D48006828
:101A700040B10C4800680344521A934206D8094A00
:101A8000136010BD0748084C0460F2E72CF0F0FA30
:101A90000C2303604FF0FF30F3E700BF000002208B
:101AA00000040000880B002050360120034AD2F8C1
:101AB000883043F47003C2F88830704700ED00E0CE
:101AC00000B587B00023029303930493059300931A
:101AD000019316484FF08042026044F29F12426028
:101AE00083603122C26003618023836101F07AFA4E
:101AF00090B94FF48053029302A90C4801F0ABFA5D
:101B000068B90023009301936946084801F022FB5D
:101B100040B907B05DF804FBFFF742FEE9E7FFF7C5
:101B20003FFEEEE7FFF73CFEF3E700BF8C0B002023
:101B300000B587B0002302930393049305930093A9
:101B400001931548154A026044F29F124260836077
:101B50000A22C26003618023836101F043FA90B9D5
:101B60004FF48053029302A90B4801F074FA68B94C
:101B70000023009301936946074801F0EBFA40B94E
:101B800007B05DF804FBFFF70BFEE9E7FFF708FE7F
:101B9000EEE7FFF705FEF3E7D40B0020000400405A
:101BA00000B583B00368B3F1804F05D0174A934264
:101BB00017D003B05DF804FB0022009203F50E334A
:101BC000196C41F0010119641B6C03F001030093CF
:101BD000009B05211C2000F00FF91C2000F044F9A7
:101BE000E7E7002201920A4B196C41F002011964E7
:101BF0001B6C03F002030193019B05211D2000F0E3
:101C0000FBF81D2000F030F9D3E700BF00040040CE
:101C10000038024008B50A480A4B03604FF4E1332C
:101C2000436000238360C36003610C2242618361CF
:101C3000C36101F0A3FB00B908BDFFF7B1FDFBE7ED
:101C40001C0C00200010014000B589B00023039354
:101C50000493059306930793026803F1804303F509
:101C600088339A4202D009B05DF804FB002101914B
:101C700003F594335A6C42F010025A645A6C02F025
:101C800010020192019A02911A6B42F001021A634A
:101C90001B6B03F001030293029B4FF4C063039399
:101CA00002230493032306930723079303A90248FF
:101CB00000F0FCF8D7E700BF0000024000B583B099
:101CC00001904FF6FF73012201A9034801F085FB43
:101CD000019803B05DF804FB1C0C0020DFF834D041
:101CE0000D480E490E4A002302E0D458C450043374
:101CF000C4188C42F9D30B4A0B4C002301E013604B
:101D00000432A242FBD3FFF7D1FE2CF0CBF9FFF750
:101D10009FFD70470000022000000020580A0020AC
:101D200044CF0308580A002050360120FEE7000087
:101D300010B504460E4B18784FF47A73B3FBF0F3EA
:101D40000C4A1068B0FBF3F000F09CF868B90F2C57
:101D500001D901200AE0002221464FF0FF3000F0B7
:101D60004BF8054B1C60002000E0012010BD00BFB7
:101D700004000020000000200800002008B50B4BE4
:101D80001A6842F400721A601A6842F480621A609B
:101D90001A6842F480721A60032000F01BF80F20CA
:101DA000FFF7C6FFFFF7DEFD002008BD003C024044
:101DB000034A1168034B1B780B441360704700BF44
:101DC000600C002004000020014B1868704700BF21
:101DD000600C0020074AD36823F4E0631B041B0C4B
:101DE000000200F4E060034343F0BF6343F40033B8
:101DF000D360704700ED00E000B5194BDB68C3F31A
:101E00000223C3F1070CBCF1040F28BF4FF0040CF0
:101E100003F1040EBEF1060F18D9033B4FF0FF3E4D
:101E20000EFA0CFC21EA0C0199400EFA03F322EAA7
:101E30000303194300280BDB0901C9B200F160401C
:101E400000F5614080F800135DF804FB0023E5E72E
:101E500000F00F000901C9B2024B1954F4E700BFAA
:101E600000ED00E014ED00E0002807DB00F01F02A9
:101E7000400901239340024A42F82030704700BFD6
:101E800000E100E00138B0F1807F0BD24FF0E02399
:101E90005861054AF02182F823100020986107223A
:101EA0001A6170470120704700ED00E000230F2BFE
:101EB00000F2E48070B582B060E085685E000324C3
:101EC000B44025EA0405CC68B4402C4384604568DE
:101ED00025EA02054C68C4F300129A402A43426086
:101EE0005AE0DC08083450F8246003F0070295003B
:101EF0000F22AA4026EA020E0A69AA4042EA0E020E
:101F000040F824205CE0072200E0002202FA0EF2F2
:101F10002A4302345A4D45F824205A4A94686FEAFD
:101F20000C0224EA0C054E6816F4801F01D04CEA1E
:101F30000405544CA560E46802EA04054E6816F4F2
:101F4000001F01D04CEA04054E4CE560646802EACB
:101F500004054E6816F4003F01D04CEA0405494CD4
:101F60006560246822404D6815F4803F01D04CEA3A
:101F70000402444C226001330F2B7DD801229A4089
:101F80000C6804EA020C32EA0404F4D14C6804F050
:101F90000304013C012C90D94A6802F00302032A91
:101FA00009D0C4685D000322AA4024EA02048A68BA
:101FB000AA402243C2604A6802F00302022A90D07B
:101FC00004684FEA430E032202FA0EF224EA0204E6
:101FD0004A6802F0030202FA0EF2224302604A68E3
:101FE00012F4403FC7D000220192274A546C44F4B7
:101FF00080445464526C02F480420192019A9C081D
:10200000A51C1F4A52F8255003F003024FEA820E26
:102010000F2202FA0EF225EA02051C4A90423FF412
:1020200074AF02F5806290421AD002F5806290424D
:1020300018D002F58062904216D002F5806290427C
:1020400014D002F58062904212D002F58062904274
:1020500010D002F5806290423FF455AF082255E758
:10206000012253E7022251E703224FE704224DE702
:1020700005224BE7062249E702B070BD704700BF5A
:1020800000380140003C014000380240000002409E
:102090000AB181617047090481617047002800F02E
:1020A000CC8070B5044690F83D30002B77D02423C7
:1020B00084F83D302268136823F00103136022681E
:1020C000136843F4004313602268136823F4004349
:1020D000136000F0E3FB62685A4B9A4264D85A4B93
:1020E00098428CBF00230123002B40F0A880574961
:1020F000A1FB00318B0C25686A6822F03F0242EA9E
:1021000091426A6021680A6A22F03F0266684D4D7A
:10211000AE424FD8013313430B622168CA6922F4DF
:102120004F4222F0FF026668464B9E424CD8431E47
:102130007600B3FBF6F3013340F6FC70034278D02F
:10214000C3F30B031343CB6121680B6823F0C00377
:10215000E269206A024313430B6021688B6823F411
:10216000034323F0FF032269E068024313438B60BB
:102170002168CB6823F0FF036269A069024313431F
:10218000CB602268136843F00103136000202064D1
:10219000202384F83D30206384F83E0070BD80F831
:1021A0003C30FFF7C5FA82E7294B98428CBF0023E9
:1021B000012399E74FF4967505FB03F3254DA5FB25
:1021C00003539B090133A6E7A368BBB9451E06EB81
:1021D000460CB5FBFCF50135C5F30B05B5FA85F5E5
:1021E0006D0945BBC3B9013806EB4603B0FBF3F3F9
:1021F0000133C3F30B0343F40043A3E7451E06EB8F
:10220000860C0CEB8C0CB5FBFCF50135C5F30B050E
:10221000B5FA85F56D09E4E7013806EB860303EBB3
:102220008303B0FBF3F30133C3F30B0343F44043E5
:1022300088E7042386E7012384E701207047012013
:10224000ACE700BFA08601007F841E0083DE1B4335
:10225000FF083D00D34D6210002800F0E08170B50A
:1022600082B00446036813F0010F3BD09F4B9B687C
:1022700003F00C03042B2CD09C4B9B6803F00C0345
:10228000082B21D06368B3F5803F4FD0B3F5A02F62
:1022900052D0964B1A6822F480321A601A6822F4DF
:1022A00080221A606368002B50D0FFF78DFD054631
:1022B0008E4B1B6813F4003F14D1FFF785FD401BC4
:1022C0006428F5D90320B1E1884B5B6813F4800FD3
:1022D000D8D0864B1B6813F4003F03D06368002BF3
:1022E00000F09F81236813F0020F54D07F4B9B684E
:1022F00013F00C0F3ED07D4B9B6803F00C03082BB2
:1023000033D0E368002B68D0794B01221A60FFF7C5
:102310005BFD0546754B1B6813F0020F54D1FFF7A8
:1023200053FD401B0228F5D903207FE16F4A136853
:1023300043F480331360B5E76C4B1A6842F4802293
:102340001A601A6842F480321A60ABE7FFF73CFD6E
:102350000546664B1B6813F4003FC3D0FFF734FDFE
:10236000401B6428F5D9032060E1604B5B6813F4DF
:10237000800FC6D15D4B1B6813F0020F03D0E368DA
:10238000012B40F05081594A136823F0F80321696A
:1023900043EAC1031360236813F0080F42D0636956
:1023A0006BB3534B0122C3F8802EFFF70DFD05469A
:1023B0004E4B5B6F13F0020F34D1FFF705FD401B4E
:1023C0000228F5D9032031E1484A136823F0F803C5
:1023D000216943EAC1031360DDE7454B00221A601F
:1023E000FFF7F2FC0546414B1B6813F0020FD2D0F9
:1023F000FFF7EAFC401B0228F5D9032016E13C4B0D
:102400000022C3F8802EFFF7DFFC0546374B5B6FD9
:1024100013F0020F06D0FFF7D7FC401B0228F5D9B6
:10242000032003E1236813F0040F77D02F4B1B6CBC
:1024300013F0805F33D1002301932C4B1A6C42F0D0
:1024400080521A641B6C03F080530193019B012599
:10245000284B1B6813F4807F23D0A368012B34D052
:10246000052B38D0214B1A6F22F001021A671A6F20
:1024700022F004021A67A368002B3DD0FFF7A4FCEA
:1024800006461A4B1B6F13F0020F46D1FFF79CFC58
:10249000801B41F288339842F3D90320C6E000251F
:1024A000D6E7144A136843F480731360FFF78CFC7B
:1024B0000646104B1B6813F4807FCED1FFF784FCD7
:1024C000801B0228F5D90320B0E0084A136F43F0BF
:1024D00001031367CFE7054B1A6F42F004021A6736
:1024E0001A6F42F001021A67C5E700BF00380240C8
:1024F0000000474200700040FFF766FC0646524B62
:102500001B6F13F0020F08D0FFF75EFC801B41F237
:1025100088339842F3D9032088E0EDB9A369002BF2
:1025200000F08380484A926802F00C02082A51D0D9
:10253000022B17D0454B00221A66FFF745FC0446D4
:10254000414B1B6813F0007F42D0FFF73DFC001B9E
:102550000228F5D9032069E03B4A136C23F080532D
:102560001364DBE7394B00221A66FFF72DFC0546A2
:10257000354B1B6813F0007F06D0FFF725FC401B8E
:102580000228F5D9032051E0E369226A1343626A05
:1025900043EA8213A26A5208013A43EA0243E26A1A
:1025A00043EA0263284A5360284B01221A66FFF768
:1025B0000BFC0446244B1B6813F0007F06D1FFF789
:1025C00003FC001B0228F5D903202FE000202DE09A
:1025D00000202BE0012B2BD01B4B5B6803F4800108
:1025E000E269914226D103F03F02216A8A4223D157
:1025F000616A47F6C0721A40B2EB811F1ED103F424
:102600004031A26A5208013AB1EB024F18D103F0EF
:102610007063E26AB3EB026F14D1002006E0012080
:102620007047012002E0012000E0002002B070BDF0
:102630000120FBE70120F9E70120F7E70120F5E79A
:102640000120F3E70120F1E7003802400000474293
:10265000014B0122DA6470470000474208B5314B54
:102660009B6803F00C03042B57D0082B57D12D4B3C
:102670005A6802F03F025B6813F4800F2AD0294B9E
:102680005968C1F3881C4FEA4C11B1EB0C006EEB9A
:102690000E0E4FEA8E1343EA90638101091A63EB31
:1026A0000E03DB0043EA5173C90011EB0C0C43F13C
:1026B0000003590200234FEA4C2041EADC51FDF7A8
:1026C0009FFD184B5B68C3F3014301335B00B0FB14
:1026D000F3F025E0134B5968C1F3881C4FEA4C1105
:1026E000B1EB0C006EEB0E0E4FEA8E1343EA9063D3
:1026F0008101091A63EB0E03DB0043EA5173C90041
:1027000011EB0C0C43F10003990200234FEA8C20DB
:1027100041EA9C51FDF774FDD3E7034800E003480C
:1027200008BD00BF0038024000127A000024F40007
:10273000002800F09B8070B50D4604464F4B1B6887
:1027400003F007038B4208D2CBB24C4A13701368D4
:1027500003F007038B4240F08B80236813F0020FD5
:1027600017D013F0040F04D0454A936843F4E053A4
:102770009360236813F0080F04D0414A936843F430
:10278000604393603E4A936823F0F003A1680B43D3
:102790009360236813F0010F32D06368012B21D0BE
:1027A0009A1E012A25D9364A126812F0020F61D00A
:1027B00033498A6822F0030213438B60FFF704FB5E
:1027C00006462F4B9B6803F00C036268B3EB820F45
:1027D00016D0FFF7F9FA801B41F288339842F0D9FE
:1027E000032042E0264A126812F4003FE0D10120A3
:1027F0003BE0234A126812F0007FD9D1012034E077
:102800001E4B1B6803F00703AB4207D9EAB21B4B10
:102810001A701B6803F00703AB422DD1236813F035
:10282000040F06D0164A936823F4E053E1680B4383
:102830009360236813F0080F07D0114A936823F4BC
:102840006043216943EAC1039360FFF707FF0C4B24
:102850009B68C3F303130B4AD35CD8400A4B186040
:102860000A4B1868FFF764FA002070BD012070471A
:102870000120FAE70120F8E70120F6E7003C0240DA
:10288000003802406C4403080000002008000020CB
:10289000014B1868704700BF0000002008B5FFF723
:1028A000F7FF044B9B68C3F38223034AD35CD840F1
:1028B00008BD00BF003802407C44030808B5FFF79C
:1028C000E7FF044B9B68C3F34233034AD35CD84011
:1028D00008BD00BF003802407C4403087047000078
:1028E00008B5064BDB6813F0800F00D108BDFFF779
:1028F000F5FF024B80229A73F8E700BF00380240D0
:102900002DE9F04782B00546884617461E46FFF778
:102910005BFA0A9B1B1A03EB0609FFF755FA82467E
:102920002B4B1B68C3F3CB3309FB03F301932B68D9
:102930009C6838EA04030CBF4FF0010C4FF0000C08
:10294000BC4540D0B6F1FF3FF1D0FFF73DFAA0EB18
:102950000A0048450AD2B9F1000F07D0019A02B126
:102960004A46019B013B01939146E0E72A68536880
:1029700023F0E00353606B68B3F5827F0BD0AB6A42
:10298000B3F5005F14D0012385F85130002385F89A
:102990005030032018E0AB68B3F5004F02D0B3F518
:1029A000806FECD12A68136823F040031360E6E7D8
:1029B0002A68136823F4005313602A68136843F4E9
:1029C00000531360DFE7002002B0BDE8F08700BFCE
:1029D0000000002010B584B00446164B1868164B52
:1029E000A3FB0030400D4FF47A7303FB00F003901B
:1029F0006368B3F5827F0BD0039BBBB1039B013BA4
:102A0000039323689B6813F0800FF5D100200EE03C
:102A100000920B46002280212046FFF771FF30B163
:102A2000636D43F020036365032000E0002004B0E1
:102A300010BD00BF00000020819F5E1600285AD004
:102A400010B50446436A33B94368B3F5827F05D0B5
:102A50000023C36102E00023036143610023A362FA
:102A600094F85130002B40D0022384F85130226872
:102A7000136823F040031360636803F48273A26851
:102A800002F404421343E26802F400621343226931
:102A900002F002021343626902F001021343A269C9
:102AA00002F400721343E26902F038021343226A0F
:102AB00002F080021343A26A02F400522168134319
:102AC0000B60638B03F00403626A02F0100221685A
:102AD00013434B602268D36923F40063D361002061
:102AE0006065012384F8513010BD84F850302046D1
:102AF000FEF7E8FEB8E7012070472DE9F04383B008
:102B00001D4690F85030012B00F0D18004468846D5
:102B10009146012380F85030FFF756F9074694F8A4
:102B20005160F6B2012E40F0AF80B8F1000F00F016
:102B3000AC80B9F1000F00F0A880032384F8513075
:102B400000236365C4F83080A4F83490A4F836906C
:102B5000A363A387E38763642364A368B3F5004F8B
:102B60001ED023681A6812F0400F03D11A6842F091
:102B700040021A60E368B3F5006F1CD0636813B1BC
:102B8000B9F1010F52D1226B236812781A73236BAB
:102B900001332363E38E9BB2013B9BB2E38645E0A6
:102BA0002268136823F0400313602268136843F41B
:102BB00080431360D5E7636813B1B9F1010F16D1F3
:102BC000226B23681288DA60236B02332363E38E5F
:102BD0009BB2013B9BB2E38609E0FFF7F5F8C01B0F
:102BE000A84202D3B5F1FF3F59D1002D59D0E38E51
:102BF0009BB2002B33D023689A6812F0020FECD0FE
:102C0000226B1288DA60236B02332363E38E9BB25C
:102C1000013B9BB2E386EAE7FFF7D6F8C01BA84268
:102C200002D3B5F1FF3F3ED1002D3ED0E38E9BB2E3
:102C3000ABB123689A6812F0020FEDD0226B1278C4
:102C40001A73236B01332363B4F836C01FFA8CFC6C
:102C50000CF1FF3C1FFA8CFCA4F836C0E6E73A46BC
:102C600029462046FFF7B6FE08B120236365A36816
:102C700033B901932368DA6801929B680193019B41
:102C8000636D13B9002600E00226012384F8513059
:102C9000002384F85030304603B0BDE8F0830326AB
:102CA000F3E70326F1E70326EFE70326EDE7022625
:102CB000F1E710B4036A046A24F001040462846931
:102CC00024F0F00C4CEA021223F00A030B43826159
:102CD00003625DF8044B704710B4046A24F01004DA
:102CE00004628469036A24F4704C4CEA023223F0D3
:102CF000A00343EA0113826103625DF8044B70474D
:102D0000836823F070030B4343F00703836070472D
:102D100090F83D30DBB2012B37D1022380F83D30F3
:102D20000268D36843F00103D3600368194A9342F1
:102D300020D0B3F1804F1DD0A2F57C42934219D030
:102D400002F58062934215D002F58062934211D061
:102D500002F5784293420DD002F57052934209D0A9
:102D6000A2F59432934205D01A6842F001021A602B
:102D7000002070479A6802F00702062A07D01A68F6
:102D800042F001021A6000207047012070470020C5
:102D9000704700BF000001407047704770477047A0
:102DA00010B5044603681A6912F0020F11D0DA68F0
:102DB00012F0020F0DD06FF002021A6101230377A7
:102DC00003689B6913F0030F70D0FFF7E6FF002341
:102DD000237723681A6912F0040F12D0DA6812F010
:102DE000040F0ED06FF004021A61022323772368C8
:102DF0009B6913F4407F5FD02046FFF7CEFF00238E
:102E0000237723681A6912F0080F12D0DA6812F0DB
:102E1000080F0ED06FF008021A610423237723688D
:102E2000DB6913F0030F4ED02046FFF7B6FF0023F7
:102E3000237723681A6912F0100F12D0DA6812F0A3
:102E4000100F0ED06FF010021A6108232377236849
:102E5000DB6913F4407F3DD02046FFF79EFF00233F
:102E6000237723681A6912F0010F03D0DA6812F091
:102E7000010F36D123681A6912F0800F03D0DA6887
:102E800012F0800F34D123681A6912F0400F03D07A
:102E9000DA6812F0400F32D123681A6912F0200F5D
:102EA00003D0DA6812F0200F30D110BDFFF774FFA5
:102EB0002046FFF773FF8AE72046FFF76DFF2046A5
:102EC000FFF76CFF9BE72046FFF766FF2046FFF702
:102ED00065FFACE72046FFF75FFF2046FFF75EFF88
:102EE000BDE76FF001021A612046FEF773FBC1E7F0
:102EF0006FF080021A61204600F073F9C3E76FF0AB
:102F000040021A612046FFF74AFFC5E76FF0200232
:102F10001A61204600F064F9C7E700000368304AF0
:102F2000904212D0B0F1804F0FD0A2F57C42904277
:102F30000BD002F58062904207D002F58062904289
:102F400003D002F57842904203D123F070034A681F
:102F50001343234A90422AD0B0F1804F27D0A2F5E4
:102F60007C42904223D002F5806290421FD002F54D
:102F7000806290421BD002F57842904217D002F551
:102F80007052904213D002F5806290420FD002F549
:102F9000806290420BD0A2F59832904207D002F5A1
:102FA0008062904203D002F58062904203D123F404
:102FB0004073CA68134323F080034A6913430360D4
:102FC0008B68C3620B688362054B984203D003F59C
:102FD0008063984201D10B69036301234361704709
:102FE0000000014040B310B5044690F83D30F3B105
:102FF000022384F83D30214651F8040BFFF78EFF81
:10300000012384F8463084F83E3084F83F3084F859
:10301000403084F8413084F8423084F8433084F8FA
:10302000443084F8453084F83D30002010BD80F8ED
:103030003C30FEF7B5FDDBE70120704710B4846833
:1030400024F47F4C42EA03220A4342EA0C028260E3
:103050005DF8044B704790F83C30012B78D010B5E8
:103060000446012380F83C30022380F83D3002689A
:10307000936823F47F4323F0770393600B68602BFE
:103080004CD029D8402B54D00CD9502B22D1CA680F
:1030900049680068FFF70DFE50212068FFF730FEF9
:1030A000002005E0202B0DD009D9302B0AD00120BB
:1030B000012384F83D30002384F83C3010BD0BB16F
:1030C000102B05D119462068FFF71AFE0020EFE704
:1030D0000120EDE70120EBE7B3F5805F34D0B3F5D5
:1030E000005F0CD1CB684A6889680068FFF7A6FFCB
:1030F0002268936843F4804393600020D8E7702BE4
:1031000024D1CB684A6889680068FFF797FF226876
:10311000936843F0770393600020C9E7CA68496861
:103120000068FFF7D9FD60212068FFF7E9FD002066
:10313000BEE7CA6849680068FFF7BBFD4021206808
:10314000FFF7DEFD0020B3E70020B1E70120AFE785
:103150000220704790F83C30012B3DD010B4012381
:1031600080F83C30022380F83D3003685A689C6840
:1031700022F0700C0A6842EA0C025A600368174A8F
:1031800093421AD0B3F1804F17D0A2F57C429342FC
:1031900013D002F5806293420FD002F58062934211
:1031A0000BD002F57842934207D002F57052934259
:1031B00003D0A2F59432934204D124F080044A68EB
:1031C00014439C60012380F83D30002380F83C309C
:1031D00018465DF8044B704702207047000001401C
:1031E0007047704738B504460268136923F44053AA
:1031F000C1680B4313618368026913434269134337
:10320000C2691A430168CB6823F4164323F00C0308
:103210001343CB600268536923F4407381690B4305
:1032200053610368314A934206D002F580629342AB
:1032300002D0FFF733FB01E0FFF740FBE369B3F592
:10324000004F29D00021031849411B1841F100010A
:10325000C90041EA5371DB00181863684FEA830222
:103260004FEA937341F10001FCF7CAFF204DA5FB23
:1032700000325109642303FB11031B013233A5FB08
:1032800003235B0903F0F00202EB011203F00F03CA
:10329000216813448B6038BD0023021843EB0301FF
:1032A000121841F10001C90041EA5271D200101810
:1032B00041F10001626892185B41FCF7A1FF0C4DDF
:1032C000A5FB00325109642303FB1103DB003233F9
:1032D000A5FB03235B095A0002F4F87202EB01120A
:1032E00003F00703216813448B60D4E7001001400A
:1032F0001F85EB512DE9F84305460F4616469946C2
:10330000DDF820802C68246837EA04030CBF4FF0F6
:10331000010C4FF0000CB4452DD1B8F1FF3FF1D0B6
:10332000B8F1000F05D0FEF74FFDA0EB09004045B6
:10333000E8D92A6802F10C0353E8003F23F4D07364
:103340000C3242E800310029F3D12A6802F114035B
:1033500053E8003F23F00103143242E80031002912
:10336000F3D1202385F83D3085F83E30002385F8E1
:103370003C30032000E00020BDE8F88358B310B5CE
:10338000044690F83D300BB3242384F83D30226886
:10339000D36823F40053D3602046FFF723FF22684D
:1033A000136923F4904313612268536923F02A03BD
:1033B00053612268D36843F40053D3600020206433
:1033C000202384F83D3084F83E3010BD80F83C3036
:1033D000FEF73AFCD8E7012070472DE9F04182B0B2
:1033E0001E4690F83D30DBB2202B54D104460D46EA
:1033F0009046002953D0002A53D090F83C30012B3E
:1034000051D0012380F83C3000230364212380F84D
:103410003D30FEF7D9FC0746A4F82480A4F82680A6
:10342000A368B3F5805F05D04FF00008002384F84F
:103430003C3012E0236913B14FF00008F6E7A846CC
:103440000025F3E738F8023B2268C3F30803536012
:10345000E28C92B2013A92B2E284E38C9BB273B1F5
:1034600000963B46002280212046FFF743FFE0B94B
:10347000002DE7D015F8012B23685A60E8E7009685
:103480003B46002240212046FFF734FF78B9202335
:1034900084F83D3000E0022002B0BDE8F081012058
:1034A000FAE70120F8E70220F6E70320F4E703201B
:1034B000F2E70000A0B110B584460B4C207800F173
:1034C000010E84F800E08CF80000CCF80410CCF871
:1034D0000820CCF80C30029BCCF81030002010BD36
:1034E0004FF0FF30704700BF0C000020D0B138B55E
:1034F000154604460023036043608360C360036194
:103500004174027401EB8101880001F0CBF8206066
:1035100058B1284601F0C6F8E06048B1FF23A37413
:10352000002038BD4FF0FF3070476FF00100F8E722
:103530006FF00200F5E700B3024609B30B78407C58
:10354000984220D910B4106803EB830300EB83008A
:103550004C684460106800EB83008C6884601068DD
:1035600000EB8300CC68C460126802EB83030A6935
:103570001A6100205DF8044B70474FF0FF30704730
:103580004FF0FF3070476FF00100704728B10346DD
:1035900019B10A78417C914200D8704710B4046890
:1035A00002EB820C04EB8C00002144F82C104160EB
:1035B0008160C16001611B6803F82C205DF8044B39
:1035C000704760B171B1C27C7AB90A78417C91428E
:1035D0000ED9C27182710122C274002070474FF06F
:1035E000FF3070474FF0FF3070476FF001007047B9
:1035F0006FF002007047D8B10346E1B108785A7CF9
:1036000082421BD9DA7CE2B910B593F912201C7CF6
:10361000A24219DADC6814F802C0844517D002F11E
:10362000010C83F812C0A0541846FFF7CAFF10BD62
:103630004FF0FF3070474FF0FF3070476FF00100E0
:1036400070476FF0020070476FF00300EFE76FF014
:103650000400ECE738B310B50446C16890F91220B5
:10366000531ECB5C417C994220D9C17C09BB002A06
:1036700022DB016803EB830301EB8301FFF786FF85
:1036800094F91230013B5BB2A374C3B12168E268C4
:10369000134413F8013C03EB830301EB8301204641
:1036A000FFF78FFF10BD4FF0FF3070476FF0010044
:1036B000F8E76FF00200F5E76FF00300F2E76FF054
:1036C0000400EFE7002834D010B50446C279037A2D
:1036D0009A421ED00122C274427C934207D20268F1
:1036E00003EB830302EB8303DB6803B19847237A80
:1036F0002371E3796371627C934207D2226803EB02
:10370000830302EB83035B6803B19847E379237279
:1037100010BD0023C3744379427C9342F8D20268FF
:1037200003EB830302EB83039B68002BF0D09847E5
:10373000EEE7704708B5054B834200D008BD03296A
:10374000FCD10348FFF786FFF8E700BF740A0020AA
:10375000C40A002008B5024B186808F09FFB08BD9A
:10376000640C0020F0B585B00446174F386826F089
:10377000CDF8164E3060214626F0E2FD00231A46B1
:103780000221306804F038FD386827F049FA104DFE
:1037900028600024ADF80840ADF80A40386800F011
:1037A000AFF8ADF80C00ADF80E40022202A928686F
:1037B00027F042FA0223009323460E22316828683C
:1037C00005F052FE05B0F0BD640C0020740C002022
:1037D000780C002010B5084B186825F03FFE074C08
:1037E0002060074925F046FE00231A46092120687B
:1037F00004F002FD10BD00BF640C0020680C002026
:10380000D844030838B5154C206826F07FF8144DCD
:103810002860144926F094FD6FF01D030022052155
:10382000286804F0E9FC206826F070F80E4D286046
:103830000E4926F085FD00231A460521286804F06C
:10384000DBFC206808F04FFA014609482AF01CFD0D
:10385000216808482AF018FD38BD00BF640C00201C
:103860006C0C002084440308700C0020944403086E
:10387000AC440308C044030808B50448FFF772FFCE
:10388000FFF7A8FFFFF7BEFF08BD00BFD044030845
:1038900008B51EF033F902F00FFB03F0E5FB094B0E
:1038A000186060B1F022872104F040FC00231A4622
:1038B00009210448006804F09FFC002008BD4FF077
:1038C000FF30FBE7640C002010B582B0074C084BBA
:1038D0000093084B002208492046FFF7EBFD2146E4
:1038E0000648FFF728FE002002B010BD7C0C002027
:1038F000353700085537000879380008C40A002019
:1039000018B108B504F0D8FC08BD4FF0FF3070477F
:10391000002800F0C58010B5044683687BB3827927
:1039200012B10268013202609847E379B0EBD31F0D
:1039300013D01A4603F03F03013303F03F0363F350
:103940000502E271022B0CD9D3B260F3C713E37105
:10395000DBB26FF30503E37103E0E3796FF3050373
:10396000E371A379042B0AD8DFE803F00317316869
:103970008000E379C3F38012B2EBD31F00D010BDF7
:1039800000236371236001232371A371E368002B7B
:10399000F5D0002120469847F1E7E379C3F3801280
:1039A000B2EBD31F06D001236371002323600223EF
:1039B000A371E4E72368C82BE1D905236371236A67
:1039C00013B10521204698470423A371D7E7E37973
:1039D000C3F38012B2EBD31F0AD023683C2BCED99D
:1039E0002379012B18D0022B1FD00023A371C6E727
:1039F00000236371E36813B10021204698472379BF
:103A000001332371636913B10221204698470023D3
:103A100023600323A371B2E703236371A369002B1F
:103A2000E3D0032120469847DFE704236371E3696D
:103A3000002BDAD0042120469847D6E7E379C3F378
:103A40008012B2EBD31F9AD001236371236913B1A3
:103A500001212046984723683B2B04D8002323608C
:103A60000223A3718BE70023A37188E7E379C3F3F3
:103A70008012B2EBD31F09D001236371236913B104
:103A80000121204698470023A37178E7062363713C
:103A9000636A002B3FF473AF0621204698476EE718
:103AA0007047000010B5054B1C6803E02046FFF787
:103AB0002FFFA46A002CF9D110BD00BF900C00208C
:103AC00030B108B539B14AB1006800F0A1F808BDBD
:103AD0004FF0FF3070474FF0FF30F8E74FF0FF3006
:103AE000F5E730B108B539B14AB1006800F0AEF879
:103AF00008BD4FF0FF3070474FF0FF30F8E74FF050
:103B0000FF30F5E720B108B5006800F0BDF808BD4A
:103B10004FF0FF30704758B169B1002A0EDD002B1D
:103B20000FDD08B5016042608360FFF7EBFF08BD61
:103B30004FF0FF3070474FF0FF3070474FF0FF30CD
:103B400070474FF0FF3070472DE9F04182B0CF1839
:103B5000089E1644A8B30D46144680462A238DF8C5
:103B6000073001220DF10701FFF7AAFF2B128DF894
:103B700000308DF801503B128DF802308DF8037043
:103B8000042269464046FFF7ACFF2B238DF807302F
:103B900001220DF107014046FFF792FF23128DF835
:103BA00000308DF8014033128DF802308DF803603B
:103BB000042269464046FFF794FF002002B0BDE8AA
:103BC000F0814FF0FF30F9E770B584B01C462C232C
:103BD0008DF80F30C8B10546012600963346FFF731
:103BE000B3FF32460DF10F012846FFF769FFC4F31A
:103BF00007238DF80C308DF80D40022203A92846CA
:103C0000FFF76FFF002004B070BD4FF0FF30FAE700
:103C100080B170B50C461546064603686BB179B1A4
:103C20008AB183680BB10020984733682946204643
:103C3000984770BD4FF0FF3070474FF0FF30F8E706
:103C40004FF0FF30F5E74FF0FF30F2E780B170B58D
:103C50000C461546064603686BB179B18AB1836894
:103C60000BB101209847336829462046984770BD1C
:103C70004FF0FF3070474FF0FF30F8E74FF0FF3064
:103C8000F5E74FF0FF30F2E72DE9F04F85B004463D
:103C900043680BB10020984763680BB10120984737
:103CA000002C00F08A813A238DF80F3001220DF1AB
:103CB0000F012046FFF7ACFF05268DF800600122BA
:103CC00069462046FFF7C2FFC5238DF80F30012259
:103CD0000DF10F012046FFF79BFF1A238DF80030EE
:103CE000012269462046FFF7B1FF36238DF80F30D9
:103CF00001220DF10F012046FFF78AFF4FF000056A
:103D00008DF80050012269462046FFF79FFFB2233D
:103D10008DF80F3001220DF10F012046FFF778FFDB
:103D20008DF800608DF801608DF802504FF0330A75
:103D30008DF803A08DF804A0324669462046FFF7AF
:103D400085FFB7238DF80F3001220DF10F012046BA
:103D5000FFF75EFF8DF80060012269462046FFF7FD
:103D600075FFBB238DF80F3001220DF10F012046A6
:103D7000FFF74EFF4FF03F038DF8003001226946F8
:103D80002046FFF763FFC0238DF80F3001220DF1AD
:103D90000F012046FFF73CFF2C238DF80030012255
:103DA00069462046FFF752FFC2238DF80F300122EB
:103DB0000DF10F012046FFF72BFF01258DF8005074
:103DC0002A4669462046FFF741FFC3238DF80F308E
:103DD0002A460DF10F012046FFF71AFF0F278DF835
:103DE00000702A4669462046FFF730FFC4238DF84D
:103DF0000F302A460DEB07012046FFF709FF20236D
:103E00008DF800302A4669462046FFF71FFFC6237B
:103E10008DF80F302A460DEB07012046FFF7F8FE1C
:103E20008DF800702A4669462046FFF70FFF6FF0B5
:103E30002F088DF80F802A460DEB07012046FFF76B
:103E4000E7FEA4238DF80030A1238DF80130022273
:103E500069462046FFF7FAFEE8238DF80F302A4620
:103E60000DEB07012046FFF7D3FE4FF003018DF85D
:103E700000102A4669462046FFF7E8FEE9238DF840
:103E80000F302A460DEB070001462046FFF7C0FE23
:103E900009278DF800708DF801704FF0080B8DF830
:103EA00002B0032269462046FFF7D0FEE0238DF8DA
:103EB0000F302A460DF10F0001462046FFF7A8FEFD
:103EC0008DF800808DF801608DF802708DF8037018
:103ED0008DF804B04FF014098DF805904FF02808C4
:103EE0008DF806808DF807A04FF03F028DF808206E
:103EF00007238DF809304FF0130A8DF80AA08DF8CA
:103F00000B908DF80C8030238DF80D300E22694611
:103F10002046FFF79BFEE1238DF80F302A460DF176
:103F20000F0001462046FFF773FE6FF02F038DF858
:103F300000308DF801608DF802708DF803708DF8F7
:103F400004B04FF003018DF8051024238DF80630DE
:103F500032238DF807308DF808303B238DF8093077
:103F60008DF80A908DF80BA08DF80C802F238DF81A
:103F70000D300E2269462046FFF768FE21238DF89A
:103F80000F302A460DF10F012046FFF741FE1123A5
:103F90008DF80F302A460DF10F012046FFF738FE4D
:103FA00029238DF80F302A460DF10F012046FFF727
:103FB0002FFE002005B0BDE8F08F4FF0FF30F9E78D
:103FC00040B108B5016042608360029BC360FFF7A7
:103FD0005BFE08BD4FF0FF3070470000EFF3058334
:103FE0002BB9064B186828B901221A6070476FF088
:103FF000050070474FF0FF30704700BF30130020BE
:10400000EFF3058373B90A4B1B68012B0DD110B573
:104010000024084BDC77064B02221A6001F0CCF931
:10402000204610BD6FF0050070474FF0FF3070471D
:104030003013002000ED00E0F0B587B000240594B7
:10404000EFF305847CBB70B32AB31568936903B999
:1040500018235C1E372C4AD8546814F0010F48D13D
:10406000566976B14FEA960C946834B1D768B7F5C3
:10407000936F02D3176907B1C6B92CB14FF0FF3463
:104080000EE04FF0800CEFE7D4688CB9146994B15E
:104090004FF0FF3404E01546002418234FF0800C45
:1040A000012C0AD0ACB1059807B0F0BD0124F7E7A8
:1040B0004FF0FF34F4E70024F2E7146992680292AB
:1040C000019400930B466246294601F003F90590DE
:1040D000E9E705AA019200930B461FFA8CF22946E4
:1040E00001F035F90128DED000230593DBE700203D
:1040F000DAE70020D8E708B5EFF3058333B908B94C
:10410000002008BD01F0C4FA0020FAE76FF00500B6
:10411000F7E770B5EFF30583002B3FD1044600B1FC
:10412000436813F0010600D0012613F0080F38D1C0
:104130004CB3A16811B1E3684F2B19D899B14FF076
:10414000FF334BBB1EB3042000F099FD05462DB193
:1041500004B124682146284600F0C2FEFDB1F6B144
:1041600045F001051BE0E3687BB14FF0FF33E8E762
:1041700026B1042000F08EFD0546E8E7012000F09E
:1041800089FD0546E3E70023DBE70023D9E70120AB
:1041900000F075FD0546DAE70025DFE70025284633
:1041A00070BD0025FBE70000034B0360034B0B6071
:1041B00080231360704700BF980E0020940C0020ED
:1041C000034B0360034B0B604FF480731360704725
:1041D000381700203413002000F1080343604FF02B
:1041E000FF328260C36003610023036070470023D5
:1041F0000361704743684B609A688A6051609960B8
:104200000861036801330360704730B40D68B5F18D
:10421000FF3F11D000F108031C465B681A68AA42F0
:10422000FAD963684B6099608C60616008610368CB
:104230000133036030BC70470469F2E703694168E9
:1042400082688A60416851605A68824206D00022C2
:1042500002611A68013A1A601868704782685A60E9
:10426000F5E7000082B0002301930D4B1B68B3F10A
:10427000FF3F08D04FF0500383F31188BFF36F8FD7
:10428000BFF34F8FFEE74FF0500383F31188BFF366
:104290006F8FBFF34F8F019B002BFCD002B0704794
:1042A0001000002008480068006880F308884FF07C
:1042B000000080F3148862B661B6BFF34F8FBFF37E
:1042C0006F8F00DF00BF000008ED00E0DFF80C009A
:1042D000016841F4700101607047000088ED00E062
:1042E0004FF0807340F8043C21F0010140F8081CB5
:1042F000054B40F80C3C40F8202C6FF0020340F8CE
:10430000243C4438704700BF6542000800000000AC
:10431000074B19680868B0E8F04F80F30988BFF3CD
:104320006F8F4FF0000080F311887047AFF300806B
:10433000385800204FF0500383F31188BFF36F8F7C
:10434000BFF34F8F0B4A136801331360012B00D06A
:1043500070474FF0E023D3F8043D13F0FF0FF7D080
:104360004FF0500383F31188BFF36F8FBFF34F8F6C
:10437000FEE700BF10000020094B1B6843B94FF057
:10438000500383F31188BFF36F8FBFF34F8FFEE7A6
:10439000013B034A13600BB983F31188704700BFD8
:1043A00010000020000000000000000000000000DD
:1043B000EFF30980BFF36F8F154B1A681EF0100FD3
:1043C00008BF20ED108A20E9F04F10602DE90900A8
:1043D0004FF0500080F31188BFF34F8FBFF36F8F02
:1043E00001F07CF94FF0000080F3118809BC1968D6
:1043F0000868B0E8F04F1EF0100F08BFB0EC108A4C
:1044000080F30988BFF36F8F704700BFAFF3008060
:104410003858002008B54FF0500383F31188BFF3DC
:104420006F8FBFF34F8F01F02BF828B14FF0E023CF
:104430004FF08052C3F8042D002383F3118808BD88
:104440004FF0E022002313619361054B1B6805497F
:10445000A1FB03139B09013B5361072313617047C1
:1044600000000020D34D62104FF0E023D3F8002D60
:104470003D4B9A421CD04FF0E023D3F8002D3B4B2C
:104480009A421ED030B583B0394B1A78D2B201921D
:10449000FF221A701B78DBB28DF803309DF80330D1
:1044A00003F05003334A1370334B07221A601BE0AA
:1044B0004FF0500383F31188BFF36F8FBFF34F8F1B
:1044C000FEE74FF0500383F31188BFF36F8FBFF304
:1044D0004F8FFEE7284A1368013B13609DF80330B5
:1044E0005B00DBB28DF803309DF8033013F0800FD2
:1044F000F0D1214B1B68032B08D04FF0500383F3FE
:104500001188BFF36F8FBFF34F8FFEE71B021A4A6C
:10451000136003F4E0631360019BDBB2144A137071
:104520004FF0E024D4F8203D43F47003C4F8203D5C
:10453000D4F8203D43F07043C4F8203DFFF780FFDE
:1045400000250E4B1D60FFF7C1FED4F8343F43F049
:104550004043C4F8343FFFF7A5FE01F0BFF8FFF772
:1045600081FE284603B030BD71C20F4170C20F41B9
:1045700000E400E0D01B0020D41B0020100000202D
:10458000EFF305830F2B0FD9114A9B5CDBB2114A65
:1045900012789A4208D94FF0500383F31188BFF381
:1045A0006F8FBFF34F8FFEE74FF0E023D3F80C3D42
:1045B00003F4E063084A1268934208D94FF05003AD
:1045C00083F31188BFF36F8FBFF34F8FFEE7704700
:1045D000F0E300E0D01B0020D41B0020124A12F0B0
:1045E000070F1ED0D11D21F00701C1F570531344F0
:1045F0000A460E480260002141601344083B23F044
:1046000007030B48036059601960991A51601360E1
:10461000084B1960084B1960084B4FF000421A60B4
:1046200070474FF47053E4E7DC1B0020F057002084
:10463000D81B0020E4570020E0570020DC57002062
:10464000164B1A461B688342FBD3516802EB010CE0
:10465000844509D0416800EB010C634509D0036033
:10466000904219D010607047406801445160104674
:10467000F0E710B40A4C2468A3420BD05B681944DD
:10468000416013681B680360904200D010605DF8C1
:10469000044B70470460F7E7704700BFF0570020F5
:1046A000D81B002070B5054600F0DCFE364B1B68B9
:1046B000A3B1364B1B681D424ED135B1083515F0FC
:1046C000070F02D025F007050835002D46D0304BE6
:1046D0001B68AB4251D32F4A146804E0FFF77EFFFA
:1046E000E7E722461C466368AB4202D22368002BF0
:1046F000F7D1254B1B68A34241D0166808362368C2
:10470000136063685B1B102B10D9601910F0070F42
:1047100008D04FF0500383F31188BFF36F8FBFF3BE
:104720004F8FFEE743606560FFF78AFF62681849B4
:104730000B689B1A0B60184909688B4201D2164915
:104740000B60124B1B681343636000232360134A02
:1047500013680133136002E0002600E0002600F039
:104760001BFF16F0070F0CD04FF0500383F3118896
:10477000BFF36F8FBFF34F8FFEE70026EFE70026F2
:10478000EDE7304670BD00BFD81B0020DC5700208D
:10479000E0570020F0570020E4570020E8570020A1
:1047A000002834D038B50446A0F1080550F8043C80
:1047B000174A1268134208D14FF0500383F311884F
:1047C000BFF36F8FBFF34F8FFEE750F8081C41B166
:1047D0004FF0500383F31188BFF36F8FBFF34F8FF8
:1047E000FEE723EA020340F8043C00F03BFE54F8E5
:1047F000041C084A13680B4413602846FFF720FF87
:10480000054A13680133136000F0C6FE38BD7047D7
:10481000DC570020E0570020EC57002010B504467C
:10482000FFF788FDA26BE36B9A4204D00024FFF7E8
:10483000A3FD204610BD0124F9E710B50446FFF79B
:1048400079FDA36B23B90124FFF796FD204610BD27
:104850000024F9E770B504461546866B026C5AB918
:1048600003681BB100200136A66370BD806801F0AB
:1048700063F80023A360F6E76DB94068FBF742FEDA
:10488000226C636813446360A268934219D323685F
:1048900063602846E7E7C068FBF734FE226C5142AC
:1048A000E3689B1AE3602268934202D2A3680B4438
:1048B000E360022D01D00020D5E726B1013E0020A3
:1048C000D1E72846CFE70020CDE70346026C6AB166
:1048D00010B50846D9681144D9609C68A14201D33B
:1048E0001968D960D968FBF70DFE10BD704738B55F
:1048F0000546FFF71FFD95F8454064B201E0013C15
:1049000064B2002C0ADD6B6A43B105F1240000F0AB
:1049100069FF0028F3D000F0F9FFF0E7FF2385F8E6
:104920004530FFF729FDFFF705FD95F8444064B2D7
:1049300001E0013C64B2002C0ADD2B6943B105F1B2
:10494000100000F04FFF0028F3D000F0DFFFF0E789
:10495000FF2385F84430FFF70FFD38BD38B5E0B1CF
:104960000D460446FFF7E6FC2368E26B216C01FB71
:104970000230A0600020A0636360013A02FB0133B3
:10498000E360FF2384F8443084F84530FDB923699F
:1049900063B9FFF7F1FC012038BD4FF0500383F3FA
:1049A0001188BFF36F8FBFF34F8FFEE704F1100044
:1049B00000F018FF0028ECD04FF0E0234FF08052B9
:1049C000C3F8042DBFF34F8FBFF36F8FE1E704F1FE
:1049D0001000FFF701FC04F12400FFF7FDFBD8E70E
:1049E00038B51D46049C0B4649B92460E063236436
:1049F00001212046FFF7B2FF84F84C5038BD2260F9
:104A0000F4E740B94FF0500383F31188BFF36F8F81
:104A1000BFF34F8FFEE710B584B01C46844653B1F8
:104A200092B189B94FF0500383F31188BFF36F8FB0
:104A3000BFF34F8FFEE74FF0500383F31188BFF3AE
:104A40006F8FBFF34F8FFEE76AB150230393039B31
:104A5000502B13D04FF0500383F31188BFF36F8FA7
:104A6000BFF34F8FFEE70029EFD04FF0500383F3E1
:104A70001188BFF36F8FBFF34F8FFEE7039B0123B6
:104A800084F8463000949DF818306046FFF7A8FF80
:104A9000204604B010BD40B94FF0500383F3118895
:104AA000BFF36F8FBFF34F8FFEE7F0B583B00D46B6
:104AB0001446064601FB00F05030FFF7F3FD0746B1
:104AC00050B1002380F846300090234600F1500298
:104AD00029463046FFF784FF384603B0F0BDF0B5F5
:104AE00085B0019288B10F461D460446B1B1022D32
:104AF00020D1E36B012B1DD04FF0500383F31188BD
:104B0000BFF36F8FBFF34F8FFEE74FF0500383F378
:104B10001188BFF36F8FBFF34F8FFEE7036C002B3D
:104B2000E5D04FF0500383F31188BFF36F8FBFF3CD
:104B30004F8FFEE700F0F0FE064658B9019B002BB0
:104B400048D04FF0500383F31188BFF36F8FBFF34A
:104B50004F8FFEE700263DE02A4639462046FFF704
:104B600079FE636A7BB948B14FF0E0234FF0805281
:104B7000C3F8042DBFF34F8FBFF36F8FFFF7FCFB1C
:104B8000012005B0F0BD04F1240000F02BFE002848
:104B9000F4D04FF0E0234FF08052C3F8042DBFF360
:104BA0004F8FBFF36F8FE9E7FFF7E6FB0020E8E7E1
:104BB00002A800F05DFE012619E0002384F84430CD
:104BC00021E0002384F8453023E02046FFF78FFEE4
:104BD00000F0E2FCFFF7AEFBA26BE36B9A42BBD3A3
:104BE000022DB9D0019B002BDED0002EE0D0FFF7C4
:104BF000C3FB00F037FCFFF79DFB94F8442052B252
:104C0000B2F1FF3FD9D094F8452052B2B2F1FF3F44
:104C1000D7D0FFF7B1FB01A902A800F035FED8B943
:104C20002046FFF7FBFD0028CFD0019904F11000CA
:104C300000F0A4FD2046FFF75AFE00F0ADFC00286E
:104C4000C8D14FF0E0234FF08052C3F8042DBFF3DA
:104C50004F8FBFF36F8FBDE72046FFF748FE00F090
:104C60009BFC00208DE748B108B500218160016000
:104C7000C1600B460A46FFF732FF08BD704710B50A
:104C8000024600210120FFF706FF0446FFF7EBFF75
:104C9000204610BD10B582B00B4600900022114690
:104CA0000120FFF7AEFE0446FFF7DDFF204602B00D
:104CB00010BD2DE9F84390B10F4616461C46054637
:104CC000B1B1022C20D1EB6B012B1DD04FF0500362
:104CD00083F31188BFF36F8FBFF34F8FFEE74FF061
:104CE000500383F31188BFF36F8FBFF34F8FFEE73D
:104CF000036C002BE5D04FF0500383F31188BFF312
:104D00006F8FBFF34F8FFEE7FFF73AFCEFF3118988
:104D10004FF0500383F31188BFF36F8FBFF34F8FB2
:104D2000AA6BEB6B9A4206D3022C04D0002089F3C5
:104D30001188BDE8F88395F845804FFA88F8AB6B89
:104D4000224639462846FFF785FDB8F1FF3F06D0D9
:104D500008F101035BB285F845300120E7E76B6A93
:104D60000BB90120E3E705F1240000F03BFD18B189
:104D700026B101203060DAE70120D8E70120D6E72C
:104D8000F0B585B0019290B10F460446C1B100F074
:104D9000C3FD064600BB019B002B5ED04FF05003C5
:104DA00083F31188BFF36F8FBFF34F8FFEE74FF090
:104DB000500383F31188BFF36F8FBFF34F8FFEE76C
:104DC000036C002BE3D04FF0500383F31188BFF343
:104DD0006F8FBFF34F8FFEE700263EE03946204637
:104DE000FFF773FD013DA563236923B9FFF7C4FAFB
:104DF000012005B0F0BD04F1100000F0F3FC002824
:104E0000F4D04FF0E0234FF08052C3F8042DBFF3ED
:104E10004F8FBFF36F8FE9E7FFF7AEFA0020E8E7A7
:104E200002A800F025FD012621E0002384F844308B
:104E300029E0002384F845302BE02046FFF757FD9A
:104E400000F0AAFB09E02046FFF751FD00F0A4FBAB
:104E50002046FFF7F2FC00283FD1FFF76BFAA56B65
:104E6000002DBBD1019B002BD6D0002ED8D0FFF750
:104E700083FA00F0F7FAFFF75DFA94F844305BB27A
:104E8000B3F1FF3FD1D094F845305BB2B3F1FF3FAF
:104E9000CFD0FFF771FA01A902A800F0F5FC0028B5
:104EA000D1D12046FFF7C9FC0028C6D0019904F1F2
:104EB000240000F063FC2046FFF719FD00F06CFBB6
:104EC0000028CAD14FF0E0234FF08052C3F8042DE0
:104ED000BFF34F8FBFF36F8FBFE7002089E700005C
:104EE0000023072B0CD8074A52F833200AB10133AC
:104EF000F7E7044A42F8331002EBC30358607047E7
:104F0000704700BFF857002070B504460D4616469E
:104F1000FFF710FA94F844305BB2B3F1FF3F0DD0C5
:104F200094F845305BB2B3F1FF3F0BD0FFF724FAA2
:104F3000A36B5BB12046FFF7DAFC70BD002384F859
:104F40004430EDE7002384F84530EFE73246294648
:104F500004F1240000F02AFCECE70000084B1B6879
:104F60001B6823B9074B4FF0FF321A607047044BA0
:104F70001B68DB68DB685A68024B1A60704700BF29
:104F80003C580020E45C00202DE9F04780460D46A7
:104F900017469946089EDDF824A00A9C9200A52198
:104FA000206B29F01FF9236B07F18042013A03EBD4
:104FB000820727F00707002D65D04FF0000CBCF1E9
:104FC0001F0F0BD815F80C2004EB0C0383F83420CA
:104FD00015F80C3013B10CF1010CF0E7002384F844
:104FE0005330372E00D93726E662E6650025256660
:104FF000201DFFF7FCF804F11800FFF7F8F8246112
:10500000C6F13806A6616462C4F8905484F89454DA
:105010004FF48562294604F1680029F0E3F804F5AD
:105020005573E36604F56F73236704F224436367E3
:1050300001220023C4E9442343F20E33A4F81831BB
:105040004AF6CD33A4F81A3141F23423A4F81C31C6
:105050004EF26D63A4F81E314DF6EC63A4F82031D6
:105060000523A4F822310B23A4F824314A464146F3
:105070003846FFF735F92060BAF1000F01D0CAF8C1
:105080000040BDE8F087002384F83430A9E7000031
:1050900038B5002407E004EB840293000E4818445E
:1050A000FFF79AF80134372CF5D90C4D2846FFF755
:1050B00093F80B4C2046FFF78FF80A48FFF78CF85F
:1050C0000948FFF789F80948FFF786F8084B1D6083
:1050D000084B1C6038BD00BF44580020B85C00205D
:1050E000CC5C0020F05C00201C5D0020085D0020EE
:1050F0003C5800204058002010B50446FFF71AF92C
:10510000224A136801331360214B1B685BB1214BAA
:105110001B686BB91E4B1B68DA6AE36A9A4207D8B0
:105120001B4B1C6004E01A4B1C601368012B29D038
:10513000194A1368013313606365E06A174B1B68F3
:10514000984201D9154B186000EB8000211D144BCB
:1051500003EB8000FFF74EF8FFF70EF90D4B1B68CD
:105160007BB10B4B1B68DA6AE36A9A4209D24FF0B3
:10517000E0234FF08052C3F8042DBFF34F8FBFF3ED
:105180006F8F10BDFFF784FFD2E700BFA45C002043
:1051900038580020045D0020B05C0020B45C002082
:1051A0004458002010B50446683029F0FBF894F804
:1051B000953463B1012B11D0022B0ED04FF0500368
:1051C00083F31188BFF36F8FBFF34F8FFEE7206B20
:1051D000FFF7E6FA2046FFF7E3FA10BD2046FFF797
:1051E000DFFAFAE70F4B1B68D3B110B5FFF7A2F84F
:1051F0000D4BDB68DC68201DFFF720F80B4A1368B5
:10520000013B1360074A1368013B1360FFF7B4F8D2
:105210002046FFF7C7FF034B1B68002BE6D110BDEC
:10522000704700BFA85C00201C5D0020A45C00202B
:1052300008B5FFF7D7FF074B1B68012BF9D94FF0D3
:10524000E0234FF08052C3F8042DBFF34F8FBFF31C
:105250006F8FEEE74458002070B504460D46174B9B
:105260001E68174B18680430FEF7E8FFB4F1FF3FE3
:105270000DD03444124B1B685C60A64210D9114B10
:1052800018680F4B19680431FEF7BFFF70BD002D81
:10529000EFD00B4B196804310B48FEF7ABFFF5E775
:1052A0000A4B1868064B19680431FEF7AEFF084B2D
:1052B0001B68A342EAD9064B1C60E7E7305D00207B
:1052C0003858002040580020085D00203C5800203D
:1052D000E45C002030B587B00B9C8CB10C9DC5B14F
:1052E0004FF493650495049DB5F5936F1AD04FF074
:1052F000500383F31188BFF36F8FBFF34F8FFEE727
:105300004FF0500383F31188BFF36F8FBFF34F8FBC
:10531000FEE74FF0500383F31188BFF36F8FBFF3A5
:105320004F8FFEE7049D0C9D2C63022485F8954465
:1053300000240394029505AC01940A9C0094FFF7A5
:1053400023FE0C98FFF7D8FE059807B030BD2DE975
:10535000F04385B00746884614461E469000FFF786
:10536000A1F908B381464FF49360FFF79BF9054616
:10537000B0B1C0F83090E5B1002385F895340393BF
:1053800002950D9B01930C9B0093334622464146A8
:105390003846FFF7F9FD2846FFF7AEFE012005E08D
:1053A0004846FFF7FDF9E6E74FF0FF3005B0BDE8EE
:1053B000F0834FF0FF30F9E710B588B00024059472
:1053C000069407AA06A905A8FEF7EEFE059B029320
:1053D000069B019300942346079A1A491A48FFF73F
:1053E00079FF1A4B186040B100F05AFB012806D033
:1053F000B0F1FF3F1DD008B010BD0020F6E74FF020
:10540000500383F31188BFF36F8FBFF34F8F104B9F
:105410001B6868330F4A13600F4B4FF0FF321A605E
:105420000E4B01221A600E4B00221A60FFF71CF887
:10543000E1E74FF0500383F31188BFF36F8FBFF3A1
:105440004F8FFEE74084030831520008E05C0020E3
:1054500038580020A8000020E45C0020045D0020F3
:10546000305D0020024A136801331360704700BFAB
:10547000AC5C0020014B1868704700BF305D002015
:10548000F8B53A4B1B68002B69D1394B1D680135C3
:105490001D60C5B9374B1B681B6843B14FF0500303
:1054A00083F31188BFF36F8FBFF34F8FFEE7314A4D
:1054B0001168314B186810601960304A1368013365
:1054C0001360FFF74BFD2E4B1B68AB423DD9002705
:1054D0002C4B1B68DB6A03EB83039A002A4B9B5817
:1054E000012B00D90127294B1B68002B3CD0012739
:1054F0003AE001271F4B1B681B6843B31D4B1B6819
:10550000DB68DC6863689D4226D3261D3046FEF7C3
:1055100095FEA36A1BB104F11800FEF78FFEE36A43
:105520001B4A1268934201D9194A136003EB8303A3
:105530009A00314614481044FEF75CFEE26A114BB3
:105540001B68DB6A9A42D4D2D4E70027D2E70C4B1F
:105550004FF0FF321A60BBE7094A1360B8E70D4A03
:1055600013680133136000273846F8BDAC5C002097
:10557000305D00203C58002040580020E85C0020AE
:10558000E45C00203858002044580020345D00209E
:10559000B45C0020EC5C002038B5354B1B6843B987
:1055A0004FF0500383F31188BFF36F8FBFF34F8F1A
:1055B000FEE7FEF7BFFE2E4B1A68013A1A601B6821
:1055C000002B4FD12B4B1B680BB900244BE0002460
:1055D000294B1B681BB3284BDB68DC6804F11800FF
:1055E000FEF72CFE251D2846FEF728FEE06A234B19
:1055F0001B68984201D9214B186000EB80002946B6
:105600001F4B03EB8000FEF7F5FDE26A1D4B1B68A4
:10561000DB6A9A42DCD31C4B01221A60D8E70CB13A
:10562000FFF79CFC194B1C6884B9174B1C68D4B15C
:105630004FF0E0234FF08052C3F8042DBFF34F8F9B
:10564000BFF36F8F01240EE0013C07D0FFF718FF76
:105650000028F9D00C4B01221A60F5E70B4B002211
:105660001A60E2E70024FEF787FE204638BD00BF3F
:10567000AC5C0020A45C0020F05C0020B45C002046
:105680004458002038580020345D0020EC5C002095
:1056900010B5A8B10446104B1B6843B14FF050033E
:1056A00083F31188BFF36F8FBFF34F8FFEE7FFF7D0
:1056B000D9FE00212046FFF7CFFDFFF76DFF48B967
:1056C0004FF0E0234FF08052C3F8042DBFF34F8F0B
:1056D000BFF36F8F10BD00BFAC5C0020214B1B6877
:1056E0001BB1214B01221A6070471F4B00221A6028
:1056F0001E4B1B6803EB83018A001D498A585AB967
:105700000BB1013BF6E74FF0500383F31188BFF371
:105710006F8FBFF34F8FFEE703EB830082000A44D5
:1057200050684068506003EB830C4FEA8C020832EB
:10573000114488420FD003EB830291000C4A0A44C3
:105740005268D1680B4A116008490B6013686833CE
:10575000094A13607047406862469100044A0A444F
:105760005060E8E7AC5C0020345D0020B45C0020B1
:105770004458002038580020A800002058B110B527
:105780000C46094A11681831FEF73FFD01212046F9
:10579000FFF762FD10BD4FF0500383F31188BFF394
:1057A0006F8FBFF34F8FFEE73858002038B570B1C8
:1057B0000D4614460A4A11681831FEF71BFD0CB15C
:1057C0004FF0FF3521462846FFF746FD38BD4FF024
:1057D000500383F31188BFF36F8FBFF34F8FFEE742
:1057E0003858002038B5C368DC6824B304F11805C4
:1057F0002846FEF723FD184B1B682BBB251D2846AA
:10580000FEF71CFDE06A154B1B68984201D9134B4B
:10581000186000EB80002946114B03EB8000FEF777
:10582000E9FCE26A0F4B1B68DB6A9A4211D901203E
:105830000D4B186038BD4FF0500383F31188BFF350
:105840006F8FBFF34F8FFEE729460848FEF7D2FC63
:10585000E7E70020EEE700BFAC5C0020B45C00206E
:105860004458002038580020345D0020F05C0020AF
:10587000034B1B680360034B1B684360704700BF0A
:10588000E85C0020305D0020F8B5C8B10C46054644
:10589000F9B1FEF74FFD1B4B19686B68C81A2268F7
:1058A000B2F1FF3F26D0184E36682F68B74201D0BC
:1058B0008B4224D9824215D80023236001241AE0A8
:1058C0004FF0500383F31188BFF36F8FBFF34F8FF7
:1058D000FEE74FF0500383F31188BFF36F8FBFF3E0
:1058E0004F8FFEE75B1A134423602846FFF7C0FF83
:1058F000002400E00024FEF73FFD2046F8BD01240F
:10590000F9E700BF305D0020E85C0020014B012278
:105910001A607047345D0020054B1B6833B1054B9E
:105920001B680BB1002070470220704701207047B0
:10593000045D0020AC5C002000283BD038B5044654
:105940001E4B1B68834208D04FF0500383F311882D
:10595000BFF36F8FBFF34F8FFEE7036E43B94FF076
:10596000500383F31188BFF36F8FBFF34F8FFEE7B0
:10597000013B0366C16AC26D91421DD00BB100208C
:1059800038BD051D2846FEF759FCE06DE062C0F108
:105990003803A3610A4B1B68984201D9084B186071
:1059A00000EB80002946074B03EB8000FEF722FC4A
:1059B0000120E5E7002070470020E1E7385800208B
:1059C000B45C002044580020064B1A6813682BB9B9
:1059D0000123036023B9D368186870470023F8E7F0
:1059E00000207047385D002008B541600061914299
:1059F0000CD8D21A83699A4201D3012008BD011D37
:105A0000094B1868FEF701FC0020F7E79A4201D223
:105A1000994206D2011D054B1868FEF7F6FB0020DF
:105A2000ECE70120EAE700BF3C5D0020385D002084
:105A300030B583B0FEF77EFC114B1B681BB1FEF73F
:105A40009BFC03B030BD0F4D2846FEF7C5FB0E4C46
:105A50002046FEF7C1FB0D4B1D600D4B1C60002363
:105A600000930C4B0C4A10210A20FEF7CAFF044B8E
:105A700018600028E3D00949FFF732FADFE700BFDA
:105A80005C5E0020E05D0020F45D0020385D0020B9
:105A90003C5D00200C5E0020405D0020488403082F
:105AA00010B588B0FFF7C4FF124B1B68CBB10024C0
:105AB0000594069407AA06A905A8FEF781FB059B95
:105AC0000293069B0193022300932346079A0A49F7
:105AD0000A48FFF7FFFB0A4B186010B1012008B01D
:105AE00010BD4FF0500383F31188BFF36F8FBFF3E6
:105AF0004F8FFEE75C5E002050840308055E0008BF
:105B0000605E0020B8B19C4603461848006858B350
