:020000040800F2
:100000000000022009200008C51C0008CD1C0008C3
:10001000CF1C0008D11C0008D31C00080000000001
:10002000000000000000000000000000B1610008B6
:10003000D51C00080000000051620008D71C000811
:1000400059200008592000085920000859200008AC
:10005000592000085920000859200008592000089C
:10006000592000085920000859200008592000088C
:10007000592000085920000859200008ED1C0008EC
:10008000592000085920000859200008592000086C
:10009000592000085920000859200008592000085C
:1000A000592000085920000859200008592000084C
:1000B000FD1C00080D1D00085920000859200008EB
:1000C000592000085920000859200008592000082C
:1000D000592000085920000859200008592000081C
:1000E000592000085920000859200008592000080C
:1000F00059200008592000085920000859200008FC
:1001000059200008592000085920000859200008EB
:1001100059200008592000085920000859200008DB
:1001200059200008592000085920000859200008CB
:1001300059200008592000085920000859200008BB
:1001400059200008592000085920000859200008AB
:10015000592000085920000859200008592000089B
:10016000592000085920000859200008592000088B
:1001700059200008592000085920000800000000FC
:08018000592000085920000875
:1001C00010B5054C237833B9044B13B10448AFF391
:1001D00000800123237010BD180B002000000000D8
:1001E0005C63030808B5034B1BB103490348AFF335
:1001F000008008BD000000001C0B00205C630308A9
:1002000053B94AB9002908BF00281CBF4FF0FF317D
:100210004FF0FF3000F074B9ADF1080C6DE904CE79
:1002200000F006F8DDF804E0DDE9022304B07047D1
:100230002DE9F047089D04468E46002B4DD18A4299
:10024000944669D9B2FA82F252B101FA02F3C2F1CC
:10025000200120FA01F10CFA02FC41EA030E94405D
:100260004FEA1C48210CBEFBF8F61FFA8CF708FB7E
:1002700016E341EA034306FB07F199420AD91CEB56
:10028000030306F1FF3080F01F81994240F21C8188
:10029000023E63445B1AA4B2B3FBF8F008FB1033D0
:1002A00044EA034400FB07F7A7420AD91CEB040405
:1002B00000F1FF3380F00A81A74240F207816444D5
:1002C000023840EA0640E41B00261DB1D44000235A
:1002D000C5E900433146BDE8F0878B4209D9002DBE
:1002E00000F0EF800026C5E9000130463146BDE848
:1002F000F087B3FA83F6002E4AD18B4202D38242B2
:1003000000F2F980841A61EB030301209E46002D60
:10031000E0D0C5E9004EDDE702B9FFDEB2FA82F2B5
:10032000002A40F09280A1EB0C014FEA1C471FFA13
:100330008CFE0126200CB1FBF7F307FB131140EAFA
:1003400001410EFB03F0884208D91CEB010103F1C7
:10035000FF3802D2884200F2CB804346091AA4B289
:10036000B1FBF7F007FB101144EA01440EFB00FE5D
:10037000A64508D91CEB040400F1FF3102D2A645C2
:1003800000F2BB800846A4EB0E0440EA03409CE761
:10039000C6F12007B34022FA07FC4CEA030C20FA0E
:1003A00007F401FA06F31C43F9404FEA1C4900FA2E
:1003B00006F3B1FBF9F8200C1FFA8CFE09FB1811AB
:1003C00040EA014108FB0EF0884202FA06F20BD91E
:1003D0001CEB010108F1FF3A80F08880884240F26E
:1003E0008580A8F102086144091AA4B2B1FBF9F0B2
:1003F00009FB101144EA014100FB0EFE8E4508D9AD
:100400001CEB010100F1FF346CD28E456AD9023831
:10041000614440EA0840A0FB0294A1EB0E01A14216
:10042000C846A64656D353D05DB1B3EB080261EB84
:100430000E0101FA07F722FA06F3F1401F43C5E95E
:10044000007100263146BDE8F087C2F12003D84094
:100450000CFA02FC21FA03F3914001434FEA1C47D6
:100460001FFA8CFEB3FBF7F007FB10360B0C43EAC8
:10047000064300FB0EF69E4204FA02F408D91CEB78
:10048000030300F1FF382FD29E422DD90238634476
:100490009B1B89B2B3FBF7F607FB163341EA034116
:1004A00006FB0EF38B4208D91CEB010106F1FF3865
:1004B00016D28B4214D9023E6144C91A46EA00465C
:1004C00038E72E46284605E70646E3E61846F8E6EE
:1004D0004B45A9D2B9EB020864EB0C0E0138A3E737
:1004E0004646EAE7204694E74046D1E7D0467BE718
:1004F000023B614432E7304609E76444023842E790
:10050000704700BF844641EA000313F003036DD136
:10051000403A41D351F8043B40F8043B51F8043BC6
:1005200040F8043B51F8043B40F8043B51F8043BCD
:1005300040F8043B51F8043B40F8043B51F8043BBD
:1005400040F8043B51F8043B40F8043B51F8043BAD
:1005500040F8043B51F8043B40F8043B51F8043B9D
:1005600040F8043B51F8043B40F8043B51F8043B8D
:1005700040F8043B51F8043B40F8043B51F8043B7D
:1005800040F8043B51F8043B40F8043B51F8043B6D
:1005900040F8043B403ABDD2303211D351F8043B0D
:1005A00040F8043B51F8043B40F8043B51F8043B4D
:1005B00040F8043B51F8043B40F8043B103AEDD2BC
:1005C0000C3205D351F8043B40F8043B043AF9D20D
:1005D000043208D0D2071CBF11F8013B00F8013BE0
:1005E00001D30B8803806046704700BF082A13D3ED
:1005F0008B078DD010F003038AD0C3F10403D21A05
:10060000DB071CBF11F8013B00F8013B80D331F838
:10061000023B20F8023B7BE7043AD9D3013A11F8B8
:10062000013B00F8013BF9D20B7803704B78437023
:100630008B78837060467047000000000000000067
:10064000A2EB0300704700BF02780B78012A28BF95
:100650009A42F5D16DE9044540EA0104CDE902670B
:100660006FF0000C4FEA447212B380EA010414F0F8
:10067000070F6AD100F0070420F0070004F003051B
:1006800021F007014FEAC505F0E8042314F0040F38
:10069000F1E804670CFA05F462EA040266EA04066B
:1006A0000AD063EA0403624667EA0407664603E089
:1006B000F0E80423F1E8046782FA4CF582EA0604C4
:1006C000A4FA8CF46CBB83FA4CF583EA0705A5FA0F
:1006D0008CF595B950E9022351E9026782FA4CF58D
:1006E00082EA0604A4FA8CF483FA4CF583EA07053F
:1006F000A5FA8CF52543DBD09CB92DBAB5FA85F463
:1007000024F0070427FA04F1DDE9026723FA04F371
:1007100003F0FF0001F0FF01FDE80445A0EB01003C
:10072000704724BAB4FA84F424F0070426FA04F1DA
:10073000DDE9026722FA04F202F0FF0001F0FF0196
:10074000FDE80445A0EB0100704714F0030F3CD115
:1007500010F0030428D150F8082B51F8083B82FA16
:100760004CF582EA0305A5FA8CF55DB950F8042C26
:1007700051F8043C82FA4CF582EA0305A5FA8CF59F
:10078000002DE8D02DBAB5FA85F424F0070423FA39
:1007900004F122FA04F202F0FF0001F0FF01FDE88B
:1007A0000445A0EB010070474FEAC40420F00300A9
:1007B00050F8082B21F0030151F8083B0CFA04F41F
:1007C00062EA040263EA0403C9E710F003041AD0E2
:1007D000A1EB040120F00300E40750F8042B06D03D
:1007E0000FD28B785FFAA2F4E41A06D12BB1CB7842
:1007F0005FFAB2F4E41A00D11BB920465DF8104B41
:10080000704701F1040150F8042BCC0721F00301DB
:1008100051F8043B48D824D222F07F4482FA4CF5A8
:1008200094EA1325A5FA8CF50AD165B951F8043B71
:1008300084EA0204B4EB036F0ED150F8042BEBE70B
:100840004FEA132355E035F07F454DD10878FDE898
:100850000445C0F1000070474FEA126203F0FF0345
:1008600047E002EA1C4482FA4CF594EA1345A5FAE3
:100870008CF50AD165B951F8043B84EA0204B4EB63
:10088000034F0CD150F8042BEBE74FEA134330E051
:1008900015EA1C4528D10B884FEA124229E04FEA9D
:1008A000124203EA1C4324E002F0FF0482FA4CF5F2
:1008B00094EA1365A5FA8CF50AD165B951F8043BA1
:1008C00084EA0204B4EB032F09D150F8042BEBE7C0
:1008D0004FEA13630DE015F0FF0F05D10B684FEAE7
:1008E000122223F07F4304E04FF00000FDE80445AE
:1008F000704712BA1BBA82FA4CF482EA0304A4FAD3
:100900008CF5B5FA85F402FA04F203FA04F34FEA1F
:100910001260FDE80445A0EB136070470000000082
:1009200000000000000000000000000000000000C7
:1009300000000000000000000000000000000000B7
:1009400090F800F06DE9024520F007016FF0000C0F
:1009500010F0070491F820F040F049804FF00004B7
:100960006FF00700D1E9002391F840F000F1080092
:1009700082FA4CF2A4FA8CF283FA4CF3A2FA8CF3CA
:100980004BBBD1E9022382FA4CF200F10800A4FA31
:100990008CF283FA4CF3A2FA8CF3E3B9D1E9042385
:1009A00082FA4CF200F10800A4FA8CF283FA4CF3BC
:1009B000A2FA8CF37BB9D1E9062301F1200182FA76
:1009C0004CF200F10800A4FA8CF283FA4CF3A2FA7C
:1009D0008CF3002BC6D0002A04BF04301A4612BA8A
:1009E000B2FA82F2FDE8024500EBD2007047D1E98D
:1009F000002304F00305C4F100004FEAC50514F01C
:100A0000040F91F840F00CFA05F562EA05021CBFEC
:100A100063EA050362464FF00004A9E70000000006
:100A200001F0FF01102A2BDB10F0070F08D010F89F
:100A3000013B013A8B422DD010F0070F42B3F6D1A3
:100A4000F0B441EA012141EA014122F007047FF0BC
:100A500000070023F0E80256083C85EA010586EA13
:100A6000010685FA47F5A3FA87F586FA47F6A5FA4F
:100A700087F68EB9EED1F0BC01F0FF0102F007025B
:100A800032B110F8013B013A83EA010313B1F8D106
:100A90000020704701387047002D06BF35460338E7
:100AA000073815F0010F07D1013015F4807F02BF20
:100AB000013015F4C03F0130F0BC0138704700BF71
:100AC00081F0004102E000BF83F0004330B54FEAFF
:100AD00041044FEA430594EA050F08BF90EA020F6C
:100AE0001FBF54EA000C55EA020C7FEA645C7FEAFF
:100AF000655C00F0E2804FEA5454D4EB5555B8BF22
:100B00006D420CDD2C4480EA020281EA030382EA92
:100B1000000083EA010180EA020281EA0303362D24
:100B200088BF30BD11F0004F4FEA01314FF4801CF7
:100B30004CEA113102D0404261EB410113F0004F09
:100B40004FEA03334CEA133302D0524263EB4303C0
:100B500094EA050F00F0A780A4F10104D5F1200E5E
:100B60000DDB02FA0EFC22FA05F2801841F10001B9
:100B700003FA0EF2801843FA05F359410EE0A5F18D
:100B800020050EF1200E012A03FA0EFC28BF4CF0BE
:100B9000020C43FA05F3C01851EBE37101F0004574
:100BA00007D54FF0000EDCF1000C7EEB00006EEB81
:100BB0000101B1F5801F1BD3B1F5001F0CD349080B
:100BC0005FEA30004FEA3C0C04F101044FEA445262
:100BD00012F5800F80F09A80BCF1004F08BF5FEAE9
:100BE000500C50F1000041EB045141EA050130BDC9
:100BF0005FEA4C0C404141EB0101013C28BFB1F5DB
:100C0000801FE9D291F0000F04BF01460020B1FA25
:100C100081F308BF2033A3F10B03B3F120020CDAF8
:100C20000C3208DD02F1140CC2F10C0201FA0CF0D6
:100C300021FA02F10CE002F11402D8BFC2F1200C3B
:100C400001FA02F120FA0CFCDCBF41EA0C019040F1
:100C5000E41AA2BF01EB0451294330BD6FEA04043A
:100C60001F3C1CDA0C340EDC04F11404C4F1200225
:100C700020FA04F001FA02F340EA030021FA04F337
:100C800045EA030130BDC4F10C04C4F1200220FA8E
:100C900002F001FA04F340EA0300294630BD21FACC
:100CA00004F0294630BD94F0000F83F4801306BF92
:100CB00081F480110134013D4EE77FEA645C18BF86
:100CC0007FEA655C29D094EA050F08BF90EA020F1D
:100CD00005D054EA000C04BF1946104630BD91EA15
:100CE000030F1EBF0021002030BD5FEA545C05D118
:100CF0004000494128BF41F0004130BD14F5800457
:100D00003CBF01F5801130BD01F0004545F0FE41CA
:100D100041F470014FF0000030BD7FEA645C1ABFFF
:100D2000194610467FEA655C1CBF0B46024650EA36
:100D3000013406BF52EA033591EA030F41F4002162
:100D400030BD00BF90F0000F04BF0021704730B5E8
:100D50004FF4806404F132044FF000054FF00001BD
:100D600050E700BF90F0000F04BF0021704730B57E
:100D70004FF4806404F1320410F0004548BF404253
:100D80004FF000013EE700BF42004FEAE2014FEAA8
:100D900031014FEA02701FBF12F07F4393F07F4F83
:100DA00081F06051704732F07F4208BF704793F086
:100DB0007F4F04BF41F40021704730B54FF4607499
:100DC00001F0004521F000411CE700BF50EA01029C
:100DD00008BF704730B54FF000050AE050EA010245
:100DE00008BF704730B511F0004502D5404261EBB5
:100DF00041014FF4806404F132045FEA915C3FF4F6
:100E0000D8AE4FF003025FEADC0C18BF03325FEA92
:100E1000DC0C18BF033202EBDC02C2F1200300FA43
:100E200003FC20FA02F001FA03FE40EA0E0021FA68
:100E300002F11444BDE600BF70B54FF0FF0C4CF456
:100E4000E06C1CEA11541DBF1CEA135594EA0C0F08
:100E500095EA0C0F00F0DEF82C4481EA030621EA43
:100E60004C5123EA4C5350EA013518BF52EA03357E
:100E700041F4801143F4801338D0A0FB02CE4FF030
:100E80000005E1FB02E506F00042E0FB03E54FF060
:100E90000006E1FB03569CF0000F18BF4EF0010E58
:100EA000A4F1FF04B6F5007F64F5407404D25FEA54
:100EB0004E0E6D4146EB060642EAC62141EA555107
:100EC0004FEAC52040EA5E504FEACE2EB4F1FD0C49
:100ED00088BFBCF5E06F1ED8BEF1004F08BF5FEAC7
:100EE000500E50F1000041EB045170BD06F0004679
:100EF00046EA010140EA020081EA0301B4EB5C0426
:100F0000C2BFD4EB0C0541EA045170BD41F480111D
:100F10004FF0000E013C00F3AB8014F1360FDEBF42
:100F2000002001F0004170BDC4F10004203C35DA1E
:100F30000C341BDC04F11404C4F1200500FA05F3A1
:100F400020FA04F001FA05F240EA020001F0004242
:100F500021F0004110EBD37021FA04F642EB0601B8
:100F60005EEA430E08BF20EAD37070BDC4F10C04E2
:100F7000C4F1200500FA04F320FA05F001FA04F2A6
:100F800040EA020001F0004110EBD37041F1000192
:100F90005EEA430E08BF20EAD37070BDC4F120059D
:100FA00000FA05F24EEA020E20FA04F301FA05F205
:100FB00043EA020321FA04F001F0004121FA04F2AD
:100FC00020EA020000EBD3705EEA430E08BF20EA7D
:100FD000D37070BD94F0000F0FD101F000464000B7
:100FE00041EB010111F4801F08BF013CF7D041EA39
:100FF000060195F0000F18BF704703F0004652003D
:1010000043EB030313F4801F08BF013DF7D043EA0D
:101010000603704794EA0C0F0CEA135518BF95EAC3
:101020000C0F0CD050EA410618BF52EA4306D1D14A
:1010300081EA030101F000414FF0000070BD50EA69
:10104000410606BF1046194652EA430619D094EAF3
:101050000C0F02D150EA013613D195EA0C0F05D1DD
:1010600052EA03361CBF104619460AD181EA030131
:1010700001F0004141F0FE4141F470014FF00000E9
:1010800070BD41F0FE4141F4780170BD70B54FF084
:10109000FF0C4CF4E06C1CEA11541DBF1CEA135504
:1010A00094EA0C0F95EA0C0F00F0A7F8A4EB0504E6
:1010B00081EA030E52EA03354FEA013100F08880DD
:1010C0004FEA03334FF0805545EA131343EA1263A6
:1010D0004FEA022245EA111545EA10654FEA00265B
:1010E0000EF000419D4208BF964244F1FD0404F514
:1010F000407402D25B084FEA3202B61A65EB030570
:101100005B084FEA32024FF480104FF4002CB6EB2C
:10111000020E75EB030E22BFB61A754640EA0C00AC
:101120005B084FEA3202B6EB020E75EB030E22BFEC
:10113000B61A754640EA5C005B084FEA3202B6EB2D
:10114000020E75EB030E22BFB61A754640EA9C00EC
:101150005B084FEA3202B6EB020E75EB030E22BFBC
:10116000B61A754640EADC0055EA060E18D04FEA7A
:10117000051545EA16754FEA06164FEAC30343EA1A
:1011800052734FEAC2025FEA1C1CC0D111F4801FE7
:101190000BD141EA00014FF000004FF0004CB6E7E0
:1011A00011F4801F04BF01430020B4F1FD0C88BF7F
:1011B000BCF5E06F3FF6AFAEB5EB030C04BFB6EB8A
:1011C000020C5FEA500C50F1000041EB045170BD7D
:1011D0000EF0004E4EEA113114EB5C04C2BFD4EBAA
:1011E0000C0541EA045170BD41F480114FF0000E2E
:1011F000013C90E645EA060E8DE60CEA135594EAAA
:101200000C0F08BF95EA0C0F3FF43BAF94EA0C0FAC
:101210000AD150EA01347FF434AF95EA0C0F7FF421
:1012200025AF104619462CE795EA0C0F06D152EA75
:1012300003353FF4FDAE1046194622E750EA410659
:1012400018BF52EA43067FF4C5AE50EA41047FF46A
:101250000DAF52EA43057FF4EBAE12E74FF0FF3CCF
:1012600006E000BF4FF0010C02E000BF4FF0010CA0
:101270004DF804CD4FEA410C7FEA6C5C4FEA430C19
:1012800018BF7FEA6C5C1BD001B050EA410C0CBF68
:1012900052EA430C91EA030F02BF90EA020F0020CA
:1012A000704710F1000F91EA030F58BF994208BF31
:1012B00090422CBFD8176FEAE37040F001007047EE
:1012C0004FEA410C7FEA6C5C02D150EA013C07D145
:1012D0004FEA430C7FEA6C5CD6D152EA033CD3D090
:1012E0005DF8040B704700BF8446104662468C468A
:1012F0001946634600E000BF01B5FFF7B7FF0028BD
:1013000048BF10F1000F01BD4DF808EDFFF7F4FFE5
:101310000CBF012000205DF808FB00BF4DF808ED70
:10132000FFF7EAFF34BF012000205DF808FB00BF93
:101330004DF808EDFFF7E0FF94BF012000205DF8B5
:1013400008FB00BF4DF808EDFFF7CEFF94BF01206A
:1013500000205DF808FB00BF4DF808EDFFF7C4FF63
:1013600034BF012000205DF808FB00BF4FEA410CAC
:101370007FEA6C5C02D150EA013C0AD14FEA430C8F
:101380007FEA6C5C02D152EA033C02D14FF00000CC
:1013900070474FF0010070474FEA410212F500120A
:1013A00015D211D56FF47873B3EB625212D94FEAAC
:1013B000C12343F0004343EA505311F0004F23FA96
:1013C00002F018BF404270474FF00000704750EAEB
:1013D000013005D111F0004008BF6FF000407047A8
:1013E0004FF00000704700BF08B50A4601460A48A2
:1013F00002F0BAFF094A1378B3FA83F35B0913705A
:1014000033B1074804F0F9FC06482EF0BBFF08BDD5
:10141000034804F006FDF7E7E80B0020340B00203A
:10142000D80B0020AC630308F8B51D4F1D4A0021FE
:10143000384604F0D2F91C4E1C4A0021304604F014
:10144000CCF91B4C1B4A0021204604F0C6F91A4D6A
:101450002A460321384604F0DEF92A4603213046A5
:1014600004F0D9F92A460321204604F0D4F92A468B
:101470000421204604F0CFF92A460621204604F034
:10148000CAF9384604F0DAF9304604F0D7F92046B4
:1014900004F0D4F9094802F0F7F90020F8BD00BFC4
:1014A000380B0020D9140008900B0020E914000824
:1014B000640B0020FD140008E9130008880D0020CB
:1014C00008B5021E18BF01224FF40051014801F077
:1014D0004EF908BD0008024008B58021014801F01E
:1014E0003FF908BD0018024008B54FF4807102486A
:1014F00001F036F908BD00BF0018024008B52021F0
:10150000014801F02DF908BD0018024008B50A464F
:1015100064230146014802F0ACF808BDD40C002059
:1015200008B502460221024801F021F908BD00BFBA
:101530000008024008B502460121024801F017F9EF
:1015400008BD00BF0018024008B50246022102484B
:1015500001F00DF908BD00BF0018024000B583B0CE
:101560000E4B00930E4B0F4A0F49104804F038FC05
:1015700000280DDBF02387220C490D4804F0A7F961
:10158000002808DB0A4804F099F903B05DF804FB71
:101590004FF0FF30F9E76FF00100F6E7491500085A
:1015A00035150008211500080D150008C80B00208E
:1015B000BC0B002010B5054C054A0021204604F064
:1015C00051FC204604F02DFC002010BDD80B00205B
:1015D000C114000810B582B0114C002201A92046A8
:1015E00001F027FF9DF807204FF0FF31204601F062
:1015F0003EFF9DF805204FF0FF31204601F037FFF8
:101600009DF806204FF0FF31204601F030FF9DF895
:1016100004204FF0FF31204601F029FF02B010BD39
:10162000540C002000B583B000220192094B196BC5
:1016300041F4001119631B6B03F400130193019B28
:1016400005210F2000F082FD0F2000F0B7FD03B050
:101650005DF804FB0038024008B5094C204604F050
:10166000CCFB4FF4FA7000F04BFD204604F0D9FBA0
:101670004FF4FA7000F044FD012004F08AFCECE71E
:10168000D80B002008B502F071FD012004F081FCA8
:10169000F9E7000008B517482EF074FEFFF7C4FE06
:1016A000FFF788FFFFF75AFF134804F08EF907F0A1
:1016B0001BFC06F003FB114802F0E6F80A22114673
:1016C0000F4802F0BCFD02F02BFD0E4804F06FFC49
:1016D0000D4B18600D4A00210D4804F0FBFB0D4B2B
:1016E00018600D4A00210D4804F0F4FB0C4B186003
:1016F00008BD00BFCC630308BC0B0020D00D002048
:10170000E80B002060640308FC0B00201864030849
:1017100059160008E00B00203C64030885160008F9
:10172000E40B002010B504460368B3F1804F04D0E9
:101730002268054B9A4203D010BD04F097F8F7E7F2
:10174000012022F023FAF7E7000400402DE9F041E0
:101750008AB0002405940694079408940994009490
:10176000364B1A6B42F004021A631A6B02F0040241
:101770000092009A01941A6B42F080021A631A6B6D
:1017800002F080020192019A02941A6B42F0010267
:101790001A631A6B02F001020292029A03941A6B06
:1017A00042F040021A631A6B02F040020392039A5D
:1017B00004941A6B42F002021A631B6B03F00203DB
:1017C0000493049BDFF87C80224642F202014046EB
:1017D00000F0CDFF1A4D22460121284600F0C7FF38
:1017E00001220221284600F0C2FF4FF40053059366
:1017F000012706970794089405A9404600F0BEFE0D
:1018000002230593069707940326089605A94046E8
:1018100000F0B4FE059606970794089605A9284699
:1018200000F0ACFE4FF4D07305930694079405A91D
:10183000284600F0A3FE0AB0BDE8F081003802405F
:10184000001802400008024008B50B480B4B03602B
:101850000B4B436000238360C3604FF480420261FE
:1018600043618361C361036200F088FF00B908BD72
:1018700000F040F8FBE700BF000C002000540040DF
:10188000A086010030B589B000230393049305932B
:10189000069307930268144B9A4201D009B030BDF9
:1018A00000250195114C236B43F002032363236B46
:1018B00003F002030193019BC023039312230493BB
:1018C000032306930423079303A9094800F056FE57
:1018D0000295236C43F400132364236C03F4001378
:1018E0000293029BDAE700BF005400400038024038
:1018F0000004024072B6FEE700B595B03022002128
:1019000008A82EF08BFC0023039304930593069301
:1019100007930193224A116C41F080511164126CBB
:1019200002F080520192019A02931E4B1A6842F40F
:1019300080421A601B6803F480430293029B0523D4
:1019400008934FF48033099301230A9302220E92E5
:101950004FF480030F9304231093A8211191129246
:10196000139308A800F0E8FFA8B90F2303930223FC
:101970000493002305934FF4A05306934FF4805330
:101980000793052103A801F043FA30B901F0D0F91B
:1019900015B05DF804FBFFF7ADFFFFF7ABFF00BF2D
:1019A000003802400070004008B500F07DFBFFF7F2
:1019B000A3FFFFF7CBFEFFF735FEFFF745FF00F073
:1019C0009FF800F013FA00F0BBFA00F047FA00F0BD
:1019D00009F800F073F804F04FFAFFF75BFE04F02B
:1019E0005DFAFEE700B587B00023019302930393ED
:1019F0000493059300931D481D4A026043607F22B3
:101A00008260FF22C26003614361836101F0E3FBF6
:101A100018BB16238DF8043028238DF805300022DA
:101A20008DF806200492059201A9104801F025FCCA
:101A3000B0B902238DF800308DF8013007238DF8FE
:101A4000023017238DF8033000226946074801F061
:101A500073FC40B907B05DF804FBFFF74BFFD8E714
:101A6000FFF748FFE5E7FFF745FFF3E7540C0020D9
:101A70000028004000B585B0002300930193029335
:101A8000039302680B4B9A4202D005B05DF804FB49
:101A9000022300934FF480730393684601F0A0FA89
:101AA00020B9054B0122C3F83C2EEEE7FFF722FFD9
:101AB000F7E700BF002800400000474208B50E4885
:101AC0000E4B03604FF48273436000238360C36056
:101AD00002220261012242614FF400728261C361FD
:101AE0000362436283620A23C36201F063FD00B9AB
:101AF00008BDFFF7FFFEFBE7D40C002000300140DB
:101B000008B50E480E4B03604FF482734360002308
:101B10008360C36002220261012242614FF40072BD
:101B20008261C3610362436283620A23C36201F07C
:101B300041FD00B908BDFFF7DDFEFBE72C0D0020DD
:101B4000003800402DE9F0438BB000230593069345
:101B50000793089309930368414A934206D00446C9
:101B6000404A934225D00BB0BDE8F083002100919C
:101B70003D4B5A6C42F480525A645A6C02F48052C3
:101B80000092009A01911A6B42F001021A631B6BDA
:101B900003F001030193019BA02305930223069305
:101BA000032308930523099305A9304800F0E6FCB8
:101BB000D9E7002502952C4B1A6C42F480421A6436
:101BC0001A6C02F480420292029A03951A6B42F058
:101BD00004021A631A6B02F004020392039A04953A
:101BE0001A6B42F002021A631B6B03F002030493A8
:101BF000049B082305934FF00209CDF818904FF08D
:101C00000308CDF820800527099705A9184800F09A
:101C1000B5FC4FF480660596CDF818900795CDF881
:101C20002080099705A9134800F0A8FC1248134B1F
:101C30000360456040238360C5600661456185613E
:101C4000C5614FF440330362456200F043FB18B9AD
:101C5000094BA3649C6386E7FFF74CFEF8E700BFDF
:101C600000300140003800400038024000000240CF
:101C70000008024000040240740C00207060024022
:101C800000B583B0002200920D4B596C41F48041A5
:101C90005964596C01F48041009100990192196CCA
:101CA00041F0805119641B6C03F080530193019B38
:101CB0000F216FF0010000F049FA03B05DF804FB5A
:101CC0000038024008B501F07BF9FEE7FEE7FEE7C9
:101CD000FEE7FEE7704708B500F000FA05F06CFD7E
:101CE000012800D108BD04F0E5FAFBE708B5024879
:101CF00000F056FB08BD00BF740C002008B5024878
:101D000001F00AFE08BD00BF880D002008B502489A
:101D100001F002FE08BD00BFD00D00200120704779
:101D200008B52EF0C1F9162303604FF0FF3008BD4F
:101D300008B54FF0FF31FFF7F3FFFEE770B50C4633
:101D40001646002506E0AFF30080214601F8010B9E
:101D500001350C46B542F6DB304670BD70B50C4619
:101D60001646002504E014F8010B00F03DF901359A
:101D7000B542F8DB304670BD4FF0FF3070474FF48E
:101D800000534B60002070470120704700207047CF
:101D900010B503460C4A0D490D48006840B10C4887
:101DA00000680344521A934206D8094A136010BDD2
:101DB0000748084C0460F2E72EF076F90C23036024
:101DC0004FF0FF30F3E700BF0000022000040000E6
:101DD000840D002058E70120034AD2F8883043F4EC
:101DE0007003C2F88830704700ED00E000B587B09E
:101DF00000230293039304930593009301931648E1
:101E00004FF08042026044F29F12426083603122B0
:101E1000C26003618023836101F0A0FE90B94FF49A
:101E20008053029302A90C4801F0D1FE68B9002347
:101E3000009301936946084801F048FF40B907B094
:101E40005DF804FBFFF756FDE9E7FFF753FDEEE70A
:101E5000FFF750FDF3E700BF880D002000B587B005
:101E60000023029303930493059300930193154871
:101E7000154A026044F29F12426083600A22C260E7
:101E800003618023836101F069FE90B94FF48053B0
:101E9000029302A90B4801F09AFE68B9002300934F
:101EA00001936946074801F011FF40B907B05DF89A
:101EB00004FBFFF71FFDE9E7FFF71CFDEEE7FFF767
:101EC00019FDF3E7D00D00200004004000B583B0F9
:101ED0000368B3F1804F05D0174A934217D003B07F
:101EE0005DF804FB0022009203F50E33196C41F0FB
:101EF000010119641B6C03F001030093009B052191
:101F00001C2000F023F91C2000F058F9E7E700221C
:101F100001920A4B196C41F0020119641B6C03F029
:101F200002030193019B05211D2000F00FF91D20E4
:101F300000F044F9D3E700BF00040040003802403D
:101F400008B50A480A4B03604FF4E13343600023AD
:101F50008360C36003610C2242618361C36101F04D
:101F6000C9FF00B908BDFFF7C5FCFBE7180E00204C
:101F70000010014000B589B000230393049305933A
:101F800006930793026803F1804303F588339A426E
:101F900002D009B05DF804FB0021019103F59433F0
:101FA0005A6C42F010025A645A6C02F0100201920C
:101FB000019A02911A6B42F001021A631B6B03F043
:101FC00001030293029B4FF4C06303930223049323
:101FD000032306930723079303A9024800F0CEFAD0
:101FE000D7E700BF0000024000B583B001904FF674
:101FF000FF73012201A9034801F0ABFF019803B070
:102000005DF804FB180E0020DFF834D00D480E49AF
:102010000E4A002302E0D458C4500433C4188C4242
:10202000F9D30B4A0B4C002301E013600432A242A7
:10203000FBD3FFF7D1FE2EF051F8FFF7B5FC704748
:102040000000022000000020180B002074AB0708DD
:10205000180B002058E70120FEE7000010B50446E9
:102060000E4B18784FF47A73B3FBF0F30C4A1068F8
:10207000B0FBF3F000F0B0F868B90F2C01D90120E3
:102080000AE0002221464FF0FF3000F05FF8054BD8
:102090001C60002000E0012010BD00BF04000020F3
:1020A000000000200800002008B50B4B1A6842F41D
:1020B00000721A601A6842F480621A601A6842F468
:1020C00080721A60032000F02FF80F20FFF7C6FF80
:1020D000FFF7D6FD002008BD003C0240034A11680E
:1020E000034B1B780B441360704700BF5C0E00204D
:1020F00004000020014B1868704700BF5C0E0020F0
:1021000038B50446FFF7F6FF0546B4F1FF3F02D0AD
:10211000044B1B781C44FFF7EDFF401BA042FAD391
:1021200038BD00BF04000020074AD36823F4E063F1
:102130001B041B0C000200F4E060034343F0BF6388
:1021400043F40033D360704700ED00E000B5194B55
:10215000DB68C3F30223C3F1070CBCF1040F28BFF3
:102160004FF0040C03F1040EBEF1060F18D9033B27
:102170004FF0FF3E0EFA0CFC21EA0C0199400EFADA
:1021800003F322EA0303194300280BDB0901C9B258
:1021900000F1604000F5614080F800135DF804FB39
:1021A0000023E5E700F00F000901C9B2024B195402
:1021B000F4E700BF00ED00E014ED00E0002807DBCD
:1021C00000F01F02400901239340024A42F82030E8
:1021D000704700BF00E100E00138B0F1807F0BD212
:1021E0004FF0E0235861054AF02182F823100020C7
:1021F000986107221A6170470120704700ED00E0E6
:1022000010B40368D9B210390C4AA2FB014212097A
:102210000B4CA25CC2655F2909D923F47F7323F0BC
:10222000030304338365806D5DF8044B704723F42A
:102230007F7323F003038365F5E700BFABAAAAAA67
:1022400088640308836A826992B9012B0AD0022B41
:1022500002D00BB100207047C36A13F0807F28D1F1
:1022600000207047C36AB3F1C07F24D000207047BC
:10227000B2F5005F09D0022B25D9032B25D1C36A03
:1022800013F0807F23D100207047032B03D8DFE8B1
:1022900003F01404140A00207047C36A13F0807F0F
:1022A0000DD100207047C36AB3F1C07F09D0002070
:1022B00070470120704701207047012070470120BE
:1022C00070470120704701207047002070470120AF
:1022D0007047000070B50446FFF70CFF002C5BD080
:1022E0000546022384F83530002384F83430226810
:1022F000136823F00103136023681A6812F0010FBA
:102300000AD0FFF7F7FE431B052BF5D920236365A1
:10231000032084F8350070BD1A68204810406168B9
:10232000A2680A43E1680A4321690A4361690A43D2
:10233000A1690A43E1690A43216A0A430243616AC7
:1023400004291ED01A602668756925F00705636A9E
:102350001D43042B07D1A36A1D43E36A1BB120462A
:10236000FFF770FF90B975612046FFF749FFE26DF6
:102370003F239340836000206065012384F835305B
:10238000C9E7E16A206B01430A43DBE74023636549
:10239000012084F83500BEE70120BCE73F8010F043
:1023A000F0B583B0044600230193724B1D68724B55
:1023B000A3FB0535AD0A876D3E68C26D08239340C7
:1023C000334210D003681A6812F0040F0BD01A6859
:1023D00022F004021A60C26D08239340BB60436D73
:1023E00043F001034365E26D01239340334209D07A
:1023F0002268526912F0800F04D0BB60636D43F015
:1024000002036365E26D04239340334209D02268DE
:10241000126812F0020F04D0BB60636D43F0040336
:102420006365E26D10239340334224D02268126822
:1024300012F0080F1FD0BB6023681A6812F4802FB7
:102440000DD01B6813F4002F04D1236C9BB12046E0
:10245000984710E0A36C73B1204698470BE01A68C8
:1024600012F4807F03D11A6822F008021A60236CEC
:102470000BB120469847E26D20239340334255D05C
:102480002268126812F0100F50D0BB6094F83530FB
:10249000DBB2052B0ED023681A6812F4802F33D0DC
:1024A0001B6813F4002F2AD1636C002B3ED020460A
:1024B00098473BE02268136823F0160313602268F4
:1024C000536923F080035361236CA3B1226813681E
:1024D00023F008031360E26D3F239340BB600123A8
:1024E00084F83530002384F83430236D002B3FD03E
:1024F000204698473CE0A36C002BE7D1EBE7E36B69
:10250000A3B12046984711E01A6812F4807F09D1E0
:102510001A6822F010021A60012384F83530002373
:1025200084F83430E36B0BB120469847636DFBB100
:10253000636D13F0010F17D0052384F8353022683E
:10254000136823F001031360019B01330193AB4235
:1025500004D823681B6813F0010FF5D1012384F818
:102560003530002384F83430E36C0BB120469847B3
:1025700003B0F0BD00000020B5814E1B00230F2BDF
:1025800000F2E48070B582B060E085685E000324EC
:10259000B44025EA0405CC68B4402C438460456807
:1025A00025EA02054C68C4F300129A402A434260AF
:1025B0005AE0DC08083450F8246003F00702950064
:1025C0000F22AA4026EA020E0A69AA4042EA0E0237
:1025D00040F824205CE0072200E0002202FA0EF21C
:1025E0002A4302345A4D45F824205A4A94686FEA27
:1025F0000C0224EA0C054E6816F4801F01D04CEA48
:102600000405544CA560E46802EA04054E6816F41B
:10261000001F01D04CEA04054E4CE560646802EAF4
:1026200004054E6816F4003F01D04CEA0405494CFD
:102630006560246822404D6815F4803F01D04CEA63
:102640000402444C226001330F2B7DD801229A40B2
:102650000C6804EA020C32EA0404F4D14C6804F079
:102660000304013C012C90D94A6802F00302032ABA
:1026700009D0C4685D000322AA4024EA02048A68E3
:10268000AA402243C2604A6802F00302022A90D0A4
:1026900004684FEA430E032202FA0EF224EA02040F
:1026A0004A6802F0030202FA0EF2224302604A680C
:1026B00012F4403FC7D000220192274A546C44F4E0
:1026C00080445464526C02F480420192019A9C0846
:1026D000A51C1F4A52F8255003F003024FEA820E50
:1026E0000F2202FA0EF225EA02051C4A90423FF43C
:1026F00074AF02F5806290421AD002F58062904277
:1027000018D002F58062904216D002F580629042A5
:1027100014D002F58062904212D002F5806290429D
:1027200010D002F5806290423FF455AF082255E781
:10273000012253E7022251E703224FE704224DE72B
:1027400005224BE7062249E702B070BD704700BF83
:1027500000380140003C01400038024000000240C7
:102760000369194201D001207047002070470AB167
:10277000816170470904816170470000002800F002
:10278000CC8070B5044690F83D30002B77D02423E0
:1027900084F83D302268136823F001031360226837
:1027A000136843F4004313602268136823F4004362
:1027B000136000F0E3FB62685A4B9A4264D85A4BAC
:1027C00098428CBF00230123002B40F0A88057497A
:1027D000A1FB00318B0C25686A6822F03F0242EAB7
:1027E00091426A6021680A6A22F03F0266684D4D94
:1027F000AE424FD8013313430B622168CA6922F4F9
:102800004F4222F0FF026668464B9E424CD8431E60
:102810007600B3FBF6F3013340F6FC70034278D048
:10282000C3F30B031343CB6121680B6823F0C00390
:10283000E269206A024313430B6021688B6823F42A
:10284000034323F0FF032269E068024313438B60D4
:102850002168CB6823F0FF036269A0690243134338
:10286000CB602268136843F00103136000202064EA
:10287000202384F83D30206384F83E0070BD80F84A
:102880003C30FEF7FFFF82E7294B98428CBF0023C4
:10289000012399E74FF4967505FB03F3254DA5FB3E
:1028A00003539B090133A6E7A368BBB9451E06EB9A
:1028B000460CB5FBFCF50135C5F30B05B5FA85F5FE
:1028C0006D0945BBC3B9013806EB4603B0FBF3F312
:1028D0000133C3F30B0343F40043A3E7451E06EBA8
:1028E000860C0CEB8C0CB5FBFCF50135C5F30B0528
:1028F000B5FA85F56D09E4E7013806EB860303EBCD
:102900008303B0FBF3F30133C3F30B0343F44043FE
:1029100088E7042386E7012384E70120704701202C
:10292000ACE700BFA08601007F841E0083DE1B434E
:10293000FF083D00D34D6210002800F0E08170B523
:1029400082B00446036813F0010F3BD09F4B9B6895
:1029500003F00C03042B2CD09C4B9B6803F00C035E
:10296000082B21D06368B3F5803F4FD0B3F5A02F7B
:1029700052D0964B1A6822F480321A601A6822F4F8
:1029800080221A606368002B50D0FFF7B3FB054626
:102990008E4B1B6813F4003F14D1FFF7ABFB401BB9
:1029A0006428F5D90320B1E1884B5B6813F4800FEC
:1029B000D8D0864B1B6813F4003F03D06368002B0C
:1029C00000F09F81236813F0020F54D07F4B9B6867
:1029D00013F00C0F3ED07D4B9B6803F00C03082BCB
:1029E00033D0E368002B68D0794B01221A60FFF7DF
:1029F00081FB0546754B1B6813F0020F54D1FFF79E
:102A000079FB401B0228F5D903207FE16F4A136848
:102A100043F480331360B5E76C4B1A6842F48022AC
:102A20001A601A6842F480321A60ABE7FFF762FB63
:102A30000546664B1B6813F4003FC3D0FFF75AFBF3
:102A4000401B6428F5D9032060E1604B5B6813F4F8
:102A5000800FC6D15D4B1B6813F0020F03D0E368F3
:102A6000012B40F05081594A136823F0F803216983
:102A700043EAC1031360236813F0080F42D063696F
:102A80006BB3534B0122C3F8802EFFF733FB05468F
:102A90004E4B5B6F13F0020F34D1FFF72BFB401B43
:102AA0000228F5D9032031E1484A136823F0F803DE
:102AB000216943EAC1031360DDE7454B00221A6038
:102AC000FFF718FB0546414B1B6813F0020FD2D0ED
:102AD000FFF710FB401B0228F5D9032016E13C4B01
:102AE0000022C3F8802EFFF705FB0546374B5B6FCE
:102AF00013F0020F06D0FFF7FDFA401B0228F5D9AC
:102B0000032003E1236813F0040F77D02F4B1B6CD5
:102B100013F0805F33D1002301932C4B1A6C42F0E9
:102B200080521A641B6C03F080530193019B0125B2
:102B3000284B1B6813F4807F23D0A368012B34D06B
:102B4000052B38D0214B1A6F22F001021A671A6F39
:102B500022F004021A67A368002B3DD0FFF7CAFADF
:102B600006461A4B1B6F13F0020F46D1FFF7C2FA4D
:102B7000801B41F288339842F3D90320C6E0002538
:102B8000D6E7144A136843F480731360FFF7B2FA70
:102B90000646104B1B6813F4807FCED1FFF7AAFACC
:102BA000801B0228F5D90320B0E0084A136F43F0D8
:102BB00001031367CFE7054B1A6F42F004021A674F
:102BC0001A6F42F001021A67C5E700BF00380240E1
:102BD0000000474200700040FFF78CFA0646524B57
:102BE0001B6F13F0020F08D0FFF784FA801B41F22D
:102BF00088339842F3D9032088E0EDB9A369002B0C
:102C000000F08380484A926802F00C02082A51D0F2
:102C1000022B17D0454B00221A66FFF76BFA0446C9
:102C2000414B1B6813F0007F42D0FFF763FA001B93
:102C30000228F5D9032069E03B4A136C23F0805346
:102C40001364DBE7394B00221A66FFF753FA054697
:102C5000354B1B6813F0007F06D0FFF74BFA401B83
:102C60000228F5D9032051E0E369226A1343626A1E
:102C700043EA8213A26A5208013A43EA0243E26A33
:102C800043EA0263284A5360284B01221A66FFF781
:102C900031FA0446244B1B6813F0007F06D1FFF77E
:102CA00029FA001B0228F5D903202FE000202DE08F
:102CB00000202BE0012B2BD01B4B5B6803F4800121
:102CC000E269914226D103F03F02216A8A4223D170
:102CD000616A47F6C0721A40B2EB811F1ED103F43D
:102CE0004031A26A5208013AB1EB024F18D103F009
:102CF0007063E26AB3EB026F14D1002006E001209A
:102D00007047012002E0012000E0002002B070BD09
:102D10000120FBE70120F9E70120F7E70120F5E7B3
:102D20000120F3E70120F1E70038024000004742AC
:102D3000014B0122DA6470470000474208B5314B6D
:102D40009B6803F00C03042B57D0082B57D12D4B55
:102D50005A6802F03F025B6813F4800F2AD0294BB7
:102D60005968C1F3881C4FEA4C11B1EB0C006EEBB3
:102D70000E0E4FEA8E1343EA90638101091A63EB4A
:102D80000E03DB0043EA5173C90011EB0C0C43F155
:102D90000003590200234FEA4C2041EADC51FDF7C1
:102DA0002FFA184B5B68C3F3014301335B00B0FBA0
:102DB000F3F025E0134B5968C1F3881C4FEA4C111E
:102DC000B1EB0C006EEB0E0E4FEA8E1343EA9063EC
:102DD0008101091A63EB0E03DB0043EA5173C9005A
:102DE00011EB0C0C43F10003990200234FEA8C20F5
:102DF00041EA9C51FDF704FAD3E7034800E0034899
:102E000008BD00BF0038024000127A000024F40020
:102E1000002800F09B8070B50D4604464F4B1B68A0
:102E200003F007038B4208D2CBB24C4A13701368ED
:102E300003F007038B4240F08B80236813F0020FEE
:102E400017D013F0040F04D0454A936843F4E053BD
:102E50009360236813F0080F04D0414A936843F449
:102E6000604393603E4A936823F0F003A1680B43EC
:102E70009360236813F0010F32D06368012B21D0D7
:102E80009A1E012A25D9364A126812F0020F61D023
:102E900033498A6822F0030213438B60FFF72AF953
:102EA00006462F4B9B6803F00C036268B3EB820F5E
:102EB00016D0FFF71FF9801B41F288339842F0D9F2
:102EC000032042E0264A126812F4003FE0D10120BC
:102ED0003BE0234A126812F0007FD9D1012034E090
:102EE0001E4B1B6803F00703AB4207D9EAB21B4B2A
:102EF0001A701B6803F00703AB422DD1236813F04F
:102F0000040F06D0164A936823F4E053E1680B439C
:102F10009360236813F0080F07D0114A936823F4D5
:102F20006043216943EAC1039360FFF707FF0C4B3D
:102F30009B68C3F303130B4AD35CD8400A4B186059
:102F40000A4B1868FFF78AF8002070BD012070470F
:102F50000120FAE70120F8E70120F6E7003C0240F3
:102F600000380240706403080000002008000020C0
:102F7000014B1868704700BF0000002008B5FFF73C
:102F8000F7FF044B9B68C3F38223034AD35CD8400A
:102F900008BD00BF003802408064030808B5FFF791
:102FA000E7FF044B9B68C3F34233034AD35CD8402A
:102FB00008BD00BF0038024080640308704700006D
:102FC00008B5064BDB6813F0800F00D108BDFFF792
:102FD000F5FF024B80229A73F8E700BF00380240E9
:102FE00030B583B00446036813F0050F06D123689B
:102FF00013F0020F2ED1002003B030BD4A4B002247
:103000009A66FFF777F80546484B1B6813F0006F88
:1030100006D0FFF76FF8431B022BF5D90320EBE72F
:103020006268A3681B0743EA8213404AC2F88430EF
:103030003D4B01229A66FFF75DF805463B4B1B6846
:1030400013F0006FD3D1FFF755F8431B022BF5D9CE
:103050000320D1E700230193344B1A6C42F08052D5
:103060001A641B6C03F080530193019B304A136870
:1030700043F480731360FFF73DF805462C4B1B6843
:1030800013F4807F06D1FFF735F8431B022BF5D9E7
:103090000320B1E7254B1B6F13F4407314D0E26893
:1030A00002F440729A420FD0204B1A6F22F4407201
:1030B0001D490120C1F8400E0020C1F8400E1A67DA
:1030C0001B6F13F0010F13D1E36803F44072B2F5E4
:1030D000407F1ED0154A936823F4F8139360134978
:1030E0000B6FE268C2F30B0213430B67002083E708
:1030F000FFF700F805460D4B1B6F13F0020FE3D1ED
:10310000FEF7F8FF401B41F288339842F3D90320C1
:1031100072E706498A6822F4F81223F0704323F418
:10312000407313438B60DAE70000474200380240E7
:103130000070004038B504460268D36823F0A0034D
:10314000D360FEF7D7FF05462368DB6813F0200F36
:1031500007D1FEF7CFFF401BB0F57A7FF4D90320EB
:1031600000E0002038BD70B50368DA6812F0400F47
:1031700002D00025284670BD0446DA6842F080027D
:10318000DA60FEF7B7FF064600252368DB6813F018
:10319000400FEFD1002DEDD1FEF7ACFF831BB3F54F
:1031A0007A7FF2D9042363770125EEE70268D368BA
:1031B00023F08003D36003689B6813F0200F01D0D5
:1031C0000020704710B50446FFF7B4FF10B1042388
:1031D0006377012010BD002841D010B50446437F1D
:1031E000E3B1022363772368CA225A622368532219
:1031F0005A622046FFF7B7FFA0B158B92268136C96
:1032000023F4802313642268136CA1690B431364B5
:10321000012363772368FF225A6210BD0377FEF70C
:1032200029FCDEE72268936823F4E00323F04003DF
:10323000936021688A686368206903436069034377
:1032400013438B602368E2681A6122681369A168DE
:1032500043EA014313612046FFF7A8FFCDE70120B1
:103260007047002303E00133DBB20A38C0B20928FB
:10327000F9D81B01DBB218437047037F012B59D0EB
:1032800070B504460E4601230377022343774ABBF9
:1032900003689B6813F0400F01D10023CB70307896
:1032A000FFF7DFFF05047078FFF7DBFF45EA002535
:1032B000B078FFF7D6FF0543F07845EA80552368DC
:1032C000CA225A62236853225A622046FFF74BFFF4
:1032D000D0B108B9012363772368FF225A62002323
:1032E000237770BD03689B6813F0400F01D1002362
:1032F000CB70337875782D0245EA0345B0780543E5
:10330000F07845EA8055DAE7236805F07F3525F047
:10331000FE451D602268936823F480239360216832
:103320008B68F2683069024313438B602046FFF7D5
:103330003DFFCEE702207047037F012B48D070B5D8
:1033400004460E4601230377022343773AB94B78AC
:1033500013F0100F03D003F0EF030A334B7012BBCE
:10336000F078FFF77EFF05047078FFF77AFF45EAF3
:103370000025B078FFF775FF0543307845EA403502
:103380002368CA225A62236853225A622046FFF7F2
:10339000EAFE98B108B9012363772368FF225A62D5
:1033A0000023237770BDF37875782D0245EA034535
:1033B000B0780543307845EA4035E1E7236825F0E9
:1033C0007F4525F0C0055D602046FFF7EFFEE1E791
:1033D00002207047030903EB830300F00F0000EBAA
:1033E0004300C0B2704770B503689B6A4B600368C6
:1033F0001B69C3F30E038B6003681B68C3F30540AE
:103400000870C3F306264E7003F07F058D70C3F37A
:103410008053CB705AB90C46FFF7DCFF2070304662
:10342000FFF7D8FF60702846FFF7D4FFA070002098
:1034300070BD70B503685B68C3F30740C870C3F321
:1034400004264E7003F03F058D70C3F342330B70BA
:103450005AB90C46FFF7BEFFE0703046FFF7BAFFDF
:1034600060702846FFF7B6FFA070002070BD0368AB
:10347000503343F8212070472DE9F04782B00546CC
:10348000884617461E46FEF735FE0A9B1B1A03EBBD
:103490000609FEF72FFE82462B4B1B68C3F3CB3386
:1034A00009FB03F301932B689C6838EA04030CBF03
:1034B0004FF0010C4FF0000CBC4540D0B6F1FF3F7F
:1034C000F1D0FEF717FEA0EB0A0048450AD2B9F189
:1034D000000F07D0019A02B14A46019B013B0193BC
:1034E0009146E0E72A68536823F0E00353606B6875
:1034F000B3F5827F0BD0AB6AB3F5005F14D0012324
:1035000085F85130002385F85030032018E0AB686F
:10351000B3F5004F02D0B3F5806FECD12A68136881
:1035200023F040031360E6E72A68136823F400538E
:1035300013602A68136843F400531360DFE7002028
:1035400002B0BDE8F08700BF0000002010B584B0D5
:103550000446164B1868164BA3FB0030400D4FF481
:103560007A7303FB00F003906368B3F5827F0BD09E
:10357000039BBBB1039B013B039323689B6813F040
:10358000800FF5D100200EE000920B460022802132
:103590002046FFF771FF30B1636D43F02003636590
:1035A000032000E0002004B010BD00BF0000002098
:1035B000819F5E1600285AD010B50446436A33B97D
:1035C0004368B3F5827F05D00023C36102E0002386
:1035D000036143610023A36294F85130002B40D073
:1035E000022384F851302268136823F040031360EB
:1035F000636803F48273A26802F404421343E2682E
:1036000002F400621343226902F00202134362696A
:1036100002F001021343A26902F400721343E2694B
:1036200002F038021343226A02F080021343A26AB6
:1036300002F40052216813430B60638B03F0040310
:10364000626A02F01002216813434B602268D3695A
:1036500023F40063D36100206065012384F85130B6
:1036600010BD84F850302046FEF76CFAB8E7012010
:1036700070472DE9F04383B01D4690F85030012B80
:1036800000F0D180044688469146012380F85030EE
:10369000FEF730FD074694F85160F6B2012E40F077
:1036A000AF80B8F1000F00F0AC80B9F1000F00F06E
:1036B000A880032384F8513000236365C4F8308068
:1036C000A4F83490A4F83690A363A387E3876364D7
:1036D0002364A368B3F5004F1ED023681A6812F064
:1036E000400F03D11A6842F040021A60E368B3F554
:1036F000006F1CD0636813B1B9F1010F52D1226B76
:10370000236812781A73236B01332363E38E9BB211
:10371000013B9BB2E38645E02268136823F0400337
:1037200013602268136843F480431360D5E763682D
:1037300013B1B9F1010F16D1226B23681288DA6038
:10374000236B02332363E38E9BB2013B9BB2E38680
:1037500009E0FEF7CFFCC01BA84202D3B5F1FF3F42
:1037600059D1002D59D0E38E9BB2002B33D0236862
:103770009A6812F0020FECD0226B1288DA60236B89
:1037800002332363E38E9BB2013B9BB2E386EAE7FD
:10379000FEF7B0FCC01BA84202D3B5F1FF3F3ED1FB
:1037A000002D3ED0E38E9BB2ABB123689A6812F035
:1037B000020FEDD0226B12781A73236B013323634F
:1037C000B4F836C01FFA8CFC0CF1FF3C1FFA8CFCDD
:1037D000A4F836C0E6E73A4629462046FFF7B6FE8B
:1037E00008B120236365A36833B901932368DA68BD
:1037F00001929B680193019B636D13B9002600E061
:103800000226012384F85130002384F850303046DA
:1038100003B0BDE8F0830326F3E70326F1E70326B0
:10382000EFE70326EDE70226F1E710B4036A046A26
:1038300024F001040462846924F0F00C4CEA0212C2
:1038400023F00A030B43826103625DF8044B704767
:1038500010B4046A24F0100404628469036A24F436
:10386000704C4CEA023223F0A00343EA0113826158
:1038700003625DF8044B7047836823F070030B43C9
:1038800043F007038360704790F83D30DBB2012BB3
:1038900037D1022380F83D300268D36843F001033A
:1038A000D3600368194A934220D0B3F1804F1DD0F2
:1038B000A2F57C42934219D002F58062934215D062
:1038C00002F58062934211D002F5784293420DD006
:1038D00002F57052934209D0A2F59432934205D07A
:1038E0001A6842F001021A60002070479A6802F0DC
:1038F0000702062A07D01A6842F001021A60002067
:103900007047012070470020704700BF0000014051
:10391000704770477047704710B5044603681A69CE
:1039200012F0020F11D0DA6812F0020F0DD06FF012
:1039300002021A610123037703689B6913F0030FE6
:1039400070D0FFF7E6FF0023237723681A6912F08F
:10395000040F12D0DA6812F0040F0ED06FF00402D8
:103960001A610223237723689B6913F4407F5FD099
:103970002046FFF7CEFF0023237723681A6912F051
:10398000080F12D0DA6812F0080F0ED06FF008029C
:103990001A61042323772368DB6913F0030F4ED0E9
:1039A0002046FFF7B6FF0023237723681A6912F039
:1039B000100F12D0DA6812F0100F0ED06FF0100254
:1039C0001A61082323772368DB6913F4407F3DD015
:1039D0002046FFF79EFF0023237723681A6912F021
:1039E000010F03D0DA6812F0010F36D123681A698B
:1039F00012F0800F03D0DA6812F0800F34D1236800
:103A00001A6912F0400F03D0DA6812F0400F32D179
:103A100023681A6912F0200F03D0DA6812F0200F21
:103A200030D110BDFFF774FF2046FFF773FF8AE720
:103A30002046FFF76DFF2046FFF76CFF9BE720460F
:103A4000FFF766FF2046FFF765FFACE72046FFF76C
:103A50005FFF2046FFF75EFFBDE76FF001021A61CE
:103A60002046FDF75FFEC1E76FF080021A61204635
:103A700000F073F9C3E76FF040021A612046FFF7C8
:103A80004AFFC5E76FF020021A61204600F064F992
:103A9000C7E700000368304A904212D0B0F1804F6F
:103AA0000FD0A2F57C4290420BD002F5806290428A
:103AB00007D002F58062904203D002F5784290422E
:103AC00003D123F070034A681343234A90422AD05B
:103AD000B0F1804F27D0A2F57C42904223D002F56E
:103AE000806290421FD002F5806290421BD002F5A6
:103AF0007842904217D002F57052904213D002F5EE
:103B0000806290420FD002F5806290420BD0A2F505
:103B10009832904207D002F58062904203D002F5BD
:103B20008062904203D123F44073CA68134323F0A8
:103B300080034A69134303608B68C3620B68836226
:103B4000054B984203D003F58063984201D10B697D
:103B500003630123436170470000014040B310B587
:103B6000044690F83D30F3B1022384F83D302146FD
:103B700051F8040BFFF78EFF012384F8463084F8D8
:103B80003E3084F83F3084F8403084F8413084F887
:103B9000423084F8433084F8443084F8453084F867
:103BA0003D30002010BD80F83C30FEF78FF9DBE798
:103BB0000120704710B4846824F47F4C42EA032249
:103BC0000A4342EA0C0282605DF8044B704790F8A9
:103BD0003C30012B78D010B50446012380F83C30EE
:103BE000022380F83D300268936823F47F4323F07A
:103BF000770393600B68602B4CD029D8402B54D0AE
:103C00000CD9502B22D1CA6849680068FFF70DFE15
:103C100050212068FFF730FE002005E0202B0DD05A
:103C200009D9302B0AD00120012384F83D3000232C
:103C300084F83C3010BD0BB1102B05D1194620681B
:103C4000FFF71AFE0020EFE70120EDE70120EBE788
:103C5000B3F5805F34D0B3F5005F0CD1CB684A6810
:103C600089680068FFF7A6FF2268936843F48043E1
:103C700093600020D8E7702B24D1CB684A6889680C
:103C80000068FFF797FF2268936843F0770393601B
:103C90000020C9E7CA6849680068FFF7D9FD6021BC
:103CA0002068FFF7E9FD0020BEE7CA6849680068A0
:103CB000FFF7BBFD40212068FFF7DEFD0020B3E7E2
:103CC0000020B1E70120AFE70220704790F83C30B8
:103CD000012B3DD010B4012380F83C30022380F842
:103CE0003D3003685A689C6822F0700C0A6842EA0A
:103CF0000C025A600368174A93421AD0B3F1804FFE
:103D000017D0A2F57C42934213D002F58062934211
:103D10000FD002F5806293420BD002F578429342B5
:103D200007D002F57052934203D0A2F59432934229
:103D300004D124F080044A6814439C60012380F875
:103D40003D30002380F83C3018465DF8044B704746
:103D500002207047000001407047704738B50446A4
:103D60000268136923F44053C1680B4313618368ED
:103D70000269134342691343C2691A430168CB685D
:103D800023F4164323F00C031343CB6002685369FA
:103D900023F4407381690B4353610368314A9342B2
:103DA00006D002F58062934202D0FFF7E7F801E007
:103DB000FFF7F4F8E369B3F5004F29D000210318A9
:103DC00049411B1841F10001C90041EA5371DB0070
:103DD000181863684FEA83024FEA937341F10001B8
:103DE000FCF70EFA204DA5FB00325109642303FBBA
:103DF00011031B013233A5FB03235B0903F0F0021F
:103E000002EB011203F00F03216813448B6038BDED
:103E10000023021843EB0301121841F10001C9000D
:103E200041EA5271D200101841F100016268921803
:103E30005B41FCF7E5F90C4DA5FB00325109642309
:103E400003FB1103DB003233A5FB03235B095A009C
:103E500002F4F87202EB011203F007032168134425
:103E60008B60D4E7001001401F85EB512DE9F8432A
:103E700005460F4616469946DDF820802C682468D2
:103E800037EA04030CBF4FF0010C4FF0000CB445AF
:103E90002DD1B8F1FF3FF1D0B8F1000F05D0FEF7FA
:103EA00029F9A0EB09004045E8D92A6802F10C0382
:103EB00053E8003F23F4D0730C3242E8003100296C
:103EC000F3D12A6802F1140353E8003F23F0010301
:103ED000143242E800310029F3D1202385F83D3027
:103EE00085F83E30002385F83C30032000E00020B8
:103EF000BDE8F88358B310B5044690F83D300BB3D5
:103F0000242384F83D302268D36823F40053D3601F
:103F10002046FFF723FF2268136923F490431361BF
:103F20002268536923F02A0353612268D36843F45B
:103F30000053D36000202064202384F83D3084F8AF
:103F40003E3010BD80F83C30FEF714F8D8E7012071
:103F500070472DE9F04182B01E4690F83D30DBB24B
:103F6000202B54D104460D469046002953D0002AF8
:103F700053D090F83C30012B51D0012380F83C30D5
:103F800000230364212380F83D30FEF7B3F8074691
:103F9000A4F82480A4F82680A368B3F5805F05D038
:103FA0004FF00008002384F83C3012E0236913B17D
:103FB0004FF00008F6E7A8460025F3E738F8023B83
:103FC0002268C3F308035360E28C92B2013A92B2C2
:103FD000E284E38C9BB273B100963B4600228021C1
:103FE0002046FFF743FFE0B9002DE7D015F8012B7D
:103FF00023685A60E8E700963B46002240212046AD
:10400000FFF734FF78B9202384F83D3000E0022028
:1040100002B0BDE8F0810120FAE70120F8E70220B4
:10402000F6E70320F4E70320F2E7000008B500F00C
:10403000FBFF002809DB01F08BFA00280EDB00F003
:1040400035FB002813DB002008BD1D230C4A0D4959
:104050000D482CF035F94FF0FF30F5E72423084ADE
:1040600008490A482CF02CF96FF00100ECE72B23EB
:10407000034A044906482CF023F96FF00200E3E7F5
:104080007466030890640308CC640308F8640308AA
:104090002865030808B501F00FF800280EDB01F0D1
:1040A000AFFA002813DB00F049FB002818DB0121E0
:1040B000144800F00CF900281BDB08BD3B23124A12
:1040C000124913482CF0FCF84FF0FF30F5E742237B
:1040D0000D4A0E490F482CF0F3F86FF00100ECE7A1
:1040E0004923094A09490C482CF0EAF86FF002000C
:1040F000E3E75123044A054908482CF0E1F86FF042
:104100000200DAE7E80B0020606603089064030809
:104110005465030880650308B0650308DC6503087F
:1041200008B5FFF783FF002805DBFFF7B3FF002882
:104130000ADB002008BD6023084A094909482CF021
:10414000BFF84FF0FF30F5E76723044A04490648FB
:104150002CF0B6F86FF00100ECE700BF88660308AA
:1041600090640308086603083466030808B522F063
:104170009BF9024800F008F908BD00BFE80B0020D9
:1041800030B370B5044631B3807B884226D901EB49
:104190004100C500266806EBC00CCCF80820226858
:1041A00002EBC002D360236803EBC003049A1A61D8
:1041B000236803EBC003059A5A610A482CF080F883
:1041C00023682B44196908482CF07AF8002070BD48
:1041D0004FF0FF3070476FF00100F8E76FF001001B
:1041E000F5E700BFB8AB0408D8AB04080346B0B18C
:1041F000A9B1827B8A4212D9026801EB410102EB2C
:10420000C10000228260186800EBC100C26018681B
:1042100000EBC10002611B6803EBC1014A617047FA
:10422000024658B1037C23B108E051680020C8540D
:104230000133517B9942F8DCFF23D373704720B3DD
:10424000F8B50E461746054681734273FF23C373C4
:1042500001EB4100C00002F075F92860C0B10024F4
:1042600004E0E1B22846FFF7C1FF0134A642F8DCC2
:10427000384602F067F9686068B12846FFF7D0FF5A
:10428000002028730123EB72F8BD4FF0FF30704718
:104290006FF00100F8E76FF00200F5E758B169B17F
:1042A000827B8A420DD9027C72B9C172817201226D
:1042B0000274002070474FF0FF3070476FF001002C
:1042C00070476FF0010070476FF002007047C8B18F
:1042D0000246D1B108B5837B8B4219D9037CD3B98F
:1042E00090F90F30407B834218DA506810F803C011
:1042F0008C4516D001335BB2D373C1541046FFF71F
:10430000CDFF08BD4FF0FF3070476FF001007047E0
:104310006FF00100F5E76FF00200F2E76FF00300C5
:10432000EFE76FF00400ECE7A8B108B50346027CA4
:10433000A2B990F90F20002A13DB416800208854AD
:10434000596893F90F20013A52B2DA73895C184622
:10435000FFF7A4FF08BD4FF0FF3070476FF001007A
:10436000F8E76FF00100F5E768B108B58C46114633
:104370000268437A03EB430302EBC3035B690BB1AF
:104380006046984708BD7047002846D010B50446DF
:10439000C27A017B8A4211D100230374437A002B35
:1043A0003AD0827B934237D2026803EB430302EB9D
:1043B000C303DB68002B2FD098472DE00123037443
:1043C00016482BF07DFF2268237B03EB430302EBAF
:1043D000C303196912482BF073FF237B53B1A27BEF
:1043E000934207D2226803EB430302EBC3031B692A
:1043F00003B19847237B2372E37A637253B1A27BA4
:10440000934207D2226803EB430302EBC3039B688A
:1044100003B19847E37A237310BD7047E8AB0408F3
:104420000CAC040858B110B504461FF043FB03F070
:10443000AFFC06F065FF204605F0AAFE10BD002087
:10444000704758B110B504461FF034FB03F0A0FCD0
:1044500006F056FF204605F0A3FE10BD0020704771
:1044600058B110B504461FF025FB03F091FC06F08F
:1044700047FF204605F069FE10BD00207047000090
:10448000F0B593B01B9E90B115461C46074681B10E
:104490004D609EB1CE611A9BCB600C624C62189B42
:1044A0008B62199BCB620F6008461FF0EDFC13B0C6
:1044B000F0BD01A81FF09CFC01A9E9E7004EE9E767
:1044C000673F020808B50248FFF72EFF08BD00BF8E
:1044D000E80B002008B5024B186809F04BFC08BD3A
:1044E000700E002070B51B4E306827F01BFA1A4D75
:1044F00028601A4927F030FF6FF01D0300220521C4
:10450000286805F0E5FD164C204621F0C5FB4FF06C
:10451000FF31204621F020FF1249204621F022FFE2
:1045200000222146286808F0CFFF306827F0FAF90A
:104530000D4D28600D4927F00FFF00231A46052175
:10454000286805F0C5FD00222146286808F0BCFF58
:1045500070BD00BF700E0020780E00200C5F0708B1
:10456000900E00200C0000207C0E00201C5F07082D
:10457000F0B583B00546284E306827F0D3F9274CB4
:104580002060294627F0E8FE00231A460221206811
:1045900005F09EFD224D284621F07EFB4FF0FF31B5
:1045A000284621F0D9FE1F49284621F0DBFE0022D3
:1045B0002946206808F088FF3068FFF733FF80B293
:1045C0000138194FB880306828F046FB174D286035
:1045D0000222394628F04CFB0226009600230E22C8
:1045E0002168286806F0ACFE114C204621F054FBEF
:1045F0004FF60001204621F097FE3146204621F07B
:1046000087FE0121204621F089FE002221462868EC
:1046100008F05AFF03B0F0BD700E0020800E00209D
:10462000A80E002040000020840E00208C0E0020E8
:10463000B40E002010B582B00C4B186826F01AFF9B
:104640000B4C20600B4926F021FF1423009300231C
:104650000E2209490968206806F072FE00231A46F6
:104660000921206805F034FD02B010BD700E002055
:10467000740E0020A41F07088C0E002010B5094BF3
:104680001C68204609F05BFA09F099FA411E2046A1
:1046900009F0FBFB0448FFF76BFFFFF7CBFFFFF7C9
:1046A00021FF10BD700E0020345F070838B51FF0E1
:1046B00001FA03F06DFB04F043FC1E4B1860B0B32D
:1046C000002107F06FF81B4DF0228721286805F0C4
:1046D00099FC00231A460921286805F0F9FC164CBC
:1046E000204621F0D9FA0021204621F04DFE00217C
:1046F000204621F0CBFD4FF00001204621F09CFD2B
:104700000021204621F080FD0021204621F082FD7D
:104710000021204621F06CFD0021204621F06EFD95
:1047200000222146286808F0CFFE002038BD4FF057
:10473000FF30FBE7700E00209C0E002000B583B018
:104740000A4B01930A4B009300230A4A07210A48A7
:10475000FFF716FD002803DB002003B05DF804FB23
:1047600006482BF00FFE4FF0FF30F6E7C544000877
:10477000D54400087D460008E80B00203C5F070890
:1047800008B502210148FFF7A2FD08BDE80B002093
:1047900008B5074B186808B121F046FE054B1868AC
:1047A00008B121F041FE044B186809F0E3FA08BD96
:1047B0009411002098110020E010002010B5084B43
:1047C000186826F057FE074C2060074926F05EFE69
:1047D00000231A460921206805F07AFC10BD00BFAD
:1047E000E0100020E41000203062050838B5134BBB
:1047F000186827F097F8124C2060124927F046FD00
:104800000121206827F036FE1E23002202212068A5
:1048100005F05EFC0C4D284621F03EFA4FF0FF31CA
:10482000284621F099FD0949284621F09BFD0022E8
:104830002946206808F048FE38BD00BFE01000207F
:10484000F0100020745F07085411002068870408E6
:1048500070B51E4E306827F065F81D4D28601D4963
:1048600027F014FD00231A460121286805F030FCCA
:10487000194C204621F010FA4FF0FF31204621F06C
:104880006BFD1649204621F06DFD00222146286867
:1048900008F01AFE306827F045F8114C20601149E5
:1048A00027F0F4FC0121206827F0E4FD00231A46DC
:1048B0000321206805F00CFC00224FF4FA610A483D
:1048C00021F092FD094B186070BD00BFE010002080
:1048D000EC100020885F0708601100200C00002009
:1048E000E8100020945F0708F148000894110020A8
:1048F00008B501231A4603490348006827F003FD61
:1049000008BD00BFA45F0708EC10002030B583B0DD
:104910004B4B186804F014FB4A4D2860002106F048
:1049200041FF00221146286809F0DFF85022822159
:10493000286805F067FB00231A460921286805F05E
:10494000C7FB414C204621F0A7F90021204621F069
:104950001BFD4FF60001204621F086FC0021204679
:1049600021F094FC0021204621F04EFC002120463D
:1049700021F050FC0021204621F03AFC0021204685
:1049800021F03CFC00222146286808F09DFD2F4CB8
:10499000204621F081F94FF0FF31204621F0DCFC68
:1049A0002B49204621F0DEFC002518E0254B186835
:1049B00026F0B8FF0446274927F068FC0022234967
:1049C000204608F081FD0523234A32F915200921EC
:1049D000204605F07DFB214B43F825400135032D92
:1049E000E4D900251AE0174B186826F09BFF04460F
:1049F000184927F04BFC00221449204608F064FDBA
:104A00000A23009300230E22144951F82510204652
:104A100006F096FC124B43F825400135032DE2D9F0
:104A2000104B00221A605A609A60DA601A614FF4E3
:104A3000FA710D4821F0D8FC0C4B186003B030BD62
:104A4000E010002090110020841100207811002037
:104A5000809C0308B05F0708EC5F0708F410002093
:104A600004110020341100205D4F0008981100202F
:104A70002DE9F04784B09A4C002221469948FEF770
:104A8000B2FC6278984BA3FB0201C90801EB8101DB
:104A9000A2EB4102D1B2954A5278A3FB0203DB0894
:104AA00003EB8303A2EB4303DBB299423CD18C4B73
:104AB0005A788D49A1FB02328C4B5B78A1FB031322
:104AC000DB08B3EBD20F40F0A280854B1A78864BFF
:104AD000A3FB0201C90801EB8101A2EB4102D1B2A3
:104AE000824A1278A3FB0203DB0803EB8303A2EBE9
:104AF0004303DBB2994240F00B81794B1A787A4933
:104B0000A1FB0232794B1B78A1FB0313DB08B3EB4B
:104B1000D20F40F07081754C714D0FCD0FC42B68D2
:104B2000236004B0BDE8F087714BD868FFF798FCAC
:104B30000446704BD868FFF793FC844262DD6D4BEE
:104B4000DE686B4BDD68694B5B78674CA4FB031236
:104B5000D20802EB8202A3EB4202674FD2B239467F
:104B6000304627F0D0FB5E4B5B78A4FB0312D208E3
:104B700002EB8202A3EB4202D2B23946284627F06A
:104B8000C2FB6FF00903009300230B223146284635
:104B900006F0D6FB3046FFF763FC04462846FFF7D5
:104BA0005FFC241A002CB8BF644224B23046FFF7E1
:104BB00057FC82463046FFF753FCDFF85081002750
:104BC000039702974FF0C809CDF804902044009055
:104BD0005346424649493046FFF752FC2846FFF704
:104BE0003FFC06462846FFF73BFC03970297CDF8AB
:104BF0000490044400943346424641492846FFF756
:104C00003FFC54E73A4BDE683A4BDD689BE7384B94
:104C10009868FFF725FC0446364B9868FFF720FCA0
:104C2000844258DD334B9E68314B9D682F4B5A7838
:104C30002D4FA7FB0232304CD2082146304627F0D8
:104C400062FB274B5A78A7FB0232D208214628463E
:104C500027F059FB6FF00903009300230B22314624
:104C6000284606F06DFB3046FFF7FAFB044628465F
:104C7000FFF7F6FB241A002CB8BF644224B230467A
:104C8000FFF7EEFB82463046FFF7EAFBDFF87C8059
:104C90000027039702974FF0C809CDF804902044ED
:104CA00000905346424617493046FFF7E9FB284635
:104CB000FFF7D6FB06462846FFF7D2FB039702977D
:104CC000CDF8049004440094334642460E492846E9
:104CD000FFF7D6FBF9E6064B9E68064B9D68A5E7F5
:104CE00020110020540C0020CDCCCCCC341100205D
:104CF00004110020F4100020B45F07089C1000206D
:104D00005810002014100020D00F0020679F0008CA
:104D10006D4B5868FFF7A4FB04466C4B5868FFF7CF
:104D20009FFB844262DD694B5E68674B5D68684B40
:104D30001B78684CA4FB0312D20802EB8202A3EB9F
:104D40004202654FD2B23946304627F0DCFA634B57
:104D50001B78A4FB0312D20802EB8202A3EB4202EF
:104D6000D2B23946284627F0CEFA6FF009030093F5
:104D700000230B223146284606F0E2FA3046FFF7C0
:104D80006FFB04462846FFF76BFB241A002CB8BFC4
:104D9000644224B23046FFF763FB82463046FFF799
:104DA0005FFBDFF84C810027039702974FF0C8099B
:104DB000CDF804902044009053464246484930467E
:104DC000FFF75EFB2846FFF74BFB06462846FFF73A
:104DD00047FB03970297CDF80490044400943346B0
:104DE000424640492846FFF74BFB86E6364B5E6855
:104DF000364B5D689BE7344B1868FFF731FB044680
:104E0000324B1868FFF72CFB844258DD2F4B1E688D
:104E10002D4B1D682E4B1A782E4FA7FB02322E4CBD
:104E2000D2082146304627F06EFA2C4B1A78A7FBA1
:104E30000232D2082146284627F065FA6FF00903AE
:104E4000009300230B223146284606F079FA3046BB
:104E5000FFF706FB04462846FFF702FB241A002C46
:104E6000B8BF644224B23046FFF7FAFA82463046B1
:104E7000FFF7F6FADFF878800027039702974FF0E4
:104E8000C809CDF804902044009053464246164984
:104E90003046FFF7F5FA2846FFF7E2FA06462846BD
:104EA000FFF7DEFA03970297CDF8049004440094CC
:104EB000334642460D492846FFF7E2FA2BE6024BFD
:104EC0001E68024B1D68A5E704110020F4100020A5
:104ED00034110020CDCCCCCCB45F070820110020C9
:104EE0008C0F0020480F0020040F0020C00E00206F
:104EF000679F000830B58BB0134D00222946134838
:104F0000FEF797FA0DF10C0C114C0FCCACE80F002A
:104F100094E807008CE807002B78013B062B00D9AA
:104F20000023094A0AA901EB830353F81C3C0093B0
:104F30009378527807490848006827F0E4F9FCF7AD
:104F400049FB0BB030BD00BF1C110020540C0020E9
:104F500078630308B85F0708F010002010B5FFF76A
:104F600087FD054C20681CF00AFF60681CF007FFF5
:104F7000FFF7C0FF10BD00BF1411002070B51A4C20
:104F8000204620F089FE0321204621F0FDF900256E
:104F90000FE06FF0090300220921204605F098F880
:104FA00000221149204608F08FFA104B43F82540A3
:104FB0000135012D16D80E4B18681CF0B5FE0446BD
:104FC0006FF304066FF34A1646F478410E461CF060
:104FD000B7FE0A220821204605F014F8002DD8D08B
:104FE0000A23D8E770BD00BF48110020141100202B
:104FF0009011002010B50B4B1C68204608F09FFD57
:1050000008F0DDFD411E204608F03FFFFFF7D6FB0C
:10501000FFF71EFCFFF7EAFBFFF778FCFFF7AEFF98
:1050200010BD00BFE010002038B51EF043FD02F0B7
:10503000AFFE03F085FF1E4B1860B0B3002106F0F1
:10504000B1FB1B4DF0228721286804F0DBFF002311
:105050001A460921286805F03BF8164C204620F036
:105060001BFE0021204621F08FF90021204621F06F
:105070000DF94FF00001204621F0DEF80021204616
:1050800021F0C2F80021204621F0C4F8002120467A
:1050900021F0AEF80021204621F0B0F80022214690
:1050A000286808F011FA002038BD4FF0FF30FBE708
:1050B000E01000206C11002000B583B00A4B019372
:1050C0000A4B009300230A4A01210A48FFF758F8C7
:1050D000002803DB002003B05DF804FB06482BF03A
:1050E00051F94FF0FF30F6E781470008914700087B
:1050F000F54F0008E80B0020D05F0708052800D90D
:10510000704730B585B004460F4B03EB0013596868
:105110000E4B186827F020F9013C6FF0450000FBAA
:1051200004F40B4B1D682846FFF79AF9034600224A
:1051300003920292C82201920094064A0649284628
:10514000FFF79EF905B030BD740000203412002036
:1051500028120020679F0008E011002008B5084BC6
:105160001B78181809D4052800D90020C0B2044BB8
:1051700018701878FFF7C2FF08BD0520F3E700BFDD
:105180003012002010B51C4B98420BD00446032966
:1051900001D0062905D1194B9C4223D0184B9C42C3
:1051A00025D010BD032905D00429FAD11548FFF7F1
:1051B000BBF8F6E7144A1178144B03EB01131C7B80
:1051C000117813482BF07CF80E4B1B6804EB44025B
:1051D00003EBC2039B68002BE3D021460948FFF78D
:1051E00076F8DEE74FF0FF30FFF7B8FFD6E7012093
:1051F000FFF7B4FFD5E700BF640B0020380B002099
:10520000900B0020E80B00203012002074000020DA
:10521000F45F070870B584B00F4B1E683046FFF787
:105220001FF905460D4B1868FFF70BF9002403948E
:105230000294C8230193323000902B46084A094952
:105240003046FFF71DF9084B1C70084B186808F032
:1052500091FD04B070BD00BF281200202C12002068
:10526000679F00089C1100203012002024120020AB
:10527000F0B583B0284E306826F054FB274C2060F0
:10528000274B596927F068F800231A460221206845
:1052900004F01EFF234D284620F0FEFC4FF0FF31A6
:1052A000284621F059F82049284621F05BF80022D1
:1052B0002946206808F008F93068FFF7B3F880B293
:1052C00001381A4FB880306827F0C6FC184D2860A6
:1052D0000222394627F0CCFC0226009600230E223B
:1052E0002168286806F02CF8124C204620F0D4FCE7
:1052F0004FF60001204621F017F83146204621F0F4
:1053000007F80121204621F009F8002221462868EB
:1053100008F0DAF803B0F0BD2412002034120020A7
:105320007400002068120020400000203812002085
:10533000401200207412002038B50E4D286826F067
:1053400099F804460C4926F0A1F800231A460221D8
:10535000204604F0BDFE286826F08CF80446074974
:1053600026F094F800231A460521204604F0B0FEEA
:1053700038BD00BF2C120020C8FE0608ECDD060870
:10538000F0B583B05D4C206803F0DAFD06465C4D55
:1053900028602068FFF755F884B25A4F3868FFF745
:1053A0005FF882B2A21A92B2143A12B24621304683
:1053B00004F028FE0021286806F0F4F900221146C6
:1053C000286808F092FB0A23009300230E22396814
:1053D000286805F0B5FF4C4C204620F05DFC00210C
:1053E000204620F011FF0021204620F013FF00216D
:1053F000204620F0FDFE0021204620F0FFFE002187
:10540000204620F0C1FF0021204620F03FFF00226F
:105410002146286808F058F8286803F091FD3B4EB3
:1054200030600022114608F060FB0021306806F071
:10543000B9F934682868FEF7F5FF01464FF4D272D7
:10544000204604F0DFFD00231A460921306804F0ED
:105450003FFE34682868FEF7F4FF0146204604F05A
:1054600082FD2B4C204620F017FC0021204620F026
:10547000CBFE0021204620F0CDFE0021204620F06A
:10548000B7FE0021204620F0B9FE4FF6000120466D
:1054900020F0EAFE0021204620F076FF0021204681
:1054A00020F0F4FE00222146306808F00DF80024B8
:1054B0001FE0164B186825F0DDFF0546154B22014D
:1054C00003EB0416995825F0E1FF00231A46022148
:1054D000284604F0FDFD2846FEF7B3FF04EB8401E7
:1054E000C1EBC101490009B2284604F03CFDB5609A
:1054F0000134052CDDD903B0F0BD00BF241200201B
:105500002C120020401200205C12002028120020E3
:10551000501200207400002010B50B4B1C68204670
:1055200008F00DFB08F04BFB411E204608F0ADFCD7
:10553000FFF79EFEFFF724FFFFF7FEFE034B1878F0
:10554000FFF7DCFD10BD00BF241200203012002048
:1055500070B51EF0AFFA02F01BFC03F0F1FC264B15
:105560001860002844D0002106F01CF9224D2E6856
:105570001EF0A0FA02F00CFCFEF754FF04461EF0E9
:1055800099FA02F005FCFEF75CFF02462146304620
:1055900004F038FD00231A460921286804F098FD1C
:1055A000164C204620F078FB0021204620F0ECFE2F
:1055B0000021204620F06AFE4FF00001204620F036
:1055C0003BFE0021204620F01FFE0021204620F057
:1055D00021FE0021204620F00BFE0021204620F075
:1055E0000DFE00222146286807F06EFF002070BDE6
:1055F0004FF0FF30FBE700BF2412002044120020D0
:1056000000B583B00A4B01930A4B009300230A4A6A
:1056100002210A48FEF7B4FD002803DB002003B096
:105620005DF804FB06482AF0ADFE4FF0FF30F6E7C8
:10563000855100081552000819550008E80B002094
:105640002C60070800207047002800F0C58010B5C6
:10565000044683687BB3827912B10268013202602A
:105660009847E379B0EBD31F13D01A4603F03F03FA
:10567000013303F03F0363F30502E271022B0CD9FF
:10568000D3B260F3C713E371DBB26FF30503E371C9
:1056900003E0E3796FF30503E371A379042B0AD8E0
:1056A000DFE803F0031731688000E379C3F3801269
:1056B000B2EBD31F00D010BD002363712360012320
:1056C0002371A371E368002BF5D000212046984791
:1056D000F1E7E379C3F38012B2EBD31F06D00123C5
:1056E0006371002323600223A371E4E72368C82BBE
:1056F000E1D905236371236A13B105212046984738
:105700000423A371D7E7E379C3F38012B2EBD31F6D
:105710000AD023683C2BCED92379012B18D0022B39
:105720001FD00023A371C6E700236371E36813B1A0
:10573000002120469847237901332371636913B10F
:10574000022120469847002323600323A371B2E778
:1057500003236371A369002BE3D0032120469847FC
:10576000DFE704236371E369002BDAD004212046CC
:105770009847D6E7E379C3F38012B2EBD31F9AD0F0
:1057800001236371236913B10121204698472368DF
:105790003B2B04D8002323600223A3718BE7002353
:1057A000A37188E7E379C3F38012B2EBD31F09D06A
:1057B00001236371236913B1012120469847002317
:1057C000A37178E706236371636A002B3FF473AF1C
:1057D0000621204698476EE77047B0B170B50E4677
:1057E00015460446A2B12C2200212AF017FDE379C8
:1057F00066F38613E371A560A847E37960F3C713E6
:10580000E3712046FFF71EFF70BD4FF0FF30704779
:105810004FF0FF30F8E740B152B106290BD8023102
:1058200000EB81014A60002070474FF0FF30704765
:105830004FF0FF3070476FF0010070470A4B196856
:10584000024650B10B461BB1934209D09B6AFAE75E
:105850009162054B1A60002070474FF0FF3070478F
:105860004FF0FF30704700BF8012002010B5054B8D
:105870001C6803E02046FFF7E7FEA46A002CF9D17C
:1058800010BD00BF8012002030B108B539B14AB157
:10589000006800F0F1F808BD4FF0FF3070474FF09E
:1058A000FF30F8E74FF0FF30F5E720B108B50068AA
:1058B00000F0CBF808BD4FF0FF30704720B108B5BD
:1058C000006800F0F0F808BD4FF0FF30704758B1A5
:1058D00069B1002A0EDD002B0FDD08B501604260C2
:1058E0008360FFF7EBFF08BD4FF0FF3070474FF0CC
:1058F000FF3070474FF0FF3070474FF0FF30704778
:105900002DE9F04182B00C46CD18089902EB010850
:10591000002840D0164607462A238DF8073001227A
:105920000DF10701FFF7C1FF343423128DF8003069
:105930008DF8014005F133031A128DF802208DF81D
:105940000330042269463846FFF79EFF2B238DF86B
:10595000073001220DF107013846FFF7A6FF331289
:105960008DF800308DF801604FEA28238DF8023061
:105970008DF80380042269463846FFF785FF2C2303
:105980008DF8073001220DF107013846FFF78DFF32
:1059900002B0BDE8F0814FF0FF30F9E710B584B0F8
:1059A0001C0A8DF80C408DF80D3058B104460123C7
:1059B0000093FFF7A5FF022203A92046FFF764FF2B
:1059C00004B010BD4FF0FF30FAE7F0B170B582B00F
:1059D000054683680093436800221146FFF790FF55
:1059E00000260BE04FF6FF73324621462846FFF7AC
:1059F000D5FF01346B68A342F4DC0136AB68B342D7
:105A000001DD0024F6E702B070BD704770B582B0CA
:105A1000069D88B10646002B11DD002D12DD05FB29
:105A200003F464000095FFF76BFFA2B207993046BC
:105A3000FFF72AFF02B070BD4FF0FF30FAE76FF0BA
:105A40000100F7E76FF00100F4E778B170B50C469C
:105A500015460646036863B183680BB1002098477A
:105A60003368294620469847002070BD4FF0FF302C
:105A700070474FF0FF30F8E778B170B50C46154627
:105A80000646036863B183680BB101209847336809
:105A9000294620469847002070BD4FF0FF307047E0
:105AA0004FF0FF30F8E72DE9F04F85B0044643682A
:105AB0000BB10020984763680BB101209847002C78
:105AC00000F08B813A238DF80F3001220DF10F0188
:105AD0002046FFF7BAFF65238DF8003001226946A2
:105AE0002046FFF7C9FFC5238DF80F3001220DF1C5
:105AF0000F012046FFF7A9FF1A238DF8003001227D
:105B000069462046FFF7B8FF36238DF80F30012293
